{
  "_format": "hh-sol-artifact-1",
  "contractName": "Distributor",
  "sourceName": "contracts/staking/StakingDistributor.sol",
  "abi": [
    {
      "inputs": [
        {
          "internalType": "address",
          "name": "_treasury",
          "type": "address"
        },
        {
          "internalType": "address",
          "name": "_ohm",
          "type": "address"
        },
        {
          "internalType": "address",
          "name": "_staking",
          "type": "address"
        },
        {
          "internalType": "address",
          "name": "_authority",
          "type": "address"
        }
      ],
      "stateMutability": "nonpayable",
      "type": "constructor"
    },
    {
      "anonymous": false,
      "inputs": [
        {
          "indexed": true,
          "internalType": "contract ISphynxAuthority",
          "name": "authority",
          "type": "address"
        }
      ],
      "name": "AuthorityUpdated",
      "type": "event"
    },
    {
      "inputs": [
        {
          "internalType": "address",
          "name": "_recipient",
          "type": "address"
        },
        {
          "internalType": "uint256",
          "name": "_rewardRate",
          "type": "uint256"
        }
      ],
      "name": "addRecipient",
      "outputs": [],
      "stateMutability": "nonpayable",
      "type": "function"
    },
    {
      "inputs": [
        {
          "internalType": "uint256",
          "name": "",
          "type": "uint256"
        }
      ],
      "name": "adjustments",
      "outputs": [
        {
          "internalType": "bool",
          "name": "add",
          "type": "bool"
        },
        {
          "internalType": "uint256",
          "name": "rate",
          "type": "uint256"
        },
        {
          "internalType": "uint256",
          "name": "target",
          "type": "uint256"
        }
      ],
      "stateMutability": "view",
      "type": "function"
    },
    {
      "inputs": [],
      "name": "authority",
      "outputs": [
        {
          "internalType": "contract ISphynxAuthority",
          "name": "",
          "type": "address"
        }
      ],
      "stateMutability": "view",
      "type": "function"
    },
    {
      "inputs": [],
      "name": "distribute",
      "outputs": [],
      "stateMutability": "nonpayable",
      "type": "function"
    },
    {
      "inputs": [
        {
          "internalType": "uint256",
          "name": "",
          "type": "uint256"
        }
      ],
      "name": "info",
      "outputs": [
        {
          "internalType": "uint256",
          "name": "rate",
          "type": "uint256"
        },
        {
          "internalType": "address",
          "name": "recipient",
          "type": "address"
        }
      ],
      "stateMutability": "view",
      "type": "function"
    },
    {
      "inputs": [
        {
          "internalType": "uint256",
          "name": "_rate",
          "type": "uint256"
        }
      ],
      "name": "nextRewardAt",
      "outputs": [
        {
          "internalType": "uint256",
          "name": "",
          "type": "uint256"
        }
      ],
      "stateMutability": "view",
      "type": "function"
    },
    {
      "inputs": [
        {
          "internalType": "address",
          "name": "_recipient",
          "type": "address"
        }
      ],
      "name": "nextRewardFor",
      "outputs": [
        {
          "internalType": "uint256",
          "name": "",
          "type": "uint256"
        }
      ],
      "stateMutability": "view",
      "type": "function"
    },
    {
      "inputs": [
        {
          "internalType": "uint256",
          "name": "_index",
          "type": "uint256"
        }
      ],
      "name": "removeRecipient",
      "outputs": [],
      "stateMutability": "nonpayable",
      "type": "function"
    },
    {
      "inputs": [
        {
          "internalType": "uint256",
          "name": "_index",
          "type": "uint256"
        },
        {
          "internalType": "bool",
          "name": "_add",
          "type": "bool"
        },
        {
          "internalType": "uint256",
          "name": "_rate",
          "type": "uint256"
        },
        {
          "internalType": "uint256",
          "name": "_target",
          "type": "uint256"
        }
      ],
      "name": "setAdjustment",
      "outputs": [],
      "stateMutability": "nonpayable",
      "type": "function"
    },
    {
      "inputs": [
        {
          "internalType": "contract ISphynxAuthority",
          "name": "_newAuthority",
          "type": "address"
        }
      ],
      "name": "setAuthority",
      "outputs": [],
      "stateMutability": "nonpayable",
      "type": "function"
    }
  ],
  "bytecode": "0x610140604052600c6101008190526b15539055551213d49256915160a21b61012090815262000032916000919062000216565b50620f424060e0523480156200004757600080fd5b506040516200167a3803806200167a833981810160405260808110156200006d57600080fd5b5080516020820151604080840151606090940151600180546001600160a01b0319166001600160a01b038316908117909155915193949293909182917f2f658b440c35314f52658ea8a740e05b284cdc84dc9ae01e891f21b8933e7cad90600090a2506001600160a01b0384166200012c576040805162461bcd60e51b815260206004820152601660248201527f5a65726f20616464726573733a20547265617375727900000000000000000000604482015290519081900360640190fd5b6001600160601b0319606085901b1660a0526001600160a01b0383166200018e576040805162461bcd60e51b81526020600482015260116024820152700b4cae4de40c2c8c8e4cae6e67440a6a09607b1b604482015290519081900360640190fd5b6001600160601b0319606084901b166080526001600160a01b038216620001fc576040805162461bcd60e51b815260206004820152601560248201527f5a65726f20616464726573733a205374616b696e670000000000000000000000604482015290519081900360640190fd5b5060601b6001600160601b03191660c05250620002c29050565b828054600181600116156101000203166002900490600052602060002090601f0160209004810192826200024e576000855562000299565b82601f106200026957805160ff191683800117855562000299565b8280016001018555821562000299579182015b82811115620002995782518255916020019190600101906200027c565b50620002a7929150620002ab565b5090565b5b80821115620002a75760008155600101620002ac565b60805160601c60a05160601c60c05160601c60e0516113746200030660003980610a705280610df0525080610b2f525080610bc6525080610a9552506113746000f3fe608060405234801561001057600080fd5b506004361061009e5760003560e01c8063bc3b2b1211610066578063bc3b2b121461018f578063bf7e214f146101cc578063c9fa8b2a146101f0578063e4fc6b6d1461020d578063f7982243146102155761009e565b80632e340599146100a357806336d33f44146100e15780635db854b0146101195780637a9e5e4b1461014c5780638e69e25514610172575b600080fd5b6100c0600480360360208110156100b957600080fd5b5035610241565b604080519283526001600160a01b0390911660208301528051918290030190f35b610107600480360360208110156100f757600080fd5b50356001600160a01b0316610278565b60408051918252519081900360200190f35b61014a6004803603608081101561012f57600080fd5b50803590602081013515159060408101359060600135610305565b005b61014a6004803603602081101561016257600080fd5b50356001600160a01b031661068e565b61014a6004803603602081101561018857600080fd5b50356107fe565b6101ac600480360360208110156101a557600080fd5b5035610a34565b604080519315158452602084019290925282820152519081900360600190f35b6101d4610a5a565b604080516001600160a01b039092168252519081900360200190f35b6101076004803603602081101561020657600080fd5b5035610a69565b61014a610b24565b61014a6004803603604081101561022b57600080fd5b506001600160a01b038135169060200135610ca7565b6003818154811061025157600080fd5b6000918252602090912060029091020180546001909101549091506001600160a01b031682565b60008060005b6003548110156102fe57836001600160a01b03166003828154811061029f57fe5b60009182526020909120600160029092020101546001600160a01b031614156102f6576102f36102ec600383815481106102d557fe5b906000526020600020906002020160000154610a69565b8390610ef8565b91505b60010161027e565b5092915050565b600160009054906101000a90046001600160a01b03166001600160a01b0316630c340a246040518163ffffffff1660e01b815260040160206040518083038186803b15801561035357600080fd5b505afa158015610367573d6000803e3d6000fd5b505050506040513d602081101561037d57600080fd5b50516001600160a01b03163314806104165750600160009054906101000a90046001600160a01b03166001600160a01b031663452a93206040518163ffffffff1660e01b815260040160206040518083038186803b1580156103de57600080fd5b505afa1580156103f2573d6000803e3d6000fd5b505050506040513d602081101561040857600080fd5b50516001600160a01b031633145b6104515760405162461bcd60e51b81526004018080602001828103825260228152602001806112cd6022913960400191505060405180910390fd5b60006001600160a01b03166003858154811061046957fe5b60009182526020909120600160029092020101546001600160a01b031614156104d4576040805162461bcd60e51b8152602060048201526018602482015277149958da5c1a595b9d08191bd95cc81b9bdd08195e1a5cdd60421b604482015290519081900360640190fd5b600160009054906101000a90046001600160a01b03166001600160a01b031663452a93206040518163ffffffff1660e01b815260040160206040518083038186803b15801561052257600080fd5b505afa158015610536573d6000803e3d6000fd5b505050506040513d602081101561054c57600080fd5b50516001600160a01b03163314156105e7576105936103e861058d60196003888154811061057657fe5b600091825260209091206002909102015490610f59565b90610fb2565b8211156105e7576040805162461bcd60e51b815260206004820152601f60248201527f4c696d697465723a2063616e6e6f742061646a757374206279203e322e352500604482015290519081900360640190fd5b8261064957600384815481106105f957fe5b9060005260206000209060020201600001548211156106495760405162461bcd60e51b815260040180806020018281038252602f815260200180611310602f913960400191505060405180910390fd5b6040805160608101825293151584526020808501938452848201928352600095865260029081905294209251835460ff19169015151783559051600183015551910155565b600160009054906101000a90046001600160a01b03166001600160a01b0316630c340a246040518163ffffffff1660e01b815260040160206040518083038186803b1580156106dc57600080fd5b505afa1580156106f0573d6000803e3d6000fd5b505050506040513d602081101561070657600080fd5b50516000906001600160a01b031633146107b35760405162461bcd60e51b81526020600482019081528254600260001961010060018416150201909116046024830181905290918291604490910190849080156107a45780601f10610779576101008083540402835291602001916107a4565b820191906000526020600020905b81548152906001019060200180831161078757829003601f168201915b50509250505060405180910390fd5b50600180546001600160a01b0319166001600160a01b0383169081179091556040517f2f658b440c35314f52658ea8a740e05b284cdc84dc9ae01e891f21b8933e7cad90600090a250565b600160009054906101000a90046001600160a01b03166001600160a01b0316630c340a246040518163ffffffff1660e01b815260040160206040518083038186803b15801561084c57600080fd5b505afa158015610860573d6000803e3d6000fd5b505050506040513d602081101561087657600080fd5b50516001600160a01b031633148061090f5750600160009054906101000a90046001600160a01b03166001600160a01b031663452a93206040518163ffffffff1660e01b815260040160206040518083038186803b1580156108d757600080fd5b505afa1580156108eb573d6000803e3d6000fd5b505050506040513d602081101561090157600080fd5b50516001600160a01b031633145b61094a5760405162461bcd60e51b81526004018080602001828103825260228152602001806112cd6022913960400191505060405180910390fd5b60006001600160a01b03166003828154811061096257fe5b60009182526020909120600160029092020101546001600160a01b031614156109cd576040805162461bcd60e51b8152602060048201526018602482015277149958da5c1a595b9d08191bd95cc81b9bdd08195e1a5cdd60421b604482015290519081900360640190fd5b6000600382815481106109dc57fe5b906000526020600020906002020160010160006101000a8154816001600160a01b0302191690836001600160a01b03160217905550600060038281548110610a2057fe5b600091825260209091206002909102015550565b600260208190526000918252604090912080546001820154919092015460ff9092169183565b6001546001600160a01b031681565b6000610b1e7f000000000000000000000000000000000000000000000000000000000000000061058d847f00000000000000000000000000000000000000000000000000000000000000006001600160a01b03166318160ddd6040518163ffffffff1660e01b815260040160206040518083038186803b158015610aec57600080fd5b505afa158015610b00573d6000803e3d6000fd5b505050506040513d6020811015610b1657600080fd5b505190610f59565b92915050565b336001600160a01b037f00000000000000000000000000000000000000000000000000000000000000001614610b90576040805162461bcd60e51b815260206004820152600c60248201526b4f6e6c79207374616b696e6760a01b604482015290519081900360640190fd5b60005b600354811015610ca457600060038281548110610bac57fe5b9060005260206000209060020201600001541115610c9c577f00000000000000000000000000000000000000000000000000000000000000006001600160a01b03166340c10f1960038381548110610c0057fe5b906000526020600020906002020160010160009054906101000a90046001600160a01b0316610c35600385815481106102d557fe5b6040518363ffffffff1660e01b815260040180836001600160a01b0316815260200182815260200192505050600060405180830381600087803b158015610c7b57600080fd5b505af1158015610c8f573d6000803e3d6000fd5b50505050610c9c81610ff4565b600101610b93565b50565b600160009054906101000a90046001600160a01b03166001600160a01b0316630c340a246040518163ffffffff1660e01b815260040160206040518083038186803b158015610cf557600080fd5b505afa158015610d09573d6000803e3d6000fd5b505050506040513d6020811015610d1f57600080fd5b50516000906001600160a01b03163314610d925760405162461bcd60e51b81526020600482019081528254600260001961010060018416150201909116046024830181905290918291604490910190849080156107a45780601f10610779576101008083540402835291602001916107a4565b506001600160a01b038216610dee576040805162461bcd60e51b815260206004820152601760248201527f5a65726f20616464726573733a20526563697069656e74000000000000000000604482015290519081900360640190fd5b7f0000000000000000000000000000000000000000000000000000000000000000811115610e63576040805162461bcd60e51b815260206004820152601e60248201527f526174652063616e6e6f74206578636565642064656e6f6d696e61746f720000604482015290519081900360640190fd5b604080518082019091529081526001600160a01b03918216602082019081526003805460018101825560009190915291517fc2575a0e9e593c00f959f8c92f12db2869c3395a3b0502d05e2516446f71f85b600290930292830155517fc2575a0e9e593c00f959f8c92f12db2869c3395a3b0502d05e2516446f71f85c90910180546001600160a01b03191691909216179055565b600082820183811015610f52576040805162461bcd60e51b815260206004820152601b60248201527f536166654d6174683a206164646974696f6e206f766572666c6f770000000000604482015290519081900360640190fd5b9392505050565b600082610f6857506000610b1e565b82820282848281610f7557fe5b0414610f525760405162461bcd60e51b81526004018080602001828103825260218152602001806112ef6021913960400191505060405180910390fd5b6000610f5283836040518060400160405280601a81526020017f536166654d6174683a206469766973696f6e206279207a65726f000000000000815250611159565b610ffc6112a9565b506000818152600260208181526040928390208351606081018552815460ff16151581526001820154928101839052920154928201929092529015611155578051156110ce5761106e81602001516003848154811061105757fe5b600091825260209091206002909102015490610ef8565b6003838154811061107b57fe5b60009182526020909120600290910201556040810151600380548490811061109f57fe5b906000526020600020906002020160000154106110c9576000828152600260205260408120600101555b611155565b6110fa8160200151600384815481106110e357fe5b600091825260209091206002909102015490611212565b6003838154811061110757fe5b60009182526020909120600290910201556040810151600380548490811061112b57fe5b90600052602060002090600202016000015411611155576000828152600260205260408120600101555b5050565b600081836111e55760405162461bcd60e51b81526004018080602001828103825283818151815260200191508051906020019080838360005b838110156111aa578181015183820152602001611192565b50505050905090810190601f1680156111d75780820380516001836020036101000a031916815260200191505b509250505060405180910390fd5b5060008385816111f157fe5b0490508385816111fd57fe5b0681850201851461120a57fe5b949350505050565b6000610f5283836040518060400160405280601e81526020017f536166654d6174683a207375627472616374696f6e206f766572666c6f770000815250600081848411156112a15760405162461bcd60e51b81526020600482018181528351602484015283519092839260449091019190850190808383600083156111aa578181015183820152602001611192565b505050900390565b60405180606001604052806000151581526020016000815260200160008152509056fe43616c6c6572206973206e6f7420676f7665726e6f72206f7220677561726469616e536166654d6174683a206d756c7469706c69636174696f6e206f766572666c6f7743616e6e6f742064656372656173652072617465206279206d6f7265207468616e20697420616c7265616479206973a26469706673582212207e487fa2bb910a3b56d2b4afa53b40bb4ee2819fe01af64edf769e4abba4571a64736f6c63430007050033",
  "linkReferences": {},
  "deployedLinkReferences": {}
}