{
  "_format": "hh-sol-artifact-1",
  "contractName": "SphynxBondDepository",
  "sourceName": "contracts/staking/BondDepository.sol",
  "abi": [
    {
      "inputs": [
        {
          "internalType": "address",
          "name": "_SPH",
          "type": "address"
        },
        {
          "internalType": "address",
          "name": "_treasury",
          "type": "address"
        },
        {
          "internalType": "address",
          "name": "_authority",
          "type": "address"
        }
      ],
      "stateMutability": "nonpayable",
      "type": "constructor"
    },
    {
      "anonymous": false,
      "inputs": [
        {
          "indexed": true,
          "internalType": "contract ISphynxAuthority",
          "name": "authority",
          "type": "address"
        }
      ],
      "name": "AuthorityUpdated",
      "type": "event"
    },
    {
      "anonymous": false,
      "inputs": [
        {
          "indexed": false,
          "internalType": "uint256",
          "name": "index",
          "type": "uint256"
        },
        {
          "indexed": false,
          "internalType": "uint256",
          "name": "amount",
          "type": "uint256"
        },
        {
          "indexed": false,
          "internalType": "uint256",
          "name": "payout",
          "type": "uint256"
        },
        {
          "indexed": false,
          "internalType": "uint256",
          "name": "expires",
          "type": "uint256"
        }
      ],
      "name": "CreateBond",
      "type": "event"
    },
    {
      "anonymous": false,
      "inputs": [
        {
          "indexed": false,
          "internalType": "uint256",
          "name": "index",
          "type": "uint256"
        },
        {
          "indexed": false,
          "internalType": "uint256",
          "name": "price",
          "type": "uint256"
        },
        {
          "indexed": false,
          "internalType": "uint256",
          "name": "internalPrice",
          "type": "uint256"
        },
        {
          "indexed": false,
          "internalType": "uint256",
          "name": "debtRatio",
          "type": "uint256"
        }
      ],
      "name": "afterBond",
      "type": "event"
    },
    {
      "anonymous": false,
      "inputs": [
        {
          "indexed": false,
          "internalType": "uint256",
          "name": "index",
          "type": "uint256"
        },
        {
          "indexed": false,
          "internalType": "uint256",
          "name": "price",
          "type": "uint256"
        },
        {
          "indexed": false,
          "internalType": "uint256",
          "name": "internalPrice",
          "type": "uint256"
        },
        {
          "indexed": false,
          "internalType": "uint256",
          "name": "debtRatio",
          "type": "uint256"
        }
      ],
      "name": "beforeBond",
      "type": "event"
    },
    {
      "inputs": [
        {
          "internalType": "uint256",
          "name": "",
          "type": "uint256"
        }
      ],
      "name": "IDs",
      "outputs": [
        {
          "internalType": "address",
          "name": "",
          "type": "address"
        }
      ],
      "stateMutability": "view",
      "type": "function"
    },
    {
      "inputs": [
        {
          "internalType": "address",
          "name": "_principal",
          "type": "address"
        },
        {
          "internalType": "address",
          "name": "_calculator",
          "type": "address"
        },
        {
          "internalType": "uint256",
          "name": "_capacity",
          "type": "uint256"
        },
        {
          "internalType": "bool",
          "name": "_capacityIsPayout",
          "type": "bool"
        }
      ],
      "name": "addBond",
      "outputs": [
        {
          "internalType": "uint256",
          "name": "id_",
          "type": "uint256"
        }
      ],
      "stateMutability": "nonpayable",
      "type": "function"
    },
    {
      "inputs": [],
      "name": "authority",
      "outputs": [
        {
          "internalType": "contract ISphynxAuthority",
          "name": "",
          "type": "address"
        }
      ],
      "stateMutability": "view",
      "type": "function"
    },
    {
      "inputs": [
        {
          "internalType": "uint256",
          "name": "_BID",
          "type": "uint256"
        }
      ],
      "name": "bondInfo",
      "outputs": [
        {
          "internalType": "address",
          "name": "principal_",
          "type": "address"
        },
        {
          "internalType": "address",
          "name": "calculator_",
          "type": "address"
        },
        {
          "internalType": "uint256",
          "name": "totalDebt_",
          "type": "uint256"
        },
        {
          "internalType": "uint256",
          "name": "lastBondCreatedAt_",
          "type": "uint256"
        }
      ],
      "stateMutability": "view",
      "type": "function"
    },
    {
      "inputs": [
        {
          "internalType": "uint256",
          "name": "_BID",
          "type": "uint256"
        }
      ],
      "name": "bondPrice",
      "outputs": [
        {
          "internalType": "uint256",
          "name": "price_",
          "type": "uint256"
        }
      ],
      "stateMutability": "view",
      "type": "function"
    },
    {
      "inputs": [
        {
          "internalType": "uint256",
          "name": "_BID",
          "type": "uint256"
        }
      ],
      "name": "bondPriceInUSD",
      "outputs": [
        {
          "internalType": "uint256",
          "name": "price_",
          "type": "uint256"
        }
      ],
      "stateMutability": "view",
      "type": "function"
    },
    {
      "inputs": [
        {
          "internalType": "uint256",
          "name": "_BID",
          "type": "uint256"
        }
      ],
      "name": "bondTerms",
      "outputs": [
        {
          "internalType": "uint256",
          "name": "controlVariable_",
          "type": "uint256"
        },
        {
          "internalType": "uint256",
          "name": "vestingTerm_",
          "type": "uint256"
        },
        {
          "internalType": "uint256",
          "name": "minimumPrice_",
          "type": "uint256"
        },
        {
          "internalType": "uint256",
          "name": "maxPayout_",
          "type": "uint256"
        },
        {
          "internalType": "uint256",
          "name": "maxDebt_",
          "type": "uint256"
        }
      ],
      "stateMutability": "view",
      "type": "function"
    },
    {
      "inputs": [
        {
          "internalType": "uint256",
          "name": "",
          "type": "uint256"
        }
      ],
      "name": "bonds",
      "outputs": [
        {
          "internalType": "contract IERC20",
          "name": "principal",
          "type": "address"
        },
        {
          "internalType": "contract IBondingCalculator",
          "name": "calculator",
          "type": "address"
        },
        {
          "components": [
            {
              "internalType": "uint256",
              "name": "controlVariable",
              "type": "uint256"
            },
            {
              "internalType": "bool",
              "name": "fixedTerm",
              "type": "bool"
            },
            {
              "internalType": "uint256",
              "name": "vestingTerm",
              "type": "uint256"
            },
            {
              "internalType": "uint256",
              "name": "expiration",
              "type": "uint256"
            },
            {
              "internalType": "uint256",
              "name": "conclusion",
              "type": "uint256"
            },
            {
              "internalType": "uint256",
              "name": "minimumPrice",
              "type": "uint256"
            },
            {
              "internalType": "uint256",
              "name": "maxPayout",
              "type": "uint256"
            },
            {
              "internalType": "uint256",
              "name": "maxDebt",
              "type": "uint256"
            }
          ],
          "internalType": "struct SphynxBondDepository.Terms",
          "name": "terms",
          "type": "tuple"
        },
        {
          "internalType": "bool",
          "name": "termsSet",
          "type": "bool"
        },
        {
          "internalType": "uint256",
          "name": "capacity",
          "type": "uint256"
        },
        {
          "internalType": "bool",
          "name": "capacityIsPayout",
          "type": "bool"
        },
        {
          "internalType": "uint256",
          "name": "totalDebt",
          "type": "uint256"
        },
        {
          "internalType": "uint256",
          "name": "lastDecay",
          "type": "uint256"
        }
      ],
      "stateMutability": "view",
      "type": "function"
    },
    {
      "inputs": [
        {
          "internalType": "uint256",
          "name": "_BID",
          "type": "uint256"
        }
      ],
      "name": "currentDebt",
      "outputs": [
        {
          "internalType": "uint256",
          "name": "",
          "type": "uint256"
        }
      ],
      "stateMutability": "view",
      "type": "function"
    },
    {
      "inputs": [
        {
          "internalType": "uint256",
          "name": "_BID",
          "type": "uint256"
        }
      ],
      "name": "debtDecay",
      "outputs": [
        {
          "internalType": "uint256",
          "name": "decay_",
          "type": "uint256"
        }
      ],
      "stateMutability": "view",
      "type": "function"
    },
    {
      "inputs": [
        {
          "internalType": "uint256",
          "name": "_BID",
          "type": "uint256"
        }
      ],
      "name": "debtRatio",
      "outputs": [
        {
          "internalType": "uint256",
          "name": "debtRatio_",
          "type": "uint256"
        }
      ],
      "stateMutability": "view",
      "type": "function"
    },
    {
      "inputs": [
        {
          "internalType": "uint256",
          "name": "_amount",
          "type": "uint256"
        },
        {
          "internalType": "uint256",
          "name": "_maxPrice",
          "type": "uint256"
        },
        {
          "internalType": "address",
          "name": "_depositor",
          "type": "address"
        },
        {
          "internalType": "uint256",
          "name": "_BID",
          "type": "uint256"
        },
        {
          "internalType": "address",
          "name": "_feo",
          "type": "address"
        }
      ],
      "name": "deposit",
      "outputs": [
        {
          "internalType": "uint256",
          "name": "",
          "type": "uint256"
        },
        {
          "internalType": "uint256",
          "name": "",
          "type": "uint256"
        }
      ],
      "stateMutability": "nonpayable",
      "type": "function"
    },
    {
      "inputs": [
        {
          "internalType": "uint256",
          "name": "_id",
          "type": "uint256"
        }
      ],
      "name": "deprecateBond",
      "outputs": [],
      "stateMutability": "nonpayable",
      "type": "function"
    },
    {
      "inputs": [
        {
          "internalType": "uint256",
          "name": "_BID",
          "type": "uint256"
        }
      ],
      "name": "maxPayout",
      "outputs": [
        {
          "internalType": "uint256",
          "name": "",
          "type": "uint256"
        }
      ],
      "stateMutability": "view",
      "type": "function"
    },
    {
      "inputs": [
        {
          "internalType": "uint256",
          "name": "_value",
          "type": "uint256"
        },
        {
          "internalType": "uint256",
          "name": "_BID",
          "type": "uint256"
        }
      ],
      "name": "payoutFor",
      "outputs": [
        {
          "internalType": "uint256",
          "name": "",
          "type": "uint256"
        }
      ],
      "stateMutability": "view",
      "type": "function"
    },
    {
      "inputs": [
        {
          "internalType": "uint256",
          "name": "_amount",
          "type": "uint256"
        },
        {
          "internalType": "uint256",
          "name": "_BID",
          "type": "uint256"
        }
      ],
      "name": "payoutForAmount",
      "outputs": [
        {
          "internalType": "uint256",
          "name": "",
          "type": "uint256"
        }
      ],
      "stateMutability": "view",
      "type": "function"
    },
    {
      "inputs": [
        {
          "internalType": "contract ISphynxAuthority",
          "name": "_newAuthority",
          "type": "address"
        }
      ],
      "name": "setAuthority",
      "outputs": [],
      "stateMutability": "nonpayable",
      "type": "function"
    },
    {
      "inputs": [
        {
          "internalType": "address",
          "name": "_teller",
          "type": "address"
        }
      ],
      "name": "setTeller",
      "outputs": [],
      "stateMutability": "nonpayable",
      "type": "function"
    },
    {
      "inputs": [
        {
          "internalType": "uint256",
          "name": "_id",
          "type": "uint256"
        },
        {
          "internalType": "uint256",
          "name": "_controlVariable",
          "type": "uint256"
        },
        {
          "internalType": "bool",
          "name": "_fixedTerm",
          "type": "bool"
        },
        {
          "internalType": "uint256",
          "name": "_vestingTerm",
          "type": "uint256"
        },
        {
          "internalType": "uint256",
          "name": "_expiration",
          "type": "uint256"
        },
        {
          "internalType": "uint256",
          "name": "_conclusion",
          "type": "uint256"
        },
        {
          "internalType": "uint256",
          "name": "_minimumPrice",
          "type": "uint256"
        },
        {
          "internalType": "uint256",
          "name": "_maxPayout",
          "type": "uint256"
        },
        {
          "internalType": "uint256",
          "name": "_maxDebt",
          "type": "uint256"
        },
        {
          "internalType": "uint256",
          "name": "_initialDebt",
          "type": "uint256"
        }
      ],
      "name": "setTerms",
      "outputs": [],
      "stateMutability": "nonpayable",
      "type": "function"
    },
    {
      "inputs": [
        {
          "internalType": "uint256",
          "name": "_BID",
          "type": "uint256"
        }
      ],
      "name": "standardizedDebtRatio",
      "outputs": [
        {
          "internalType": "uint256",
          "name": "",
          "type": "uint256"
        }
      ],
      "stateMutability": "view",
      "type": "function"
    },
    {
      "inputs": [],
      "name": "teller",
      "outputs": [
        {
          "internalType": "contract ITeller",
          "name": "",
          "type": "address"
        }
      ],
      "stateMutability": "view",
      "type": "function"
    }
  ],
  "bytecode": "0x610100604052600c60c08190526b15539055551213d49256915160a21b60e0908152620000309160009190620000fe565b503480156200003e57600080fd5b5060405162002bbf38038062002bbf8339810160408190526200006191620001c7565b600180546001600160a01b0319166001600160a01b0383169081179091556040518291907f2f658b440c35314f52658ea8a740e05b284cdc84dc9ae01e891f21b8933e7cad90600090a2506001600160a01b038316620000c057600080fd5b6001600160601b0319606084901b1660a0526001600160a01b038216620000e657600080fd5b5060601b6001600160601b0319166080525062000210565b828054600181600116156101000203166002900490600052602060002090601f01602090048101928262000136576000855562000181565b82601f106200015157805160ff191683800117855562000181565b8280016001018555821562000181579182015b828111156200018157825182559160200191906001019062000164565b506200018f92915062000193565b5090565b5b808211156200018f576000815560010162000194565b80516001600160a01b0381168114620001c257600080fd5b919050565b600080600060608486031215620001dc578283fd5b620001e784620001aa565b9250620001f760208501620001aa565b91506200020760408501620001aa565b90509250925092565b60805160601c60a05160601c612976620002496000398061108d5280611aef525080610a3d5280610b8c528061147352506129766000f3fe608060405234801561001057600080fd5b50600436106101375760003560e01c80636a6c575d116100b8578063aab114641161007c578063aab11464146102a5578063abbf4b17146102c9578063bcb29667146102dc578063bf7e214f146102ef578063effc99cd146102f7578063f1b7dc781461030a57610137565b80636a6c575d146102465780637a9e5e4b14610259578063805b5bc21461026c578063856519b51461027f578063a817712a1461029257610137565b806333ff7722116100ff57806333ff7722146101cf57806357e333ba146101e457806357edab4e146101f75780635f1c17c01461020c5780636551df2c1461023357610137565b80630170bbd91461013c57806310fc617214610165578063172c44ec14610188578063187dcb851461019b57806319a64215146101bc575b600080fd5b61014f61014a36600461248d565b61031d565b60405161015c919061288c565b60405180910390f35b6101786101733660046124dd565b610678565b60405161015c9493929190612633565b61014f6101963660046124dd565b610784565b6101ae6101a936600461252e565b6107fb565b60405161015c929190612895565b61014f6101ca3660046124dd565b610cf6565b6101e26101dd366004612471565b610f2e565b005b61014f6101f23660046124dd565b611065565b6101ff611122565b60405161015c919061261f565b61021f61021a3660046124dd565b611131565b60405161015c9897969594939291906126ad565b6101e26102413660046124dd565b6111e1565b61014f61025436600461250d565b6112e1565b6101e2610267366004612471565b61130f565b61014f61027a36600461250d565b611445565b61014f61028d3660046124dd565b61150a565b6101e26102a0366004612583565b6116b8565b6102b86102b33660046124dd565b611889565b60405161015c9594939291906128be565b61014f6102d73660046124dd565b61191f565b61014f6102ea3660046124dd565b611a65565b6101ff611a8b565b6101ff6103053660046124dd565b611a9a565b61014f6103183660046124dd565b611ac4565b60015460408051630229549960e51b815290516000926001600160a01b03169163452a9320916004808301926020929190829003018186803b15801561036257600080fd5b505afa158015610376573d6000803e3d6000fd5b505050506040513d602081101561038c57600080fd5b50516000906001600160a01b031633146104395760405162461bcd60e51b815260206004820190815282546002600019610100600184161502019091160460248301819052909182916044909101908490801561042a5780601f106103ff5761010080835404028352916020019161042a565b820191906000526020600020905b81548152906001019060200180831161040d57829003601f168201915b50509250505060405180910390fd5b506104426123bb565b60405180610100016040528060008152602001600015158152602001600081526020016000815260200160008152602001600081526020016000815260200160008152509050604051806101000160405280876001600160a01b03168152602001866001600160a01b031681526020018281526020016000151581526020018581526020018415158152602001600081526020014381525060026000600380549050815260200190815260200160002060008201518160000160006101000a8154816001600160a01b0302191690836001600160a01b0316021790555060208201518160010160006101000a8154816001600160a01b0302191690836001600160a01b031602179055506040820151816002016000820151816000015560208201518160010160006101000a81548160ff02191690831515021790555060408201518160020155606082015181600301556080820151816004015560a0820151816005015560c0820151816006015560e082015181600701555050606082015181600a0160006101000a81548160ff021916908315150217905550608082015181600b015560a082015181600c0160006101000a81548160ff02191690831515021790555060c082015181600d015560e082015181600e015590505060038054905091506003869080600181540180825580915050600190039060005260206000200160009091909190916101000a8154816001600160a01b0302191690836001600160a01b0316021790555050949350505050565b600080600080610686612402565b50505060009283525050600260208181526040928390208351610100808201865282546001600160a01b03908116835260018401541682850190815286519182018752948301548152600383015460ff90811615159482019490945260048301548187015260058301546060808301919091526006840154608080840191909152600785015460a080850191909152600886015460c080860191909152600987015460e08087019190915299860194909452600a8601548716151592850192909252600b85015490840152600c840154909416151593820193909352600d820154928101839052600e90910154938101849052519151919391929091565b60006107c6629896806107c0633b9aca006107ba6107a187611ac4565b6000888152600260208190526040909120015490611b7e565b90611bd7565b90611c31565b6000838152600260205260409020600701549091508110156107f657506000818152600260205260409020600701545b919050565b6000806001600160a01b03851661082d5760405162461bcd60e51b815260040161082490612757565b60405180910390fd5b610835612402565b5060008481526002602081815260408084208151610100808201845282546001600160a01b0390811683526001840154168286015283519081018452828601548152600383015460ff90811615158287015260048401548286015260058401546060808401919091526006850154608080850191909152600786015460a080860191909152600887015460c080870191909152600988015460e08088019190915298870195909552600a870154841680151593870193909352600b87015491860191909152600c860154909216151591840191909152600d84015491830191909152600e909201549281019290925293889052919052906109485760405162461bcd60e51b8152600401610824906127ab565b806040015160800151431061096f5760405162461bcd60e51b8152600401610824906127d4565b7f8f0783a6c1cb2d85a903a2db160118a565dc172b5e4da3d75733b7b5995a0fa18561099a87610cf6565b6109a388610784565b6109ac89611ac4565b6040516109bc94939291906128a3565b60405180910390a16109cd85611c73565b806040015160e001518160c0015111156109f95760405162461bcd60e51b815260040161082490612780565b610a0285611cb7565b871015610a215760405162461bcd60e51b815260040161082490612821565b805160405163f182178360e01b81526000916001600160a01b037f0000000000000000000000000000000000000000000000000000000000000000169163f182178391610a72918d90600401612694565b60206040518083038186803b158015610a8a57600080fd5b505afa158015610a9e573d6000803e3d6000fd5b505050506040513d601f19601f82011682018060405250810190610ac291906124f5565b90506000610ad082886112e1565b90508260a0015115610b19578083608001511015610b005760405162461bcd60e51b8152600401610824906127d4565b6080830151610b0f9082611e1f565b6080840152610b52565b8983608001511015610b3d5760405162461bcd60e51b8152600401610824906127d4565b6080830151610b4c908b611e1f565b60808401525b610b5b87611065565b811115610b7a5760405162461bcd60e51b815260040161082490612864565b8251610bb1906001600160a01b0316337f00000000000000000000000000000000000000000000000000000000000000008d611e61565b60c0830151610bc09083611bd7565b600088815260026020526040808220600d01929092558482015190910151610be89043611bd7565b9050836040015160200151610c0257506040830151606001515b6000600460009054906101000a90046001600160a01b03166001600160a01b031663f7e4ee108b87600001518f87878e6040518763ffffffff1660e01b8152600401610c539695949392919061265c565b602060405180830381600087803b158015610c6d57600080fd5b505af1158015610c81573d6000803e3d6000fd5b505050506040513d601f19601f82011682018060405250810190610ca591906124f5565b90507f6671c52657539dfe32e25a5646170ce70ec6adfebf197a90845ab3ec1e42569c898d8585604051610cdc94939291906128a3565b60405180910390a1919b919a509098505050505050505050565b6000610d00612402565b506000828152600260208181526040928390208351610100808201865282546001600160a01b0390811683526001840154811683860190815287519283018852958401548252600384015460ff90811615159583019590955260048401548288015260058401546060808401919091526006850154608080850191909152600786015460a080860191909152600887015460c080870191909152600988015460e0808801919091529a870195909552600a8701548816151592860192909252600b86015490850152600c850154909516151594830194909452600d83015490820152600e909101549381019390935290511615610e9957610e9260646107c083602001516001600160a01b03166332da80a385600001516040518263ffffffff1660e01b8152600401610e33919061261f565b60206040518083038186803b158015610e4b57600080fd5b505afa158015610e5f573d6000803e3d6000fd5b505050506040513d601f19601f82011682018060405250810190610e8391906124f5565b610e8c87610784565b90611b7e565b9150610f28565b610f2560646107c083600001516001600160a01b031663313ce5676040518163ffffffff1660e01b815260040160206040518083038186803b158015610ede57600080fd5b505afa158015610ef2573d6000803e3d6000fd5b505050506040513d601f19601f82011682018060405250810190610f1691906125f8565b60ff16600a0a610e8c87610784565b91505b50919050565b600160009054906101000a90046001600160a01b03166001600160a01b0316630c340a246040518163ffffffff1660e01b815260040160206040518083038186803b158015610f7c57600080fd5b505afa158015610f90573d6000803e3d6000fd5b505050506040513d6020811015610fa657600080fd5b50516000906001600160a01b031633146110195760405162461bcd60e51b815260206004820190815282546002600019610100600184161502019091160460248301819052909182916044909101908490801561042a5780601f106103ff5761010080835404028352916020019161042a565b506004546001600160a01b03161561103057600080fd5b6001600160a01b03811661104357600080fd5b600480546001600160a01b0319166001600160a01b0392909216919091179055565b600061111c620186a06107c060026000868152602001908152602001600020600201600601547f00000000000000000000000000000000000000000000000000000000000000006001600160a01b03166318160ddd6040518163ffffffff1660e01b815260040160206040518083038186803b1580156110e457600080fd5b505afa1580156110f8573d6000803e3d6000fd5b505050506040513d601f19601f82011682018060405250810190610e8c91906124f5565b92915050565b6004546001600160a01b031681565b60026020818152600092835260409283902080546001820154855161010081018752948301548552600383015460ff9081161515948601949094526004830154958501959095526005820154606085015260068201546080850152600782015460a0850152600882015460c0850152600982015460e0850152600a820154600b830154600c840154600d850154600e909501546001600160a01b0394851698909416969592831694919392169188565b600160009054906101000a90046001600160a01b03166001600160a01b031663452a93206040518163ffffffff1660e01b815260040160206040518083038186803b15801561122f57600080fd5b505afa158015611243573d6000803e3d6000fd5b505050506040513d602081101561125957600080fd5b50516000906001600160a01b031633146112cc5760405162461bcd60e51b815260206004820190815282546002600019610100600184161502019091160460248301819052909182916044909101908490801561042a5780601f106103ff5761010080835404028352916020019161042a565b506000908152600260205260408120600b0155565b6000611308662386f26fc100006107c0611303866112fe87610784565b611fcb565b612142565b9392505050565b600160009054906101000a90046001600160a01b03166001600160a01b0316630c340a246040518163ffffffff1660e01b815260040160206040518083038186803b15801561135d57600080fd5b505afa158015611371573d6000803e3d6000fd5b505050506040513d602081101561138757600080fd5b50516000906001600160a01b031633146113fa5760405162461bcd60e51b815260206004820190815282546002600019610100600184161502019091160460248301819052909182916044909101908490801561042a5780601f106103ff5761010080835404028352916020019161042a565b50600180546001600160a01b0319166001600160a01b0383169081179091556040517f2f658b440c35314f52658ea8a740e05b284cdc84dc9ae01e891f21b8933e7cad90600090a250565b60008181526002602052604080822054905163f182178360e01b81526001600160a01b0391821691611502917f00000000000000000000000000000000000000000000000000000000000000009091169063f1821783906114ac9085908990600401612694565b60206040518083038186803b1580156114c457600080fd5b505afa1580156114d8573d6000803e3d6000fd5b505050506040513d601f19601f820116820180604052508101906114fc91906124f5565b846112e1565b949350505050565b6000611514612402565b506000828152600260208181526040928390208351610100808201865282546001600160a01b0390811683526001840154811683860190815287519283018852958401548252600384015460ff90811615159583019590955260048401548288015260058401546060808401919091526006850154608080850191909152600786015460a080860191909152600887015460c080870191909152600988015460e0808801919091529a870195909552600a8701548816151592860192909252600b86015490850152600c850154909516151594830194909452600d83015490820152600e9091015493810193909352905116156116af576116a7670de0b6b3a76400006107c083602001516001600160a01b03166332da80a385600001516040518263ffffffff1660e01b815260040161164e919061261f565b60206040518083038186803b15801561166657600080fd5b505afa15801561167a573d6000803e3d6000fd5b505050506040513d601f19601f8201168201806040525081019061169e91906124f5565b610e8c87611ac4565b9150506107f6565b6116a783611ac4565b600160009054906101000a90046001600160a01b03166001600160a01b031663452a93206040518163ffffffff1660e01b815260040160206040518083038186803b15801561170657600080fd5b505afa15801561171a573d6000803e3d6000fd5b505050506040513d602081101561173057600080fd5b50516000906001600160a01b031633146117a35760405162461bcd60e51b815260206004820190815282546002600019610100600184161502019091160460248301819052909182916044909101908490801561042a5780601f106103ff5761010080835404028352916020019161042a565b5060008a8152600260205260409020600a015460ff16156117d65760405162461bcd60e51b8152600401610824906127fc565b6117de6123bb565b506040805161010081018252998a529715156020808b019182528a8a0198895260608b0197885260808b0196875260a08b0195865260c08b0194855260e08b0193845260009b8c5260029081905298909a20985197890197909755975160038801805491151560ff1992831617905594516004880155925160058701559051600686015551600785015551600884015592516009830155600d820155600a0180549091166001179055565b60008060008060006118996123bb565b505050600093845250506002602081815260409384902084516101008101865292810154808452600382015460ff1615159284019290925260048101549483018590526005810154606084015260068101546080840152600781015460a08401819052600882015460c0850181905260099092015460e090940184905291959193509190565b6000611929612402565b5060008281526002602081815260408084208151610100808201845282546001600160a01b0390811683526001840154168286015283519081018452948201548552600382015460ff90811615159486019490945260048201548584015260058201546060808701919091526006830154608080880191909152600784015460a080890191909152600885015460c0808a0191909152600986015460e0808b019190915296850198909852600a8501548716151592840192909252600b84015490830152600c830154909416151593810193909352600d81015493830193909352600e909201549181018290529190611a23904390611e1f565b9050611a488260400151604001516107c0838560c00151611b7e90919063ffffffff16565b92508160c00151831115611a5e578160c0015192505b5050919050565b600061111c611a738361191f565b6000848152600260205260409020600d015490611e1f565b6001546001600160a01b031681565b60038181548110611aaa57600080fd5b6000918252602090912001546001600160a01b0316905081565b600061111c670de0b6b3a76400006107c0611303611aed670de0b6b3a7640000610e8c88611a65565b7f00000000000000000000000000000000000000000000000000000000000000006001600160a01b03166318160ddd6040518163ffffffff1660e01b815260040160206040518083038186803b158015611b4657600080fd5b505afa158015611b5a573d6000803e3d6000fd5b505050506040513d601f19601f820116820180604052508101906112fe91906124f5565b600082611b8d5750600061111c565b82820282848281611b9a57fe5b04146113085760405162461bcd60e51b81526004018080602001828103825260218152602001806129206021913960400191505060405180910390fd5b600082820183811015611308576040805162461bcd60e51b815260206004820152601b60248201527f536166654d6174683a206164646974696f6e206f766572666c6f770000000000604482015290519081900360640190fd5b600061130883836040518060400160405280601a81526020017f536166654d6174683a206469766973696f6e206279207a65726f00000000000081525061215a565b611c97611c7f8261191f565b6000838152600260205260409020600d015490611e1f565b600091825260026020526040909120600d81019190915543600e90910155565b6000611cc1612402565b506000828152600260208181526040928390208351610100808201865282546001600160a01b0390811683526001840154168285015285519081018652938201548452600382015460ff90811615159385019390935260048201548486015260058201546060808601919091526006830154608080870191909152600784015460a080880191909152600885015460c080890191909152600986015460e0808a019190915298850197909752600a8501548616151592840192909252600b84015490830152600c830154909316151592810192909252600d81015492820192909252600e9091015491810191909152611dd7629896806107c0633b9aca006107ba611dcb88611ac4565b60408701515190611b7e565b9150806040015160a00151821015611df957806040015160a001519150610f28565b604081015160a0015115610f285760008381526002602052604081206007015550919050565b600061130883836040518060400160405280601e81526020017f536166654d6174683a207375627472616374696f6e206f766572666c6f77000081525061220b565b604080516001600160a01b0385811660248301528481166044830152606480830185905283518084039091018152608490920183526020820180516001600160e01b03166323b872dd60e01b17815292518251600094606094938a169392918291908083835b60208310611ee65780518252601f199092019160209182019101611ec7565b6001836020036101000a0380198251168184511680821785525050505050509050019150506000604051808303816000865af19150503d8060008114611f48576040519150601f19603f3d011682016040523d82523d6000602084013e611f4d565b606091505b5091509150818015611f7b575080511580611f7b5750808060200190516020811015611f7857600080fd5b50515b611fc3576040805162461bcd60e51b81526020600482015260146024820152731514905394d1915497d19493d357d1905253115160621b604482015290519081900360640190fd5b505050505050565b611fd361244f565b600082116120125760405162461bcd60e51b81526004018080602001828103825260268152602001806128fa6026913960400191505060405180910390fd5b8261202c575060408051602081019091526000815261111c565b71ffffffffffffffffffffffffffffffffffff83116120d357600082607085901b8161205457fe5b0490506001600160e01b038111156120b3576040805162461bcd60e51b815260206004820152601e60248201527f4669786564506f696e743a3a6672616374696f6e3a206f766572666c6f770000604482015290519081900360640190fd5b6040518060200160405280826001600160e01b031681525091505061111c565b60006120e484600160701b85612265565b90506001600160e01b038111156120b3576040805162461bcd60e51b815260206004820152601e60248201527f4669786564506f696e743a3a6672616374696f6e3a206f766572666c6f770000604482015290519081900360640190fd5b516612725dd1d243ab6001600160e01b039091160490565b600081836121e65760405162461bcd60e51b81526004018080602001828103825283818151815260200191508051906020019080838360005b838110156121ab578181015183820152602001612193565b50505050905090810190601f1680156121d85780820380516001836020036101000a031916815260200191505b509250505060405180910390fd5b5060008385816121f257fe5b0490508385816121fe57fe5b0681850201851461150257fe5b6000818484111561225d5760405162461bcd60e51b81526020600482018181528351602484015283519092839260449091019190850190808383600083156121ab578181015183820152602001612193565b505050900390565b6000806000612274868661231e565b915091506000848061228257fe5b868809905082811115612296576001820391505b9182900391816122b4578483816122a957fe5b049350505050611308565b848210612308576040805162461bcd60e51b815260206004820152601a60248201527f46756c6c4d6174683a2046554c4c4449565f4f564552464c4f57000000000000604482015290519081900360640190fd5b61231383838761234b565b979650505050505050565b6000808060001984860990508385029250828103915082811015612343576001820391505b509250929050565b6000818103821680838161235b57fe5b04925080858161236757fe5b04945080816000038161237657fe5b60028581038087028203028087028203028087028203028087028203028087028203028087028203029586029003909402930460010193909302939093010292915050565b604051806101000160405280600081526020016000151581526020016000815260200160008152602001600081526020016000815260200160008152602001600081525090565b6040805161010081018252600080825260208201529081016124226123bb565b81526020016000151581526020016000815260200160001515815260200160008152602001600081525090565b60408051602081019091526000815290565b803580151581146107f657600080fd5b600060208284031215612482578081fd5b8135611308816128e1565b600080600080608085870312156124a2578283fd5b84356124ad816128e1565b935060208501356124bd816128e1565b9250604085013591506124d260608601612461565b905092959194509250565b6000602082840312156124ee578081fd5b5035919050565b600060208284031215612506578081fd5b5051919050565b6000806040838503121561251f578182fd5b50508035926020909101359150565b600080600080600060a08688031215612545578081fd5b8535945060208601359350604086013561255e816128e1565b9250606086013591506080860135612575816128e1565b809150509295509295909350565b6000806000806000806000806000806101408b8d0312156125a2578485fd5b8a35995060208b013598506125b960408c01612461565b999c989b5098996060810135995060808101359860a0820135985060c0820135975060e082013596506101008201359550610120909101359350915050565b600060208284031215612609578081fd5b815160ff81168114611308578182fd5b15159052565b6001600160a01b0391909116815260200190565b6001600160a01b0394851681529290931660208301526040820152606081019190915260800190565b6001600160a01b039687168152948616602086015260408501939093526060840191909152608083015290911660a082015260c00190565b6001600160a01b03929092168252602082015260400190565b60006101e08201905060018060a01b03808b168352808a166020840152508751604083015260208801511515606083015260408801516080830152606088015160a0830152608088015160c083015260a088015160e083015260c088015161010083015260e088015161012083015261272a610140830188612619565b8561016083015261273f610180830186612619565b6101a08201939093526101c001529695505050505050565b6020808252600f908201526e496e76616c6964206164647265737360881b604082015260600190565b60208082526011908201527013585e081919589d08195e18d959591959607a1b604082015260600190565b6020808252600f908201526e139bdd081a5b9a5d1a585b1a5e9959608a1b604082015260600190565b6020808252600e908201526d109bdb990818dbdb98db1d59195960921b604082015260600190565b6020808252600b908201526a105b1c9958591e481cd95d60aa1b604082015260600190565b60208082526023908201527f536c697070616765206c696d69743a206d6f7265207468616e206d617820707260408201526269636560e81b606082015260800190565b6020808252600e908201526d426f6e6420746f6f206c6172676560901b604082015260600190565b90815260200190565b918252602082015260400190565b93845260208401929092526040830152606082015260800190565b948552602085019390935260408401919091526060830152608082015260a00190565b6001600160a01b03811681146128f657600080fd5b5056fe4669786564506f696e743a3a6672616374696f6e3a206469766973696f6e206279207a65726f536166654d6174683a206d756c7469706c69636174696f6e206f766572666c6f77a26469706673582212204deaad8649cdcf794e0244be97a4498787347d89ec81039674cb16a63f0c388c64736f6c63430007050033",
  "linkReferences": {},
  "deployedLinkReferences": {}
}