{
  "_format": "hh-sol-artifact-1",
  "contractName": "SphynxTreasury",
  "sourceName": "contracts/staking/Treasury.sol",
  "abi": [
    {
      "inputs": [
        {
          "internalType": "address",
          "name": "_ohm",
          "type": "address"
        },
        {
          "internalType": "uint256",
          "name": "_timelock",
          "type": "uint256"
        },
        {
          "internalType": "address",
          "name": "_authority",
          "type": "address"
        }
      ],
      "stateMutability": "nonpayable",
      "type": "constructor"
    },
    {
      "anonymous": false,
      "inputs": [
        {
          "indexed": true,
          "internalType": "contract ISphynxAuthority",
          "name": "authority",
          "type": "address"
        }
      ],
      "name": "AuthorityUpdated",
      "type": "event"
    },
    {
      "anonymous": false,
      "inputs": [
        {
          "indexed": true,
          "internalType": "address",
          "name": "debtor",
          "type": "address"
        },
        {
          "indexed": true,
          "internalType": "address",
          "name": "token",
          "type": "address"
        },
        {
          "indexed": false,
          "internalType": "uint256",
          "name": "amount",
          "type": "uint256"
        },
        {
          "indexed": false,
          "internalType": "uint256",
          "name": "value",
          "type": "uint256"
        }
      ],
      "name": "CreateDebt",
      "type": "event"
    },
    {
      "anonymous": false,
      "inputs": [
        {
          "indexed": true,
          "internalType": "address",
          "name": "token",
          "type": "address"
        },
        {
          "indexed": false,
          "internalType": "uint256",
          "name": "amount",
          "type": "uint256"
        },
        {
          "indexed": false,
          "internalType": "uint256",
          "name": "value",
          "type": "uint256"
        }
      ],
      "name": "Deposit",
      "type": "event"
    },
    {
      "anonymous": false,
      "inputs": [
        {
          "indexed": true,
          "internalType": "address",
          "name": "token",
          "type": "address"
        },
        {
          "indexed": false,
          "internalType": "uint256",
          "name": "amount",
          "type": "uint256"
        }
      ],
      "name": "Managed",
      "type": "event"
    },
    {
      "anonymous": false,
      "inputs": [
        {
          "indexed": true,
          "internalType": "address",
          "name": "caller",
          "type": "address"
        },
        {
          "indexed": true,
          "internalType": "address",
          "name": "recipient",
          "type": "address"
        },
        {
          "indexed": false,
          "internalType": "uint256",
          "name": "amount",
          "type": "uint256"
        }
      ],
      "name": "Minted",
      "type": "event"
    },
    {
      "anonymous": false,
      "inputs": [
        {
          "indexed": true,
          "internalType": "enum SphynxTreasury.STATUS",
          "name": "status",
          "type": "uint8"
        },
        {
          "indexed": false,
          "internalType": "address",
          "name": "queued",
          "type": "address"
        }
      ],
      "name": "PermissionQueued",
      "type": "event"
    },
    {
      "anonymous": false,
      "inputs": [
        {
          "indexed": false,
          "internalType": "address",
          "name": "addr",
          "type": "address"
        },
        {
          "indexed": true,
          "internalType": "enum SphynxTreasury.STATUS",
          "name": "status",
          "type": "uint8"
        },
        {
          "indexed": false,
          "internalType": "bool",
          "name": "result",
          "type": "bool"
        }
      ],
      "name": "Permissioned",
      "type": "event"
    },
    {
      "anonymous": false,
      "inputs": [
        {
          "indexed": true,
          "internalType": "address",
          "name": "debtor",
          "type": "address"
        },
        {
          "indexed": true,
          "internalType": "address",
          "name": "token",
          "type": "address"
        },
        {
          "indexed": false,
          "internalType": "uint256",
          "name": "amount",
          "type": "uint256"
        },
        {
          "indexed": false,
          "internalType": "uint256",
          "name": "value",
          "type": "uint256"
        }
      ],
      "name": "RepayDebt",
      "type": "event"
    },
    {
      "anonymous": false,
      "inputs": [
        {
          "indexed": true,
          "internalType": "uint256",
          "name": "totalReserves",
          "type": "uint256"
        }
      ],
      "name": "ReservesAudited",
      "type": "event"
    },
    {
      "anonymous": false,
      "inputs": [
        {
          "indexed": true,
          "internalType": "address",
          "name": "token",
          "type": "address"
        },
        {
          "indexed": false,
          "internalType": "uint256",
          "name": "amount",
          "type": "uint256"
        },
        {
          "indexed": false,
          "internalType": "uint256",
          "name": "value",
          "type": "uint256"
        }
      ],
      "name": "Withdrawal",
      "type": "event"
    },
    {
      "inputs": [],
      "name": "SPH",
      "outputs": [
        {
          "internalType": "contract ISPH",
          "name": "",
          "type": "address"
        }
      ],
      "stateMutability": "view",
      "type": "function"
    },
    {
      "inputs": [],
      "name": "auditReserves",
      "outputs": [],
      "stateMutability": "nonpayable",
      "type": "function"
    },
    {
      "inputs": [],
      "name": "authority",
      "outputs": [
        {
          "internalType": "contract ISphynxAuthority",
          "name": "",
          "type": "address"
        }
      ],
      "stateMutability": "view",
      "type": "function"
    },
    {
      "inputs": [],
      "name": "blocksNeededForQueue",
      "outputs": [
        {
          "internalType": "uint256",
          "name": "",
          "type": "uint256"
        }
      ],
      "stateMutability": "view",
      "type": "function"
    },
    {
      "inputs": [
        {
          "internalType": "address",
          "name": "",
          "type": "address"
        }
      ],
      "name": "bondCalculator",
      "outputs": [
        {
          "internalType": "address",
          "name": "",
          "type": "address"
        }
      ],
      "stateMutability": "view",
      "type": "function"
    },
    {
      "inputs": [
        {
          "internalType": "address",
          "name": "",
          "type": "address"
        }
      ],
      "name": "debtorBalance",
      "outputs": [
        {
          "internalType": "uint256",
          "name": "",
          "type": "uint256"
        }
      ],
      "stateMutability": "view",
      "type": "function"
    },
    {
      "inputs": [
        {
          "internalType": "uint256",
          "name": "_amount",
          "type": "uint256"
        },
        {
          "internalType": "address",
          "name": "_token",
          "type": "address"
        },
        {
          "internalType": "uint256",
          "name": "_profit",
          "type": "uint256"
        }
      ],
      "name": "deposit",
      "outputs": [
        {
          "internalType": "uint256",
          "name": "send_",
          "type": "uint256"
        }
      ],
      "stateMutability": "nonpayable",
      "type": "function"
    },
    {
      "inputs": [
        {
          "internalType": "enum SphynxTreasury.STATUS",
          "name": "_status",
          "type": "uint8"
        },
        {
          "internalType": "address",
          "name": "_toDisable",
          "type": "address"
        }
      ],
      "name": "disable",
      "outputs": [],
      "stateMutability": "nonpayable",
      "type": "function"
    },
    {
      "inputs": [
        {
          "internalType": "enum SphynxTreasury.STATUS",
          "name": "_status",
          "type": "uint8"
        },
        {
          "internalType": "address",
          "name": "_address",
          "type": "address"
        },
        {
          "internalType": "address",
          "name": "_calculator",
          "type": "address"
        }
      ],
      "name": "enable",
      "outputs": [],
      "stateMutability": "nonpayable",
      "type": "function"
    },
    {
      "inputs": [],
      "name": "enableOnChainGovernance",
      "outputs": [],
      "stateMutability": "nonpayable",
      "type": "function"
    },
    {
      "inputs": [],
      "name": "excessReserves",
      "outputs": [
        {
          "internalType": "uint256",
          "name": "",
          "type": "uint256"
        }
      ],
      "stateMutability": "view",
      "type": "function"
    },
    {
      "inputs": [
        {
          "internalType": "uint256",
          "name": "_index",
          "type": "uint256"
        }
      ],
      "name": "execute",
      "outputs": [],
      "stateMutability": "nonpayable",
      "type": "function"
    },
    {
      "inputs": [
        {
          "internalType": "uint256",
          "name": "_amount",
          "type": "uint256"
        },
        {
          "internalType": "address",
          "name": "_token",
          "type": "address"
        }
      ],
      "name": "incurDebt",
      "outputs": [],
      "stateMutability": "nonpayable",
      "type": "function"
    },
    {
      "inputs": [
        {
          "internalType": "address",
          "name": "_address",
          "type": "address"
        },
        {
          "internalType": "enum SphynxTreasury.STATUS",
          "name": "_status",
          "type": "uint8"
        }
      ],
      "name": "indexInRegistry",
      "outputs": [
        {
          "internalType": "bool",
          "name": "",
          "type": "bool"
        },
        {
          "internalType": "uint256",
          "name": "",
          "type": "uint256"
        }
      ],
      "stateMutability": "view",
      "type": "function"
    },
    {
      "inputs": [
        {
          "internalType": "address",
          "name": "_token",
          "type": "address"
        },
        {
          "internalType": "uint256",
          "name": "_amount",
          "type": "uint256"
        }
      ],
      "name": "manage",
      "outputs": [],
      "stateMutability": "nonpayable",
      "type": "function"
    },
    {
      "inputs": [
        {
          "internalType": "address",
          "name": "_recipient",
          "type": "address"
        },
        {
          "internalType": "uint256",
          "name": "_amount",
          "type": "uint256"
        }
      ],
      "name": "mint",
      "outputs": [],
      "stateMutability": "nonpayable",
      "type": "function"
    },
    {
      "inputs": [
        {
          "internalType": "uint256",
          "name": "_index",
          "type": "uint256"
        }
      ],
      "name": "nullify",
      "outputs": [],
      "stateMutability": "nonpayable",
      "type": "function"
    },
    {
      "inputs": [],
      "name": "onChainGovernanceTimelock",
      "outputs": [
        {
          "internalType": "uint256",
          "name": "",
          "type": "uint256"
        }
      ],
      "stateMutability": "view",
      "type": "function"
    },
    {
      "inputs": [],
      "name": "onChainGoverned",
      "outputs": [
        {
          "internalType": "bool",
          "name": "",
          "type": "bool"
        }
      ],
      "stateMutability": "view",
      "type": "function"
    },
    {
      "inputs": [
        {
          "internalType": "uint256",
          "name": "",
          "type": "uint256"
        }
      ],
      "name": "permissionQueue",
      "outputs": [
        {
          "internalType": "enum SphynxTreasury.STATUS",
          "name": "managing",
          "type": "uint8"
        },
        {
          "internalType": "address",
          "name": "toPermit",
          "type": "address"
        },
        {
          "internalType": "address",
          "name": "calculator",
          "type": "address"
        },
        {
          "internalType": "uint256",
          "name": "timelockEnd",
          "type": "uint256"
        },
        {
          "internalType": "bool",
          "name": "nullify",
          "type": "bool"
        },
        {
          "internalType": "bool",
          "name": "executed",
          "type": "bool"
        }
      ],
      "stateMutability": "view",
      "type": "function"
    },
    {
      "inputs": [
        {
          "internalType": "enum SphynxTreasury.STATUS",
          "name": "",
          "type": "uint8"
        },
        {
          "internalType": "address",
          "name": "",
          "type": "address"
        }
      ],
      "name": "permissions",
      "outputs": [
        {
          "internalType": "bool",
          "name": "",
          "type": "bool"
        }
      ],
      "stateMutability": "view",
      "type": "function"
    },
    {
      "inputs": [
        {
          "internalType": "enum SphynxTreasury.STATUS",
          "name": "_status",
          "type": "uint8"
        },
        {
          "internalType": "address",
          "name": "_address",
          "type": "address"
        },
        {
          "internalType": "address",
          "name": "_calculator",
          "type": "address"
        }
      ],
      "name": "queueTimelock",
      "outputs": [],
      "stateMutability": "nonpayable",
      "type": "function"
    },
    {
      "inputs": [
        {
          "internalType": "enum SphynxTreasury.STATUS",
          "name": "",
          "type": "uint8"
        },
        {
          "internalType": "uint256",
          "name": "",
          "type": "uint256"
        }
      ],
      "name": "registry",
      "outputs": [
        {
          "internalType": "address",
          "name": "",
          "type": "address"
        }
      ],
      "stateMutability": "view",
      "type": "function"
    },
    {
      "inputs": [
        {
          "internalType": "uint256",
          "name": "_amount",
          "type": "uint256"
        },
        {
          "internalType": "address",
          "name": "_token",
          "type": "address"
        }
      ],
      "name": "repayDebtWithReserve",
      "outputs": [],
      "stateMutability": "nonpayable",
      "type": "function"
    },
    {
      "inputs": [
        {
          "internalType": "uint256",
          "name": "_amount",
          "type": "uint256"
        }
      ],
      "name": "repayDebtWithSPH",
      "outputs": [],
      "stateMutability": "nonpayable",
      "type": "function"
    },
    {
      "inputs": [],
      "name": "sSPH",
      "outputs": [
        {
          "internalType": "contract IsSPH",
          "name": "",
          "type": "address"
        }
      ],
      "stateMutability": "view",
      "type": "function"
    },
    {
      "inputs": [
        {
          "internalType": "contract ISphynxAuthority",
          "name": "_newAuthority",
          "type": "address"
        }
      ],
      "name": "setAuthority",
      "outputs": [],
      "stateMutability": "nonpayable",
      "type": "function"
    },
    {
      "inputs": [
        {
          "internalType": "address",
          "name": "_token",
          "type": "address"
        },
        {
          "internalType": "uint256",
          "name": "_amount",
          "type": "uint256"
        }
      ],
      "name": "tokenValue",
      "outputs": [
        {
          "internalType": "uint256",
          "name": "value_",
          "type": "uint256"
        }
      ],
      "stateMutability": "view",
      "type": "function"
    },
    {
      "inputs": [],
      "name": "totalDebt",
      "outputs": [
        {
          "internalType": "uint256",
          "name": "",
          "type": "uint256"
        }
      ],
      "stateMutability": "view",
      "type": "function"
    },
    {
      "inputs": [],
      "name": "totalReserves",
      "outputs": [
        {
          "internalType": "uint256",
          "name": "",
          "type": "uint256"
        }
      ],
      "stateMutability": "view",
      "type": "function"
    },
    {
      "inputs": [
        {
          "internalType": "uint256",
          "name": "_amount",
          "type": "uint256"
        },
        {
          "internalType": "address",
          "name": "_token",
          "type": "address"
        }
      ],
      "name": "withdraw",
      "outputs": [],
      "stateMutability": "nonpayable",
      "type": "function"
    }
  ],
  "bytecode": "0x610100604052600c60c08190526b15539055551213d49256915160a21b60e09081526200003091600091906200012e565b503480156200003e57600080fd5b506040516200378a3803806200378a833981810160405260608110156200006457600080fd5b5080516020820151604092830151600180546001600160a01b0319166001600160a01b038316908117909155935192939192909182917f2f658b440c35314f52658ea8a740e05b284cdc84dc9ae01e891f21b8933e7cad90600090a2506001600160a01b03831662000111576040805162461bcd60e51b81526020600482015260116024820152700b4cae4de40c2c8c8e4cae6e67440a6a09607b1b604482015290519081900360640190fd5b5060609190911b6001600160601b03191660805260a052620001da565b828054600181600116156101000203166002900490600052602060002090601f016020900481019282620001665760008555620001b1565b82601f106200018157805160ff1916838001178555620001b1565b82800160010185558215620001b1579182015b82811115620001b157825182559160200191906001019062000194565b50620001bf929150620001c3565b5090565b5b80821115620001bf5760008155600101620001c4565b60805160601c60a0516135576200023360003980611006528061105e5280611e6f52806120ef5250806107265280610a7f52806116a05280611bbb5280611ff5528061273a5280612de35280612edc52506135576000f3fe608060405234801561001057600080fd5b50600436106101e45760003560e01c80638246fd321161010f578063bf7e214f116100a2578063f182178311610071578063f1821783146105cd578063fc7b9c18146105f9578063fe0d94c114610601578063feb624fb1461061e576101e4565b8063bf7e214f1461055a578063d07f390f14610562578063d796ffb81461056a578063e4e33ef814610596576101e4565b8063a4c78eeb116100de578063a4c78eeb14610510578063b39df88e14610518578063b62b4c0c14610520578063bc157ac114610528576101e4565b80638246fd32146104905780638f840ddd1461049857806393988b53146104a0578063a44b8287146104ea576101e4565b80632b7ce500116101875780635299183111610156578063529918311461041657806371a45c95146104455780637a9e5e4b146104625780637c47bbb914610488576101e4565b80632b7ce50014610328578063330dd3451461033057806340c10f1914610373578063503edcf01461039f576101e4565b80630c3513a8116101c35780630c3513a81461027b57806312422d23146102835780631af4da70146102af5780631d6d5f05146102f1576101e4565b8062f714ce146101e9578063094a8651146102175780630b0eee301461024f575b600080fd5b610215600480360360408110156101ff57600080fd5b50803590602001356001600160a01b031661063b565b005b61023d6004803603602081101561022d57600080fd5b50356001600160a01b0316610820565b60408051918252519081900360200190f35b6102156004803603604081101561026557600080fd5b506001600160a01b038135169060200135610832565b61023d610a72565b6102156004803603604081101561029957600080fd5b50803590602001356001600160a01b0316610b16565b6102d5600480360360208110156102c557600080fd5b50356001600160a01b0316610e52565b604080516001600160a01b039092168252519081900360200190f35b6102156004803603606081101561030757600080fd5b5060ff813516906001600160a01b0360208201358116916040013516610e6d565b6102156111de565b61035f6004803603604081101561034657600080fd5b50803560ff1690602001356001600160a01b03166115b8565b604080519115158252519081900360200190f35b6102156004803603604081101561038957600080fd5b506001600160a01b0381351690602001356115d8565b6103bc600480360360208110156103b557600080fd5b5035611771565b604051808760098111156103cc57fe5b8152602001866001600160a01b03168152602001856001600160a01b0316815260200184815260200183151581526020018215158152602001965050505050505060405180910390f35b6102156004803603604081101561042c57600080fd5b50803560ff1690602001356001600160a01b03166117c8565b6102156004803603602081101561045b57600080fd5b503561195a565b6102156004803603602081101561047857600080fd5b50356001600160a01b0316611a7a565b61035f611bb0565b6102d5611bb9565b61023d611bdd565b6104cf600480360360408110156104b657600080fd5b5080356001600160a01b0316906020013560ff16611be3565b60408051921515835260208301919091528051918290030190f35b6102d56004803603604081101561050057600080fd5b5060ff8135169060200135611ccb565b610215611d03565b61023d611e9b565b6102d5611ea1565b61023d6004803603606081101561053e57600080fd5b508035906001600160a01b036020820135169060400135611eb0565b6102d56120de565b61023d6120ed565b6102156004803603604081101561058057600080fd5b50803590602001356001600160a01b0316612111565b610215600480360360608110156105ac57600080fd5b5060ff813516906001600160a01b03602082013581169160400135166122ee565b61023d600480360360408110156105e357600080fd5b506001600160a01b0381351690602001356126a9565b61023d612887565b6102156004803603602081101561061757600080fd5b503561288d565b6102156004803603602081101561063457600080fd5b5035612d4a565b6001600160a01b0381166000908152600080516020613502833981519152602052604090205460ff166106a4576040805162461bcd60e51b815260206004820152600c60248201526b139bdd081858d8d95c1d195960a21b604482015290519081900360640190fd5b3360009081527fabd6e7cb50984ff9c2f3e18a2660c3353dadf4e3291deeb275dae2cd1e44fe05602052604090205460ff16610716576040805162461bcd60e51b815260206004820152600c60248201526b139bdd08185c1c1c9bdd995960a21b604482015290519081900360640190fd5b600061072282846126a9565b90507f00000000000000000000000000000000000000000000000000000000000000006001600160a01b03166379cc679033836040518363ffffffff1660e01b815260040180836001600160a01b0316815260200182815260200192505050600060405180830381600087803b15801561079b57600080fd5b505af11580156107af573d6000803e3d6000fd5b50506007546107c19250905082612f2d565b6007556107d86001600160a01b0383163385612f76565b604080518481526020810183905281516001600160a01b038516927fdf273cb619d95419a9cd0ec88123a0538c85064229baa6363788f743fff90deb928290030190a2505050565b60066020526000908152604090205481565b6001600160a01b038216600090815260008051602061347c833981519152602052604090205460ff16156108d7573360009081527fc59312466997bb42aaaf719ece141047820e6b34531e1670dc1852a453648f0f602052604090205460ff166108d2576040805162461bcd60e51b815260206004820152600c60248201526b139bdd08185c1c1c9bdd995960a21b604482015290519081900360640190fd5b610949565b3360009081527f2e174c10e159ea99b867ce3205125c24a42d128804e4070ed6fcc8cc98166aa0602052604090205460ff16610949576040805162461bcd60e51b815260206004820152600c60248201526b139bdd08185c1c1c9bdd995960a21b604482015290519081900360640190fd5b6001600160a01b0382166000908152600080516020613502833981519152602052604090205460ff16806109a257506001600160a01b038216600090815260008051602061347c833981519152602052604090205460ff165b15610a1b5760006109b383836126a9565b90506109bd610a72565b811115610a09576040805162461bcd60e51b8152602060048201526015602482015274496e73756666696369656e7420726573657276657360581b604482015290519081900360640190fd5b600754610a169082612f2d565b600755505b610a2f6001600160a01b0383163383612f76565b6040805182815290516001600160a01b038416917fb4460e34f1e91c4fa28eb7fac4cbd88cf530ef54a67e1978cd5edd9f77033ead919081900360200190a25050565b6000610b11610b086008547f00000000000000000000000000000000000000000000000000000000000000006001600160a01b03166318160ddd6040518163ffffffff1660e01b815260040160206040518083038186803b158015610ad657600080fd5b505afa158015610aea573d6000803e3d6000fd5b505050506040513d6020811015610b0057600080fd5b505190612f2d565b60075490612f2d565b905090565b3360009081527fbeb3bad75134cb432e5707980e3245c52c5998a1125ee30f2f0dbf3925b1e551602052604090205460ff16610b88576040805162461bcd60e51b815260206004820152600c60248201526b139bdd08185c1c1c9bdd995960a21b604482015290519081900360640190fd5b6001600160a01b0381166000908152600080516020613502833981519152602052604090205460ff16610bf1576040805162461bcd60e51b815260206004820152600c60248201526b139bdd081858d8d95c1d195960a21b604482015290519081900360640190fd5b6000610bfd82846126a9565b905080610c48576040805162461bcd60e51b815260206004820152601460248201527324b73b30b634b21037baba383aba103a37b5b2b760611b604482015290519081900360640190fd5b6002546040805163313bc71360e21b81523360048201529051600092610d11926001600160a01b039091169163c4ef1c4c91602480820192602092909190829003018186803b158015610c9a57600080fd5b505afa158015610cae573d6000803e3d6000fd5b505050506040513d6020811015610cc457600080fd5b5051600254604080516370a0823160e01b815233600482015290516001600160a01b03909216916370a0823191602480820192602092909190829003018186803b158015610ad657600080fd5b905080821115610d5d576040805162461bcd60e51b8152602060048201526012602482015271115e18d959591cc81919589d081b1a5b5a5d60721b604482015290519081900360640190fd5b6002546040805163ae5c6cd360e01b8152600481018590523360248201526001604482015290516001600160a01b039092169163ae5c6cd39160648082019260009290919082900301818387803b158015610db757600080fd5b505af1158015610dcb573d6000803e3d6000fd5b5050600854610ddd92509050836130d2565b600855600754610ded9083612f2d565b600755610e046001600160a01b0384163386612f76565b604080518581526020810184905281516001600160a01b0386169233927f7e1a939bed137a819b5d2979822c67f877689f7a863d5e4cb57cdca97b2977d6929081900390910190a350505050565b6005602052600090815260409020546001600160a01b031681565b600160009054906101000a90046001600160a01b03166001600160a01b0316630c340a246040518163ffffffff1660e01b815260040160206040518083038186803b158015610ebb57600080fd5b505afa158015610ecf573d6000803e3d6000fd5b505050506040513d6020811015610ee557600080fd5b50516000906001600160a01b03163314610f925760405162461bcd60e51b8152602060048201908152825460026000196101006001841615020190911604602483018190529091829160449091019084908015610f835780601f10610f5857610100808354040283529160200191610f83565b820191906000526020600020905b815481529060010190602001808311610f6657829003601f168201915b50509250505060405180910390fd5b506001600160a01b038216610fa657600080fd5b600a5460ff1615610ffe576040805162461bcd60e51b815260206004820152601760248201527f4f434720456e61626c65643a2055736520656e61626c65000000000000000000604482015290519081900360640190fd5b600061102a437f00000000000000000000000000000000000000000000000000000000000000006130d2565b9050600384600981111561103a57fe5b14806110515750600684600981111561104f57fe5b145b1561108e5761108b6110847f0000000000000000000000000000000000000000000000000000000000000000600261312c565b43906130d2565b90505b60096040518060c001604052808660098111156110a757fe5b81526001600160a01b0380871660208084019190915290861660408301526060820185905260006080830181905260a090920182905283546001818101865594835291208251600490920201805492939092839160ff199091169083600981111561110e57fe5b021790555060208201518154610100600160a81b0319166101006001600160a01b03928316810291909117835560408401516001840180546001600160a01b03191691909316179091556060830151600283015560808301516003909201805460a09094015160ff199094169215159290921761ff0019169215150291909117905583600981111561119c57fe5b604080516001600160a01b038616815290517fc822ff41836a6dc998393c71843db8adcbbf01721f41b32389f6838ecb1ea9c89181900360200190a250505050565b600160009054906101000a90046001600160a01b03166001600160a01b0316630c340a246040518163ffffffff1660e01b815260040160206040518083038186803b15801561122c57600080fd5b505afa158015611240573d6000803e3d6000fd5b505050506040513d602081101561125657600080fd5b50516000906001600160a01b031633146112c95760405162461bcd60e51b8152602060048201908152825460026000196101006001841615020190911604602483018190529091829160449091019084908015610f835780601f10610f5857610100808354040283529160200191610f83565b5060026000908152600360209081527fc3a24b0501bd2c13a7e57f2db4369ec4c223447539fc0724a9d55ac4a06ebd4d805460408051828502810185019091528181526060939092919083018282801561134c57602002820191906000526020600020905b81546001600160a01b0316815260019091019060200180831161132e575b5050505050905060005b8151811015611473576002600090815260046020528251600080516020613502833981519152919084908490811061138a57fe5b6020908102919091018101516001600160a01b031682528101919091526040016000205460ff161561146b576114686114618383815181106113c857fe5b60200260200101518484815181106113dc57fe5b60200260200101516001600160a01b03166370a08231306040518263ffffffff1660e01b815260040180826001600160a01b0316815260200191505060206040518083038186803b15801561143057600080fd5b505afa158015611444573d6000803e3d6000fd5b505050506040513d602081101561145a57600080fd5b50516126a9565b84906130d2565b92505b600101611356565b506005600052600360209081527f405aad32e1adbac89bb7f176e338b8fc6e994ca210c9bb7bdca249b46594225080546040805182850281018501909152818152606093909291908301828280156114f457602002820191906000526020600020905b81546001600160a01b031681526001909101906020018083116114d6575b5050505050905060005b815181101561158257600560009081526004602052825160008051602061347c833981519152919084908490811061153257fe5b6020908102919091018101516001600160a01b031682528101919091526040016000205460ff161561157a576115776115708383815181106113c857fe5b85906130d2565b93505b6001016114fe565b50600783905560405183907fec691f09f6924b27932253f85caf99bacc30360cc0e50a1cc4d2acc24601446690600090a2505050565b600460209081526000928352604080842090915290825290205460ff1681565b3360009081527f2645749a946633740611cfc8178319f0958659d6922e4bf7e3a08b44789f53a4602052604090205460ff1661164a576040805162461bcd60e51b815260206004820152600c60248201526b139bdd08185c1c1c9bdd995960a21b604482015290519081900360640190fd5b611652610a72565b81111561169e576040805162461bcd60e51b8152602060048201526015602482015274496e73756666696369656e7420726573657276657360581b604482015290519081900360640190fd5b7f00000000000000000000000000000000000000000000000000000000000000006001600160a01b03166340c10f1983836040518363ffffffff1660e01b815260040180836001600160a01b0316815260200182815260200192505050600060405180830381600087803b15801561171557600080fd5b505af1158015611729573d6000803e3d6000fd5b50506040805184815290516001600160a01b03861693503392507f9d228d69b5fdb8d273a2336f8fb8612d039631024ea9bf09c424a9503aa078f09181900360200190a35050565b6009818154811061178157600080fd5b6000918252602090912060049091020180546001820154600283015460039093015460ff80841695506001600160a01b036101009485900481169593169382821692041686565b600160009054906101000a90046001600160a01b03166001600160a01b0316630c340a246040518163ffffffff1660e01b815260040160206040518083038186803b15801561181657600080fd5b505afa15801561182a573d6000803e3d6000fd5b505050506040513d602081101561184057600080fd5b50516000906001600160a01b031633146118b35760405162461bcd60e51b8152602060048201908152825460026000196101006001841615020190911604602483018190529091829160449091019084908015610f835780601f10610f5857610100808354040283529160200191610f83565b506000600460008460098111156118c657fe5b60098111156118d157fe5b8152602080820192909252604090810160009081206001600160a01b03861682529092529020805460ff191691151591909117905581600981111561191257fe5b604080516001600160a01b03841681526000602082015281517f7531a7aefe3985500c4dec2dcb6049a708f14c6a8a9022b435b8841bdb8e1713929181900390910190a25050565b600160009054906101000a90046001600160a01b03166001600160a01b0316630c340a246040518163ffffffff1660e01b815260040160206040518083038186803b1580156119a857600080fd5b505afa1580156119bc573d6000803e3d6000fd5b505050506040513d60208110156119d257600080fd5b50516000906001600160a01b03163314611a455760405162461bcd60e51b8152602060048201908152825460026000196101006001841615020190911604602483018190529091829160449091019084908015610f835780601f10610f5857610100808354040283529160200191610f83565b50600160098281548110611a5557fe5b60009182526020909120600490910201600301805460ff191691151591909117905550565b600160009054906101000a90046001600160a01b03166001600160a01b0316630c340a246040518163ffffffff1660e01b815260040160206040518083038186803b158015611ac857600080fd5b505afa158015611adc573d6000803e3d6000fd5b505050506040513d6020811015611af257600080fd5b50516000906001600160a01b03163314611b655760405162461bcd60e51b8152602060048201908152825460026000196101006001841615020190911604602483018190529091829160449091019084908015610f835780601f10610f5857610100808354040283529160200191610f83565b50600180546001600160a01b0319166001600160a01b0383169081179091556040517f2f658b440c35314f52658ea8a740e05b284cdc84dc9ae01e891f21b8933e7cad90600090a250565b600a5460ff1681565b7f000000000000000000000000000000000000000000000000000000000000000081565b60075481565b600080606060036000856009811115611bf857fe5b6009811115611c0357fe5b8152602001908152602001600020805480602002602001604051908101604052809291908181526020018280548015611c6557602002820191906000526020600020905b81546001600160a01b03168152600190910190602001808311611c47575b5050505050905060005b8151811015611cba57818181518110611c8457fe5b60200260200101516001600160a01b0316866001600160a01b03161415611cb257600193509150611cc49050565b600101611c6f565b5060008092509250505b9250929050565b60036020528160005260406000208181548110611ce757600080fd5b6000918252602090912001546001600160a01b03169150829050565b600160009054906101000a90046001600160a01b03166001600160a01b0316630c340a246040518163ffffffff1660e01b815260040160206040518083038186803b158015611d5157600080fd5b505afa158015611d65573d6000803e3d6000fd5b505050506040513d6020811015611d7b57600080fd5b50516000906001600160a01b03163314611dee5760405162461bcd60e51b8152602060048201908152825460026000196101006001841615020190911604602483018190529091829160449091019084908015610f835780601f10610f5857610100808354040283529160200191610f83565b50600a5460ff1615611e3d576040805162461bcd60e51b815260206004820152601360248201527213d0d1c8185b1c9958591e48195b98589b1959606a1b604482015290519081900360640190fd5b600b5415801590611e50575043600b5411155b15611e6757600a805460ff19166001179055611e99565b611e956110847f0000000000000000000000000000000000000000000000000000000000000000600761312c565b600b555b565b600b5481565b6002546001600160a01b031681565b6001600160a01b0382166000908152600080516020613502833981519152602052604081205460ff1615611f555760046000805b6009811115611eef57fe5b81526020808201929092526040908101600090812033825290925290205460ff16611f50576040805162461bcd60e51b815260206004820152600c60248201526b139bdd08185c1c1c9bdd995960a21b604482015290519081900360640190fd5b611fc4565b6001600160a01b038316600090815260008051602061347c833981519152602052604090205460ff1615611f8d576004600081611ee4565b60405162461bcd60e51b81526004018080602001828103825260238152602001806134df6023913960400191505060405180910390fd5b611fd96001600160a01b038416333087613185565b6000611fe584866126a9565b9050611ff18184612f2d565b91507f00000000000000000000000000000000000000000000000000000000000000006001600160a01b03166340c10f1933846040518363ffffffff1660e01b815260040180836001600160a01b0316815260200182815260200192505050600060405180830381600087803b15801561206a57600080fd5b505af115801561207e573d6000803e3d6000fd5b505060075461209092509050826130d2565b600755604080518681526020810183905281516001600160a01b038716927f90890809c654f11d6e72a28fa60149770a0d11ec6c92319d6ceb2bb0a4ea1a15928290030190a2509392505050565b6001546001600160a01b031681565b7f000000000000000000000000000000000000000000000000000000000000000081565b3360009081527fbeb3bad75134cb432e5707980e3245c52c5998a1125ee30f2f0dbf3925b1e551602052604090205460ff16612183576040805162461bcd60e51b815260206004820152600c60248201526b139bdd08185c1c1c9bdd995960a21b604482015290519081900360640190fd5b6001600160a01b0381166000908152600080516020613502833981519152602052604090205460ff166121ec576040805162461bcd60e51b815260206004820152600c60248201526b139bdd081858d8d95c1d195960a21b604482015290519081900360640190fd5b6122016001600160a01b038216333085613185565b600061220d82846126a9565b6002546040805163ae5c6cd360e01b81526004810184905233602482015260006044820181905291519394506001600160a01b039092169263ae5c6cd392606480820193929182900301818387803b15801561226857600080fd5b505af115801561227c573d6000803e3d6000fd5b505060085461228e9250905082612f2d565b60085560075461229e90826130d2565b600755604080518481526020810183905281516001600160a01b0385169233927fc6d98eecfc9c78ab62c89a82950079b54874749f1f6f24090f7acc758bc2f309929081900390910190a3505050565b600160009054906101000a90046001600160a01b03166001600160a01b0316630c340a246040518163ffffffff1660e01b815260040160206040518083038186803b15801561233c57600080fd5b505afa158015612350573d6000803e3d6000fd5b505050506040513d602081101561236657600080fd5b50516000906001600160a01b031633146123d95760405162461bcd60e51b8152602060048201908152825460026000196101006001841615020190911604602483018190529091829160449091019084908015610f835780601f10610f5857610100808354040283529160200191610f83565b50600a5460ff1661241b5760405162461bcd60e51b815260040180806020018281038252602281526020018061349c6022913960400191505060405180910390fd5b600983600981111561242957fe5b141561244f57600280546001600160a01b0319166001600160a01b038416179055612654565b60016004600085600981111561246157fe5b600981111561246c57fe5b8152602080820192909252604090810160009081206001600160a01b03871682529092529020805460ff191691151591909117905560058360098111156124af57fe5b14156124e4576001600160a01b03828116600090815260056020526040902080546001600160a01b0319169183169190911790555b60006124f08385611be3565b50905080612652576003600085600981111561250857fe5b600981111561251357fe5b8152602080820192909252604001600090812080546001810182559082529190200180546001600160a01b0319166001600160a01b038516179055600584600981111561255c57fe5b14156125d257600080612570856002611be3565b9150915081156125cb57600260005260036020527fc3a24b0501bd2c13a7e57f2db4369ec4c223447539fc0724a9d55ac4a06ebd4d8054829081106125b157fe5b600091825260209091200180546001600160a01b03191690555b5050612652565b60028460098111156125e057fe5b1415612652576000806125f4856005611be3565b91509150811561264f57600560005260036020527f405aad32e1adbac89bb7f176e338b8fc6e994ca210c9bb7bdca249b46594225080548290811061263557fe5b600091825260209091200180546001600160a01b03191690555b50505b505b82600981111561266057fe5b604080516001600160a01b03851681526001602082015281517f7531a7aefe3985500c4dec2dcb6049a708f14c6a8a9022b435b8841bdb8e1713929181900390910190a2505050565b60006127c0836001600160a01b031663313ce5676040518163ffffffff1660e01b815260040160206040518083038186803b1580156126e757600080fd5b505afa1580156126fb573d6000803e3d6000fd5b505050506040513d602081101561271157600080fd5b50516040805163313ce56760e01b8152905160ff909216600a0a916127ba916001600160a01b037f0000000000000000000000000000000000000000000000000000000000000000169163313ce56791600480820192602092909190829003018186803b15801561278157600080fd5b505afa158015612795573d6000803e3d6000fd5b505050506040513d60208110156127ab57600080fd5b5051859060ff16600a0a61312c565b906132ef565b6001600160a01b038416600090815260008051602061347c833981519152602052604090205490915060ff1615612881576001600160a01b03808416600081815260056020908152604091829020548251634249719f60e01b815260048101949094526024840187905291519190931692634249719f9260448082019391829003018186803b15801561285257600080fd5b505afa158015612866573d6000803e3d6000fd5b505050506040513d602081101561287c57600080fd5b505190505b92915050565b60085481565b600a5460ff161561289d57600080fd5b6128a5613444565b600982815481106128b257fe5b600091825260209091206040805160c081019091526004909202018054829060ff1660098111156128df57fe5b60098111156128ea57fe5b815281546001600160a01b03610100918290048116602084015260018401541660408301526002830154606083015260039092015460ff80821615156080808501919091529390910416151560a09091015281015190915015612994576040805162461bcd60e51b815260206004820152601960248201527f416374696f6e20686173206265656e206e756c6c696669656400000000000000604482015290519081900360640190fd5b8060a00151156129eb576040805162461bcd60e51b815260206004820181905260248201527f416374696f6e2068617320616c7265616479206265656e206578656375746564604482015290519081900360640190fd5b8060600151431015612a3c576040805162461bcd60e51b815260206004820152601560248201527454696d656c6f636b206e6f7420636f6d706c65746560581b604482015290519081900360640190fd5b600981516009811115612a4b57fe5b1415612a7a576020810151600280546001600160a01b0319166001600160a01b03909216919091179055612cb2565b60016004600083600001516009811115612a9057fe5b6009811115612a9b57fe5b815260208082019290925260409081016000908120858401516001600160a01b031682529092529020805460ff1916911515919091179055600581516009811115612ae257fe5b1415612b23576040818101516020808401516001600160a01b039081166000908152600590925292902080546001600160a01b031916929091169190911790555b6000612b3782602001518360000151611be3565b50905080612cb0576003600083600001516009811115612b5357fe5b6009811115612b5e57fe5b81526020808201929092526040016000908120848301518154600181018355918352929091200180546001600160a01b0319166001600160a01b03909216919091179055600582516009811115612bb157fe5b1415612c2b57600080612bc984602001516002611be3565b915091508115612c2457600260005260036020527fc3a24b0501bd2c13a7e57f2db4369ec4c223447539fc0724a9d55ac4a06ebd4d805482908110612c0a57fe5b600091825260209091200180546001600160a01b03191690555b5050612cb0565b600282516009811115612c3a57fe5b1415612cb057600080612c5284602001516005611be3565b915091508115612cad57600560005260036020527f405aad32e1adbac89bb7f176e338b8fc6e994ca210c9bb7bdca249b465942250805482908110612c9357fe5b600091825260209091200180546001600160a01b03191690555b50505b505b600160098381548110612cc157fe5b6000918252602090912060036004909202010180549115156101000261ff001990921691909117905580516009811115612cf757fe5b7f7531a7aefe3985500c4dec2dcb6049a708f14c6a8a9022b435b8841bdb8e17138260200151600160405180836001600160a01b0316815260200182151581526020019250505060405180910390a25050565b3360009081527fbeb3bad75134cb432e5707980e3245c52c5998a1125ee30f2f0dbf3925b1e551602052604090205460ff16612dbc576040805162461bcd60e51b815260206004820152600c60248201526b139bdd08185c1c1c9bdd995960a21b604482015290519081900360640190fd5b6040805163079cc67960e41b81523360048201526024810183905290516001600160a01b037f000000000000000000000000000000000000000000000000000000000000000016916379cc679091604480830192600092919082900301818387803b158015612e2a57600080fd5b505af1158015612e3e573d6000803e3d6000fd5b50506002546040805163ae5c6cd360e01b81526004810186905233602482015260006044820181905291516001600160a01b03909316945063ae5c6cd393506064808201939182900301818387803b158015612e9957600080fd5b505af1158015612ead573d6000803e3d6000fd5b5050600854612ebf9250905082612f2d565b600855604080518281526020810183905281516001600160a01b037f0000000000000000000000000000000000000000000000000000000000000000169233927fc6d98eecfc9c78ab62c89a82950079b54874749f1f6f24090f7acc758bc2f309929081900390910190a350565b6000612f6f83836040518060400160405280601e81526020017f536166654d6174683a207375627472616374696f6e206f766572666c6f770000815250613331565b9392505050565b604080516001600160a01b038481166024830152604480830185905283518084039091018152606490920183526020820180516001600160e01b031663a9059cbb60e01b178152925182516000946060949389169392918291908083835b60208310612ff35780518252601f199092019160209182019101612fd4565b6001836020036101000a0380198251168184511680821785525050505050509050019150506000604051808303816000865af19150503d8060008114613055576040519150601f19603f3d011682016040523d82523d6000602084013e61305a565b606091505b5091509150818015613088575080511580613088575080806020019051602081101561308557600080fd5b50515b6130cb576040805162461bcd60e51b815260206004820152600f60248201526e1514905394d1915497d19052531151608a1b604482015290519081900360640190fd5b5050505050565b600082820183811015612f6f576040805162461bcd60e51b815260206004820152601b60248201527f536166654d6174683a206164646974696f6e206f766572666c6f770000000000604482015290519081900360640190fd5b60008261313b57506000612881565b8282028284828161314857fe5b0414612f6f5760405162461bcd60e51b81526004018080602001828103825260218152602001806134be6021913960400191505060405180910390fd5b604080516001600160a01b0385811660248301528481166044830152606480830185905283518084039091018152608490920183526020820180516001600160e01b03166323b872dd60e01b17815292518251600094606094938a169392918291908083835b6020831061320a5780518252601f1990920191602091820191016131eb565b6001836020036101000a0380198251168184511680821785525050505050509050019150506000604051808303816000865af19150503d806000811461326c576040519150601f19603f3d011682016040523d82523d6000602084013e613271565b606091505b509150915081801561329f57508051158061329f575080806020019051602081101561329c57600080fd5b50515b6132e7576040805162461bcd60e51b81526020600482015260146024820152731514905394d1915497d19493d357d1905253115160621b604482015290519081900360640190fd5b505050505050565b6000612f6f83836040518060400160405280601a81526020017f536166654d6174683a206469766973696f6e206279207a65726f0000000000008152506133c8565b600081848411156133c05760405162461bcd60e51b81526004018080602001828103825283818151815260200191508051906020019080838360005b8381101561338557818101518382015260200161336d565b50505050905090810190601f1680156133b25780820380516001836020036101000a031916815260200191505b509250505060405180910390fd5b505050900390565b600081836134175760405162461bcd60e51b815260206004820181815283516024840152835190928392604490910191908501908083836000831561338557818101518382015260200161336d565b50600083858161342357fe5b04905083858161342f57fe5b0681850201851461343c57fe5b949350505050565b6040805160c08101909152806000815260006020820181905260408201819052606082018190526080820181905260a0909101529056fe04cde762ef08b6b6c5ded8e8c4c0b3f4e5c9ad7342c88fcc93681b4588b73f054f4347204e6f7420456e61626c65643a2055736520717565756554696d656c6f636b536166654d6174683a206d756c7469706c69636174696f6e206f766572666c6f776e6569746865722072657365727665206e6f72206c697175696469747920746f6b656e91da3fd0782e51c6b3986e9e672fd566868e71f3dbc2d6c2cd6fbb3e361af2a7a26469706673582212206b9db6f37d56982b8ead0e39a7c1fc02b7c8b04e02de342c26687d3fc8223f3164736f6c63430007050033",
  "linkReferences": {},
  "deployedLinkReferences": {}
}