{
  "_format": "hh-sol-artifact-1",
  "contractName": "SphynxAuthority",
  "sourceName": "contracts/staking/SphynxAuthority.sol",
  "abi": [
    {
      "inputs": [
        {
          "internalType": "address",
          "name": "_governor",
          "type": "address"
        },
        {
          "internalType": "address",
          "name": "_guardian",
          "type": "address"
        },
        {
          "internalType": "address",
          "name": "_policy",
          "type": "address"
        },
        {
          "internalType": "address",
          "name": "_vault",
          "type": "address"
        }
      ],
      "stateMutability": "nonpayable",
      "type": "constructor"
    },
    {
      "anonymous": false,
      "inputs": [
        {
          "indexed": true,
          "internalType": "contract ISphynxAuthority",
          "name": "authority",
          "type": "address"
        }
      ],
      "name": "AuthorityUpdated",
      "type": "event"
    },
    {
      "anonymous": false,
      "inputs": [
        {
          "indexed": true,
          "internalType": "address",
          "name": "from",
          "type": "address"
        },
        {
          "indexed": true,
          "internalType": "address",
          "name": "to",
          "type": "address"
        }
      ],
      "name": "GovernorPulled",
      "type": "event"
    },
    {
      "anonymous": false,
      "inputs": [
        {
          "indexed": true,
          "internalType": "address",
          "name": "from",
          "type": "address"
        },
        {
          "indexed": true,
          "internalType": "address",
          "name": "to",
          "type": "address"
        },
        {
          "indexed": false,
          "internalType": "bool",
          "name": "_effectiveImmediately",
          "type": "bool"
        }
      ],
      "name": "GovernorPushed",
      "type": "event"
    },
    {
      "anonymous": false,
      "inputs": [
        {
          "indexed": true,
          "internalType": "address",
          "name": "from",
          "type": "address"
        },
        {
          "indexed": true,
          "internalType": "address",
          "name": "to",
          "type": "address"
        }
      ],
      "name": "GuardianPulled",
      "type": "event"
    },
    {
      "anonymous": false,
      "inputs": [
        {
          "indexed": true,
          "internalType": "address",
          "name": "from",
          "type": "address"
        },
        {
          "indexed": true,
          "internalType": "address",
          "name": "to",
          "type": "address"
        },
        {
          "indexed": false,
          "internalType": "bool",
          "name": "_effectiveImmediately",
          "type": "bool"
        }
      ],
      "name": "GuardianPushed",
      "type": "event"
    },
    {
      "anonymous": false,
      "inputs": [
        {
          "indexed": true,
          "internalType": "address",
          "name": "from",
          "type": "address"
        },
        {
          "indexed": true,
          "internalType": "address",
          "name": "to",
          "type": "address"
        }
      ],
      "name": "PolicyPulled",
      "type": "event"
    },
    {
      "anonymous": false,
      "inputs": [
        {
          "indexed": true,
          "internalType": "address",
          "name": "from",
          "type": "address"
        },
        {
          "indexed": true,
          "internalType": "address",
          "name": "to",
          "type": "address"
        },
        {
          "indexed": false,
          "internalType": "bool",
          "name": "_effectiveImmediately",
          "type": "bool"
        }
      ],
      "name": "PolicyPushed",
      "type": "event"
    },
    {
      "anonymous": false,
      "inputs": [
        {
          "indexed": true,
          "internalType": "address",
          "name": "from",
          "type": "address"
        },
        {
          "indexed": true,
          "internalType": "address",
          "name": "to",
          "type": "address"
        }
      ],
      "name": "VaultPulled",
      "type": "event"
    },
    {
      "anonymous": false,
      "inputs": [
        {
          "indexed": true,
          "internalType": "address",
          "name": "from",
          "type": "address"
        },
        {
          "indexed": true,
          "internalType": "address",
          "name": "to",
          "type": "address"
        },
        {
          "indexed": false,
          "internalType": "bool",
          "name": "_effectiveImmediately",
          "type": "bool"
        }
      ],
      "name": "VaultPushed",
      "type": "event"
    },
    {
      "inputs": [],
      "name": "authority",
      "outputs": [
        {
          "internalType": "contract ISphynxAuthority",
          "name": "",
          "type": "address"
        }
      ],
      "stateMutability": "view",
      "type": "function"
    },
    {
      "inputs": [],
      "name": "governor",
      "outputs": [
        {
          "internalType": "address",
          "name": "",
          "type": "address"
        }
      ],
      "stateMutability": "view",
      "type": "function"
    },
    {
      "inputs": [],
      "name": "guardian",
      "outputs": [
        {
          "internalType": "address",
          "name": "",
          "type": "address"
        }
      ],
      "stateMutability": "view",
      "type": "function"
    },
    {
      "inputs": [],
      "name": "newGovernor",
      "outputs": [
        {
          "internalType": "address",
          "name": "",
          "type": "address"
        }
      ],
      "stateMutability": "view",
      "type": "function"
    },
    {
      "inputs": [],
      "name": "newGuardian",
      "outputs": [
        {
          "internalType": "address",
          "name": "",
          "type": "address"
        }
      ],
      "stateMutability": "view",
      "type": "function"
    },
    {
      "inputs": [],
      "name": "newPolicy",
      "outputs": [
        {
          "internalType": "address",
          "name": "",
          "type": "address"
        }
      ],
      "stateMutability": "view",
      "type": "function"
    },
    {
      "inputs": [],
      "name": "newVault",
      "outputs": [
        {
          "internalType": "address",
          "name": "",
          "type": "address"
        }
      ],
      "stateMutability": "view",
      "type": "function"
    },
    {
      "inputs": [],
      "name": "policy",
      "outputs": [
        {
          "internalType": "address",
          "name": "",
          "type": "address"
        }
      ],
      "stateMutability": "view",
      "type": "function"
    },
    {
      "inputs": [],
      "name": "pullGovernor",
      "outputs": [],
      "stateMutability": "nonpayable",
      "type": "function"
    },
    {
      "inputs": [],
      "name": "pullGuardian",
      "outputs": [],
      "stateMutability": "nonpayable",
      "type": "function"
    },
    {
      "inputs": [],
      "name": "pullPolicy",
      "outputs": [],
      "stateMutability": "nonpayable",
      "type": "function"
    },
    {
      "inputs": [],
      "name": "pullVault",
      "outputs": [],
      "stateMutability": "nonpayable",
      "type": "function"
    },
    {
      "inputs": [
        {
          "internalType": "address",
          "name": "_newGovernor",
          "type": "address"
        },
        {
          "internalType": "bool",
          "name": "_effectiveImmediately",
          "type": "bool"
        }
      ],
      "name": "pushGovernor",
      "outputs": [],
      "stateMutability": "nonpayable",
      "type": "function"
    },
    {
      "inputs": [
        {
          "internalType": "address",
          "name": "_newGuardian",
          "type": "address"
        },
        {
          "internalType": "bool",
          "name": "_effectiveImmediately",
          "type": "bool"
        }
      ],
      "name": "pushGuardian",
      "outputs": [],
      "stateMutability": "nonpayable",
      "type": "function"
    },
    {
      "inputs": [
        {
          "internalType": "address",
          "name": "_newPolicy",
          "type": "address"
        },
        {
          "internalType": "bool",
          "name": "_effectiveImmediately",
          "type": "bool"
        }
      ],
      "name": "pushPolicy",
      "outputs": [],
      "stateMutability": "nonpayable",
      "type": "function"
    },
    {
      "inputs": [
        {
          "internalType": "address",
          "name": "_newVault",
          "type": "address"
        },
        {
          "internalType": "bool",
          "name": "_effectiveImmediately",
          "type": "bool"
        }
      ],
      "name": "pushVault",
      "outputs": [],
      "stateMutability": "nonpayable",
      "type": "function"
    },
    {
      "inputs": [
        {
          "internalType": "contract ISphynxAuthority",
          "name": "_newAuthority",
          "type": "address"
        }
      ],
      "name": "setAuthority",
      "outputs": [],
      "stateMutability": "nonpayable",
      "type": "function"
    },
    {
      "inputs": [],
      "name": "vault",
      "outputs": [
        {
          "internalType": "address",
          "name": "",
          "type": "address"
        }
      ],
      "stateMutability": "view",
      "type": "function"
    }
  ],
  "bytecode": "0x60c0604052600c60808190526b15539055551213d49256915160a21b60a090815261002d9160009190610241565b5034801561003a57600080fd5b506040516110353803806110358339818101604052608081101561005d57600080fd5b5080516020820151604080840151606090940151600180546001600160a01b0319163090811790915591519394929390919081907f2f658b440c35314f52658ea8a740e05b284cdc84dc9ae01e891f21b8933e7cad90600090a250600280546001600160a01b038087166001600160a01b031990921691909117918290556040805160018152905192909116916000917f4f337dcbb2512f18373c1f72d990a2f0a6ee5024b04007c52afd01eb73374a89919081900360200190a3600380546001600160a01b038086166001600160a01b031990921691909117918290556040805160018152905192909116916000917fde655975891e8f09671597b37bd4d663bcc5c21dc6d7641b33cdf85fbe15d08b919081900360200190a3600480546001600160a01b038085166001600160a01b031990921691909117918290556040805160018152905192909116916000917f90a5902a45c24aae553d5aff384ca16d6560f08d74c9784a4fbd2796d9e13f2b919081900360200190a3600580546001600160a01b038084166001600160a01b031990921691909117918290556040805160018152905192909116916000917f05a80f5053574d6a62733e1692e8cbcfaf927dc82df0a7267ea2e489a7cc18ff919081900360200190a3505050506102e2565b828054600181600116156101000203166002900490600052602060002090601f01602090048101928261027757600085556102bd565b82601f1061029057805160ff19168380011785556102bd565b828001600101855582156102bd579182015b828111156102bd5782518255916020019190600101906102a2565b506102c99291506102cd565b5090565b5b808211156102c957600081556001016102ce565b610d44806102f16000396000f3fe608060405234801561001057600080fd5b50600436106101165760003560e01c80635beede08116100a25780638fd20577116100715780638fd2057714610257578063be11f1dd1461025f578063bf7e214f14610267578063d8a042121461026f578063fbfa77cf1461027757610116565b80635beede08146101f35780636fe72c14146101fb5780637a9e5e4b1461022957806388aaf0c81461024f57610116565b8063215e92bc116100e9578063215e92bc1461017f5780633bf90c2814610187578063452a93201461018f578063527596941461019757806354e3d703146101c557610116565b80630505c8c91461011b5780630c340a241461013f57806319859847146101475780631afe87141461014f575b600080fd5b61012361027f565b604080516001600160a01b039092168252519081900360200190f35b61012361028e565b61012361029d565b61017d6004803603604081101561016557600080fd5b506001600160a01b03813516906020013515156102ac565b005b61017d61045d565b61012361050b565b61012361051a565b61017d600480360360408110156101ad57600080fd5b506001600160a01b0381351690602001351515610529565b61017d600480360360408110156101db57600080fd5b506001600160a01b03813516906020013515156106a0565b61017d610817565b61017d6004803603604081101561021157600080fd5b506001600160a01b03813516906020013515156108c6565b61017d6004803603602081101561023f57600080fd5b50356001600160a01b0316610a3d565b610123610b73565b610123610b82565b61017d610b91565b610123610c3f565b61017d610c4e565b610123610cff565b6004546001600160a01b031681565b6002546001600160a01b031681565b6007546001600160a01b031681565b600160009054906101000a90046001600160a01b03166001600160a01b0316630c340a246040518163ffffffff1660e01b815260040160206040518083038186803b1580156102fa57600080fd5b505afa15801561030e573d6000803e3d6000fd5b505050506040513d602081101561032457600080fd5b50516000906001600160a01b031633146103d15760405162461bcd60e51b81526020600482019081528254600260001961010060018416150201909116046024830181905290918291604490910190849080156103c25780601f10610397576101008083540402835291602001916103c2565b820191906000526020600020905b8154815290600101906020018083116103a557829003601f168201915b50509250505060405180910390fd5b5080156103f457600380546001600160a01b0319166001600160a01b0384161790555b600780546001600160a01b038085166001600160a01b0319909216919091179182905560035460408051851515815290519383169391909216917fde655975891e8f09671597b37bd4d663bcc5c21dc6d7641b33cdf85fbe15d08b919081900360200190a35050565b6009546001600160a01b031633146104a8576040805162461bcd60e51b8152602060048201526009602482015268085b995dd5985d5b1d60ba1b604482015290519081900360640190fd5b6009546005546040516001600160a01b0392831692909116907f3d08e01e3b8340be6ca709db7a9321448661a1f490da4d7f3eb03d84fe73095390600090a3600954600580546001600160a01b0319166001600160a01b03909216919091179055565b6008546001600160a01b031681565b6003546001600160a01b031681565b600160009054906101000a90046001600160a01b03166001600160a01b0316630c340a246040518163ffffffff1660e01b815260040160206040518083038186803b15801561057757600080fd5b505afa15801561058b573d6000803e3d6000fd5b505050506040513d60208110156105a157600080fd5b50516000906001600160a01b031633146106145760405162461bcd60e51b81526020600482019081528254600260001961010060018416150201909116046024830181905290918291604490910190849080156103c25780601f10610397576101008083540402835291602001916103c2565b50801561063757600280546001600160a01b0319166001600160a01b0384161790555b600680546001600160a01b038085166001600160a01b0319909216919091179182905560025460408051851515815290519383169391909216917f4f337dcbb2512f18373c1f72d990a2f0a6ee5024b04007c52afd01eb73374a89919081900360200190a35050565b600160009054906101000a90046001600160a01b03166001600160a01b0316630c340a246040518163ffffffff1660e01b815260040160206040518083038186803b1580156106ee57600080fd5b505afa158015610702573d6000803e3d6000fd5b505050506040513d602081101561071857600080fd5b50516000906001600160a01b0316331461078b5760405162461bcd60e51b81526020600482019081528254600260001961010060018416150201909116046024830181905290918291604490910190849080156103c25780601f10610397576101008083540402835291602001916103c2565b5080156107ae57600480546001600160a01b0319166001600160a01b0384161790555b600880546001600160a01b038085166001600160a01b0319909216919091179182905560045460408051851515815290519383169391909216917f90a5902a45c24aae553d5aff384ca16d6560f08d74c9784a4fbd2796d9e13f2b919081900360200190a35050565b6008546001600160a01b03163314610863576040805162461bcd60e51b815260206004820152600a602482015269216e6577506f6c69637960b01b604482015290519081900360640190fd5b6008546004546040516001600160a01b0392831692909116907f64d2fa522b403ca222efff0c7ad07d2ef45472a45e5770918bdfa9a2845d29a890600090a3600854600480546001600160a01b0319166001600160a01b03909216919091179055565b600160009054906101000a90046001600160a01b03166001600160a01b0316630c340a246040518163ffffffff1660e01b815260040160206040518083038186803b15801561091457600080fd5b505afa158015610928573d6000803e3d6000fd5b505050506040513d602081101561093e57600080fd5b50516000906001600160a01b031633146109b15760405162461bcd60e51b81526020600482019081528254600260001961010060018416150201909116046024830181905290918291604490910190849080156103c25780601f10610397576101008083540402835291602001916103c2565b5080156109d457600580546001600160a01b0319166001600160a01b0384161790555b600980546001600160a01b038085166001600160a01b0319909216919091179182905560055460408051851515815290519383169391909216917f05a80f5053574d6a62733e1692e8cbcfaf927dc82df0a7267ea2e489a7cc18ff919081900360200190a35050565b600160009054906101000a90046001600160a01b03166001600160a01b0316630c340a246040518163ffffffff1660e01b815260040160206040518083038186803b158015610a8b57600080fd5b505afa158015610a9f573d6000803e3d6000fd5b505050506040513d6020811015610ab557600080fd5b50516000906001600160a01b03163314610b285760405162461bcd60e51b81526020600482019081528254600260001961010060018416150201909116046024830181905290918291604490910190849080156103c25780601f10610397576101008083540402835291602001916103c2565b50600180546001600160a01b0319166001600160a01b0383169081179091556040517f2f658b440c35314f52658ea8a740e05b284cdc84dc9ae01e891f21b8933e7cad90600090a250565b6009546001600160a01b031681565b6006546001600160a01b031681565b6007546001600160a01b03163314610bdc576040805162461bcd60e51b8152602060048201526009602482015268085b995dd1dd585c9960ba1b604482015290519081900360640190fd5b6007546003546040516001600160a01b0392831692909116907f0960fb9900fb8096216606c4f7fc2fce5d08cc0c82da55cec8619b66b523848190600090a3600754600380546001600160a01b0319166001600160a01b03909216919091179055565b6001546001600160a01b031681565b6006546001600160a01b03163314610c9c576040805162461bcd60e51b815260206004820152600c60248201526b10b732bba3b7bb32b93737b960a11b604482015290519081900360640190fd5b6006546002546040516001600160a01b0392831692909116907fffd6fed33fe8ec1016718bdd5d04ae6fecd9aba0da6578807daaaa7fc3d1682690600090a3600654600280546001600160a01b0319166001600160a01b03909216919091179055565b6005546001600160a01b03168156fea2646970667358221220fcea8d960271474e1a34fe734dd35b7ff8281e5c22a5909bf25c903ffb1df76664736f6c63430007050033",
  "linkReferences": {},
  "deployedLinkReferences": {}
}