{
  "contractName": "BSCSphynxSwapAgentImpl",
  "abi": [
    {
      "inputs": [
        {
          "internalType": "address",
          "name": "bep20Impl",
          "type": "address"
        },
        {
          "internalType": "uint256",
          "name": "fee",
          "type": "uint256"
        },
        {
          "internalType": "address",
          "name": "bep20ProxyAdminAddr",
          "type": "address"
        }
      ],
      "stateMutability": "nonpayable",
      "type": "constructor"
    },
    {
      "anonymous": false,
      "inputs": [
        {
          "indexed": true,
          "internalType": "address",
          "name": "previousOwner",
          "type": "address"
        },
        {
          "indexed": true,
          "internalType": "address",
          "name": "newOwner",
          "type": "address"
        }
      ],
      "name": "OwnershipTransferred",
      "type": "event"
    },
    {
      "anonymous": false,
      "inputs": [
        {
          "indexed": true,
          "internalType": "address",
          "name": "bep20Addr",
          "type": "address"
        },
        {
          "indexed": true,
          "internalType": "bytes32",
          "name": "ethTxHash",
          "type": "bytes32"
        },
        {
          "indexed": true,
          "internalType": "address",
          "name": "toAddress",
          "type": "address"
        },
        {
          "indexed": false,
          "internalType": "uint256",
          "name": "amount",
          "type": "uint256"
        }
      ],
      "name": "SphynxSwapFilled",
      "type": "event"
    },
    {
      "anonymous": false,
      "inputs": [
        {
          "indexed": true,
          "internalType": "bytes32",
          "name": "ethRegisterTxHash",
          "type": "bytes32"
        },
        {
          "indexed": true,
          "internalType": "address",
          "name": "bep20Addr",
          "type": "address"
        },
        {
          "indexed": true,
          "internalType": "address",
          "name": "erc20Addr",
          "type": "address"
        },
        {
          "indexed": false,
          "internalType": "string",
          "name": "symbol",
          "type": "string"
        },
        {
          "indexed": false,
          "internalType": "string",
          "name": "name",
          "type": "string"
        },
        {
          "indexed": false,
          "internalType": "uint8",
          "name": "decimals",
          "type": "uint8"
        }
      ],
      "name": "SphynxSwapPairCreated",
      "type": "event"
    },
    {
      "anonymous": false,
      "inputs": [
        {
          "indexed": true,
          "internalType": "address",
          "name": "bep20Addr",
          "type": "address"
        },
        {
          "indexed": true,
          "internalType": "address",
          "name": "erc20Addr",
          "type": "address"
        },
        {
          "indexed": true,
          "internalType": "address",
          "name": "fromAddr",
          "type": "address"
        },
        {
          "indexed": false,
          "internalType": "uint256",
          "name": "amount",
          "type": "uint256"
        },
        {
          "indexed": false,
          "internalType": "uint256",
          "name": "feeAmount",
          "type": "uint256"
        }
      ],
      "name": "SphynxSwapStarted",
      "type": "event"
    },
    {
      "inputs": [],
      "name": "bep20Implementation",
      "outputs": [
        {
          "internalType": "address",
          "name": "",
          "type": "address"
        }
      ],
      "stateMutability": "view",
      "type": "function",
      "constant": true
    },
    {
      "inputs": [],
      "name": "bep20ProxyAdmin",
      "outputs": [
        {
          "internalType": "address",
          "name": "",
          "type": "address"
        }
      ],
      "stateMutability": "view",
      "type": "function",
      "constant": true
    },
    {
      "inputs": [
        {
          "internalType": "bytes32",
          "name": "",
          "type": "bytes32"
        }
      ],
      "name": "filledETHTx",
      "outputs": [
        {
          "internalType": "bool",
          "name": "",
          "type": "bool"
        }
      ],
      "stateMutability": "view",
      "type": "function",
      "constant": true
    },
    {
      "inputs": [],
      "name": "owner",
      "outputs": [
        {
          "internalType": "address payable",
          "name": "",
          "type": "address"
        }
      ],
      "stateMutability": "view",
      "type": "function",
      "constant": true
    },
    {
      "inputs": [],
      "name": "swapFee",
      "outputs": [
        {
          "internalType": "uint256",
          "name": "",
          "type": "uint256"
        }
      ],
      "stateMutability": "view",
      "type": "function",
      "constant": true
    },
    {
      "inputs": [
        {
          "internalType": "address",
          "name": "",
          "type": "address"
        }
      ],
      "name": "swapMappingBSC2ETH",
      "outputs": [
        {
          "internalType": "address",
          "name": "",
          "type": "address"
        }
      ],
      "stateMutability": "view",
      "type": "function",
      "constant": true
    },
    {
      "inputs": [
        {
          "internalType": "address",
          "name": "",
          "type": "address"
        }
      ],
      "name": "swapMappingETH2BSC",
      "outputs": [
        {
          "internalType": "address",
          "name": "",
          "type": "address"
        }
      ],
      "stateMutability": "view",
      "type": "function",
      "constant": true
    },
    {
      "inputs": [],
      "name": "renounceOwnership",
      "outputs": [],
      "stateMutability": "nonpayable",
      "type": "function"
    },
    {
      "inputs": [
        {
          "internalType": "address payable",
          "name": "newOwner",
          "type": "address"
        }
      ],
      "name": "transferOwnership",
      "outputs": [],
      "stateMutability": "nonpayable",
      "type": "function"
    },
    {
      "inputs": [
        {
          "internalType": "uint256",
          "name": "fee",
          "type": "uint256"
        }
      ],
      "name": "setSwapFee",
      "outputs": [],
      "stateMutability": "nonpayable",
      "type": "function"
    },
    {
      "inputs": [
        {
          "internalType": "bytes32",
          "name": "ethTxHash",
          "type": "bytes32"
        },
        {
          "internalType": "address",
          "name": "erc20Addr",
          "type": "address"
        },
        {
          "internalType": "address",
          "name": "bep20Addr",
          "type": "address"
        },
        {
          "internalType": "string",
          "name": "name",
          "type": "string"
        },
        {
          "internalType": "string",
          "name": "symbol",
          "type": "string"
        },
        {
          "internalType": "uint8",
          "name": "decimals",
          "type": "uint8"
        }
      ],
      "name": "createSwapPair",
      "outputs": [
        {
          "internalType": "address",
          "name": "",
          "type": "address"
        }
      ],
      "stateMutability": "nonpayable",
      "type": "function"
    },
    {
      "inputs": [
        {
          "internalType": "bytes32",
          "name": "ethTxHash",
          "type": "bytes32"
        },
        {
          "internalType": "address",
          "name": "erc20Addr",
          "type": "address"
        },
        {
          "internalType": "address",
          "name": "toAddress",
          "type": "address"
        },
        {
          "internalType": "uint256",
          "name": "amount",
          "type": "uint256"
        }
      ],
      "name": "fillETH2BSCSwap",
      "outputs": [
        {
          "internalType": "bool",
          "name": "",
          "type": "bool"
        }
      ],
      "stateMutability": "nonpayable",
      "type": "function"
    },
    {
      "inputs": [
        {
          "internalType": "address",
          "name": "bep20Addr",
          "type": "address"
        },
        {
          "internalType": "uint256",
          "name": "amount",
          "type": "uint256"
        }
      ],
      "name": "swapBSC2ETH",
      "outputs": [
        {
          "internalType": "bool",
          "name": "",
          "type": "bool"
        }
      ],
      "stateMutability": "payable",
      "type": "function",
      "payable": true
    }
  ],
  "bytecode": "0x608060405234801561001057600080fd5b506040516110f83803806110f88339818101604052606081101561003357600080fd5b5080516020820151604090920151600580546001600160a01b0319166001600160a01b038416179055600683905590919061006c6100a3565b600380546001600160a01b039283166001600160a01b03199182161790915560048054939092169216919091179055506100a79050565b3390565b611042806100b66000396000f3fe6080604052600436106100c25760003560e01c806360b810f11161007f5780638da5cb5b116100595780638da5cb5b14610304578063be0ace6914610319578063e307b9311461034c578063f2fde38b14610395576100c2565b806360b810f1146102a757806366fec65c146102da578063715018a6146102ef576100c2565b80630344165a146100c75780631ba3b150146100f85780631d662f621461013857806334e199071461022a5780634e2dc7f11461025657806354cf2aeb14610280575b600080fd5b3480156100d357600080fd5b506100dc6103c8565b604080516001600160a01b039092168252519081900360200190f35b6101246004803603604081101561010e57600080fd5b506001600160a01b0381351690602001356103d7565b604080519115158252519081900360200190f35b34801561014457600080fd5b506100dc600480360360c081101561015b57600080fd5b8135916001600160a01b0360208201358116926040830135909116919081019060808101606082013564010000000081111561019657600080fd5b8201836020820111156101a857600080fd5b803590602001918460018302840111640100000000831117156101ca57600080fd5b9193909290916020810190356401000000008111156101e857600080fd5b8201836020820111156101fa57600080fd5b8035906020019184600183028401116401000000008311171561021c57600080fd5b91935091503560ff166105f2565b34801561023657600080fd5b506102546004803603602081101561024d57600080fd5b50356107c4565b005b34801561026257600080fd5b506101246004803603602081101561027957600080fd5b5035610821565b34801561028c57600080fd5b50610295610836565b60408051918252519081900360200190f35b3480156102b357600080fd5b506100dc600480360360208110156102ca57600080fd5b50356001600160a01b031661083c565b3480156102e657600080fd5b506100dc610857565b3480156102fb57600080fd5b50610254610866565b34801561031057600080fd5b506100dc610908565b34801561032557600080fd5b506100dc6004803603602081101561033c57600080fd5b50356001600160a01b0316610917565b34801561035857600080fd5b506101246004803603608081101561036f57600080fd5b508035906001600160a01b03602082013581169160408101359091169060600135610932565b3480156103a157600080fd5b50610254600480360360208110156103b857600080fd5b50356001600160a01b0316610b44565b6004546001600160a01b031681565b60006103e233610c3d565b15610434576040805162461bcd60e51b815260206004820152601f60248201527f636f6e7472616374206973206e6f7420616c6c6f77656420746f207377617000604482015290519081900360640190fd5b333214610488576040805162461bcd60e51b815260206004820152601c60248201527f6e6f2070726f787920636f6e747261637420697320616c6c6f77656400000000604482015290519081900360640190fd5b6001600160a01b0380841660009081526001602052604090205416806104f5576040805162461bcd60e51b815260206004820152601b60248201527f6e6f2073776170207061697220666f72207468697320746f6b656e0000000000604482015290519081900360640190fd5b6006543414610540576040805162461bcd60e51b81526020600482015260126024820152711cddd85c08199959481b9bdd08195c5d585b60721b604482015290519081900360640190fd5b61055b6001600160a01b03851633308663ffffffff610c4316565b341561059c576003546040516001600160a01b03909116903480156108fc02916000818181858888f1935050505015801561059a573d6000803e3d6000fd5b505b60408051848152346020820152815133926001600160a01b0385811693908916927ffc1a6eab912bd888ec0f7a92e1ee241615ab5e87aadc94db8c334a17efaae97d929181900390910190a45060019392505050565b60006105fc610ca3565b6003546001600160a01b0390811691161461064c576040805162461bcd60e51b81526020600482018190526024820152600080516020610fc3833981519152604482015290519081900360640190fd5b6001600160a01b0388811660009081526020819052604090205416156106b0576040805162461bcd60e51b8152602060048201526014602482015273323ab83634b1b0ba32b21039bbb0b8103830b4b960611b604482015290519081900360640190fd5b6001600160a01b038089166000818152602081815260408083208054868e166001600160a01b0319918216811783558552600184528285208054909116861790558484529282529154825160ff88169381019390935260608084528301889052929392909216918c917fb967da2d6a06f204ed76cd483a4309fb8319e484ecb418a41fd8e34d38dfa35a91899189918d918d918b91908190810160808201888880828437600083820152601f01601f191690910184810383528681526020019050868680828437600083820152604051601f909101601f1916909201829003995090975050505050505050a4506001600160a01b038088166000908152602081905260409020541698975050505050505050565b6107cc610ca3565b6003546001600160a01b0390811691161461081c576040805162461bcd60e51b81526020600482018190526024820152600080516020610fc3833981519152604482015290519081900360640190fd5b600655565b60026020526000908152604090205460ff1681565b60065481565b6000602081905290815260409020546001600160a01b031681565b6005546001600160a01b031681565b61086e610ca3565b6003546001600160a01b039081169116146108be576040805162461bcd60e51b81526020600482018190526024820152600080516020610fc3833981519152604482015290519081900360640190fd5b6003546040516000916001600160a01b0316907f8be0079c531659141344cd1fd0a4f28419497f9722a3daafe3b4186f6b6457e0908390a3600380546001600160a01b0319169055565b6003546001600160a01b031681565b6001602052600090815260409020546001600160a01b031681565b600061093c610ca3565b6003546001600160a01b0390811691161461098c576040805162461bcd60e51b81526020600482018190526024820152600080516020610fc3833981519152604482015290519081900360640190fd5b60008581526002602052604090205460ff16156109e8576040805162461bcd60e51b81526020600482015260156024820152746574682074782066696c6c656420616c726561647960581b604482015290519081900360640190fd5b6001600160a01b038085166000908152602081905260409020541680610a55576040805162461bcd60e51b815260206004820152601b60248201527f6e6f2073776170207061697220666f72207468697320746f6b656e0000000000604482015290519081900360640190fd5b6000868152600260209081526040808320805460ff1916600117905580516323b872dd60e01b81523060048201526001600160a01b038881166024830152604482018890529151918516936323b872dd9360648084019491939192918390030190829087803b158015610ac757600080fd5b505af1158015610adb573d6000803e3d6000fd5b505050506040513d6020811015610af157600080fd5b50506040805184815290516001600160a01b03808716928992918916917f0f33a1a72e43d41e42bd01b14efb34d5da30de8eb5b88d502a6b58cb214462679181900360200190a450600195945050505050565b610b4c610ca3565b6003546001600160a01b03908116911614610b9c576040805162461bcd60e51b81526020600482018190526024820152600080516020610fc3833981519152604482015290519081900360640190fd5b6001600160a01b038116610be15760405162461bcd60e51b8152600401808060200182810382526026815260200180610f776026913960400191505060405180910390fd5b6003546040516001600160a01b038084169216907f8be0079c531659141344cd1fd0a4f28419497f9722a3daafe3b4186f6b6457e090600090a3600380546001600160a01b0319166001600160a01b0392909216919091179055565b3b151590565b604080516001600160a01b0380861660248301528416604482015260648082018490528251808303909101815260849091019091526020810180516001600160e01b03166323b872dd60e01b179052610c9d908590610ca7565b50505050565b3390565b6060610cfc826040518060400160405280602081526020017f5361666545524332303a206c6f772d6c6576656c2063616c6c206661696c6564815250856001600160a01b0316610d5d9092919063ffffffff16565b805190915015610d5857808060200190516020811015610d1b57600080fd5b5051610d585760405162461bcd60e51b815260040180806020018281038252602a815260200180610fe3602a913960400191505060405180910390fd5b505050565b6060610d6c8484600085610d76565b90505b9392505050565b606082471015610db75760405162461bcd60e51b8152600401808060200182810382526026815260200180610f9d6026913960400191505060405180910390fd5b610dc085610c3d565b610e11576040805162461bcd60e51b815260206004820152601d60248201527f416464726573733a2063616c6c20746f206e6f6e2d636f6e7472616374000000604482015290519081900360640190fd5b60006060866001600160a01b031685876040518082805190602001908083835b60208310610e505780518252601f199092019160209182019101610e31565b6001836020036101000a03801982511681845116808217855250505050505090500191505060006040518083038185875af1925050503d8060008114610eb2576040519150601f19603f3d011682016040523d82523d6000602084013e610eb7565b606091505b5091509150610ec7828286610ed2565b979650505050505050565b60608315610ee1575081610d6f565b825115610ef15782518084602001fd5b8160405162461bcd60e51b81526004018080602001828103825283818151815260200191508051906020019080838360005b83811015610f3b578181015183820152602001610f23565b50505050905090810190601f168015610f685780820380516001836020036101000a031916815260200191505b509250505060405180910390fdfe4f776e61626c653a206e6577206f776e657220697320746865207a65726f2061646472657373416464726573733a20696e73756666696369656e742062616c616e636520666f722063616c6c4f776e61626c653a2063616c6c6572206973206e6f7420746865206f776e65725361666545524332303a204552433230206f7065726174696f6e20646964206e6f742073756363656564a2646970667358221220eb1286b464bd4fd8676f81bb1d846006a74180b260d38521e2dc16a4cd103c7e64736f6c63430006040033",
  "source": "pragma solidity 0.6.4;\n\nimport \"./interfaces/ISphynxSwap.sol\";\nimport \"./interfaces/ISphynxBEP20.sol\";\nimport \"./bep20/BEP20SphynxUpgradeableProxy.sol\";\nimport './interfaces/ISphynxProxyInitialize.sol';\nimport \"openzeppelin-solidity/contracts/token/ERC20/SafeERC20.sol\";\n\nimport \"openzeppelin-solidity/contracts/GSN/Context.sol\";\n\ncontract  BSCSphynxSwapAgentImpl is Context {\n\n\n    using SafeERC20 for IERC20;\n\n    mapping(address => address) public swapMappingETH2BSC;\n    mapping(address => address) public swapMappingBSC2ETH;\n    mapping(bytes32 => bool) public filledETHTx;\n\n    address payable public owner;\n    address public bep20ProxyAdmin;\n    address public bep20Implementation;\n    uint256 public swapFee;\n\n    event OwnershipTransferred(address indexed previousOwner, address indexed newOwner);\n    event SphynxSwapPairCreated(bytes32 indexed ethRegisterTxHash, address indexed bep20Addr, address indexed erc20Addr, string symbol, string name, uint8 decimals);\n    event SphynxSwapStarted(address indexed bep20Addr, address indexed erc20Addr, address indexed fromAddr, uint256 amount, uint256 feeAmount);\n    event SphynxSwapFilled(address indexed bep20Addr, bytes32 indexed ethTxHash, address indexed toAddress, uint256 amount);\n\n    constructor(address bep20Impl, uint256 fee, address bep20ProxyAdminAddr) public {\n        bep20Implementation = bep20Impl;\n        swapFee = fee;\n        owner = _msgSender();\n        bep20ProxyAdmin = bep20ProxyAdminAddr;\n    }\n\n    /**\n     * @dev Throws if called by any account other than the owner.\n     */\n    modifier onlyOwner() {\n        require(owner == _msgSender(), \"Ownable: caller is not the owner\");\n        _;\n    }\n\n    modifier notContract() {\n        require(!isContract(msg.sender), \"contract is not allowed to swap\");\n        require(msg.sender == tx.origin, \"no proxy contract is allowed\");\n       _;\n    }\n\n\n\n\n    function isContract(address addr) internal view returns (bool) {\n        uint size;\n        assembly { size := extcodesize(addr) }\n        return size > 0;\n    }\n\n    /**\n    * @dev Leaves the contract without owner. It will not be possible to call\n    * `onlyOwner` functions anymore. Can only be called by the current owner.\n    *\n    * NOTE: Renouncing ownership will leave the contract without an owner,\n    * thereby removing any functionality that is only available to the owner.\n    */\n    function renounceOwnership() public onlyOwner {\n        emit OwnershipTransferred(owner, address(0));\n        owner = address(0);\n    }\n\n    /**\n     * @dev Transfers ownership of the contract to a new account (`newOwner`).\n     * Can only be called by the current owner.\n     */\n    function transferOwnership(address payable newOwner) public onlyOwner {\n        require(newOwner != address(0), \"Ownable: new owner is the zero address\");\n        emit OwnershipTransferred(owner, newOwner);\n        owner = newOwner;\n    }\n\n    /**\n     * @dev Returns set minimum swap fee from BEP20 to ERC20\n     */\n    function setSwapFee(uint256 fee) onlyOwner external {\n        swapFee = fee;\n    }\n\n    function createSwapPair(bytes32 ethTxHash, address erc20Addr, address bep20Addr, string calldata name, string calldata symbol, uint8 decimals) onlyOwner external returns (address) {\n        require(swapMappingETH2BSC[erc20Addr] == address(0x0), \"duplicated swap pair\");\n        swapMappingETH2BSC[erc20Addr] = bep20Addr;\n        swapMappingBSC2ETH[bep20Addr] = erc20Addr;\n        emit SphynxSwapPairCreated(ethTxHash, swapMappingETH2BSC[erc20Addr], erc20Addr, symbol, name, decimals);\n        return swapMappingETH2BSC[erc20Addr];\n    }\n\n    /**\n     * @dev fillETH2BSCSwap\n     */\n    function fillETH2BSCSwap(bytes32 ethTxHash, address erc20Addr, address toAddress, uint256 amount) onlyOwner external returns (bool) {\n        require(!filledETHTx[ethTxHash], \"eth tx filled already\");\n        address bscTokenAddr = swapMappingETH2BSC[erc20Addr];\n        require(bscTokenAddr != address(0x0), \"no swap pair for this token\");\n        filledETHTx[ethTxHash] = true;\n        ISphynxBEP20(bscTokenAddr).transferFrom(address(this), toAddress, amount);\n        emit SphynxSwapFilled(erc20Addr, ethTxHash, toAddress, amount);\n        return true;\n    }\n    /**\n     * @dev swapBSC2ETH\n     */\n    function swapBSC2ETH(address bep20Addr, uint256 amount) payable external notContract returns (bool) {\n        address erc20Addr = swapMappingBSC2ETH[bep20Addr];\n        require(erc20Addr != address(0x0), \"no swap pair for this token\");\n        require(msg.value == swapFee, \"swap fee not equal\");\n\n        IERC20(bep20Addr).safeTransferFrom(msg.sender, address(this), amount);\n        if (msg.value != 0) {\n            owner.transfer(msg.value);\n        }\n        emit SphynxSwapStarted(bep20Addr, erc20Addr, msg.sender, amount, msg.value);\n        return true;\n    }\n}",
  "sourcePath": "/home/dev1121/work/sphynx/eth-bsc-swap-contracts/contracts/BSCSphynxSwapAgentImpl.sol",
  "compiler": {
    "name": "solc",
    "version": "0.6.4+commit.1dca32f3.Emscripten.clang"
  },
  "schemaVersion": "3.4.3",
  "updatedAt": "2021-10-28T05:24:18.480Z",
  "networkType": "ethereum",
  "devdoc": {
    "methods": {
      "fillETH2BSCSwap(bytes32,address,address,uint256)": {
        "details": "fillETH2BSCSwap"
      },
      "renounceOwnership()": {
        "details": "Leaves the contract without owner. It will not be possible to call `onlyOwner` functions anymore. Can only be called by the current owner.    * NOTE: Renouncing ownership will leave the contract without an owner, thereby removing any functionality that is only available to the owner."
      },
      "setSwapFee(uint256)": {
        "details": "Returns set minimum swap fee from BEP20 to ERC20"
      },
      "swapBSC2ETH(address,uint256)": {
        "details": "swapBSC2ETH"
      },
      "transferOwnership(address)": {
        "details": "Transfers ownership of the contract to a new account (`newOwner`). Can only be called by the current owner."
      }
    }
  },
  "userdoc": {
    "methods": {}
  }
}