{
  "contractName": "ETHSphynxSwapAgentImpl",
  "abi": [
    {
      "inputs": [
        {
          "internalType": "uint256",
          "name": "fee",
          "type": "uint256"
        }
      ],
      "stateMutability": "nonpayable",
      "type": "constructor"
    },
    {
      "anonymous": false,
      "inputs": [
        {
          "indexed": true,
          "internalType": "address",
          "name": "previousOwner",
          "type": "address"
        },
        {
          "indexed": true,
          "internalType": "address",
          "name": "newOwner",
          "type": "address"
        }
      ],
      "name": "OwnershipTransferred",
      "type": "event"
    },
    {
      "anonymous": false,
      "inputs": [
        {
          "indexed": true,
          "internalType": "address",
          "name": "erc20Addr",
          "type": "address"
        },
        {
          "indexed": true,
          "internalType": "bytes32",
          "name": "bscTxHash",
          "type": "bytes32"
        },
        {
          "indexed": true,
          "internalType": "address",
          "name": "toAddress",
          "type": "address"
        },
        {
          "indexed": false,
          "internalType": "uint256",
          "name": "amount",
          "type": "uint256"
        }
      ],
      "name": "SphynxSwapFilled",
      "type": "event"
    },
    {
      "anonymous": false,
      "inputs": [
        {
          "indexed": true,
          "internalType": "address",
          "name": "sponsor",
          "type": "address"
        },
        {
          "indexed": true,
          "internalType": "address",
          "name": "erc20Addr",
          "type": "address"
        },
        {
          "indexed": true,
          "internalType": "address",
          "name": "bep20Addr",
          "type": "address"
        },
        {
          "indexed": false,
          "internalType": "string",
          "name": "name",
          "type": "string"
        },
        {
          "indexed": false,
          "internalType": "string",
          "name": "symbol",
          "type": "string"
        },
        {
          "indexed": false,
          "internalType": "uint8",
          "name": "decimals",
          "type": "uint8"
        }
      ],
      "name": "SphynxSwapPairRegister",
      "type": "event"
    },
    {
      "anonymous": false,
      "inputs": [
        {
          "indexed": true,
          "internalType": "address",
          "name": "erc20Addr",
          "type": "address"
        },
        {
          "indexed": true,
          "internalType": "address",
          "name": "fromAddr",
          "type": "address"
        },
        {
          "indexed": false,
          "internalType": "uint256",
          "name": "amount",
          "type": "uint256"
        },
        {
          "indexed": false,
          "internalType": "uint256",
          "name": "feeAmount",
          "type": "uint256"
        }
      ],
      "name": "SphynxSwapStarted",
      "type": "event"
    },
    {
      "inputs": [
        {
          "internalType": "bytes32",
          "name": "",
          "type": "bytes32"
        }
      ],
      "name": "filledBSCTx",
      "outputs": [
        {
          "internalType": "bool",
          "name": "",
          "type": "bool"
        }
      ],
      "stateMutability": "view",
      "type": "function",
      "constant": true
    },
    {
      "inputs": [],
      "name": "owner",
      "outputs": [
        {
          "internalType": "address payable",
          "name": "",
          "type": "address"
        }
      ],
      "stateMutability": "view",
      "type": "function",
      "constant": true
    },
    {
      "inputs": [
        {
          "internalType": "address",
          "name": "",
          "type": "address"
        }
      ],
      "name": "registeredERC20",
      "outputs": [
        {
          "internalType": "bool",
          "name": "",
          "type": "bool"
        }
      ],
      "stateMutability": "view",
      "type": "function",
      "constant": true
    },
    {
      "inputs": [],
      "name": "swapFee",
      "outputs": [
        {
          "internalType": "uint256",
          "name": "",
          "type": "uint256"
        }
      ],
      "stateMutability": "view",
      "type": "function",
      "constant": true
    },
    {
      "inputs": [],
      "name": "renounceOwnership",
      "outputs": [],
      "stateMutability": "nonpayable",
      "type": "function"
    },
    {
      "inputs": [
        {
          "internalType": "address payable",
          "name": "newOwner",
          "type": "address"
        }
      ],
      "name": "transferOwnership",
      "outputs": [],
      "stateMutability": "nonpayable",
      "type": "function"
    },
    {
      "inputs": [
        {
          "internalType": "uint256",
          "name": "fee",
          "type": "uint256"
        }
      ],
      "name": "setSwapFee",
      "outputs": [],
      "stateMutability": "nonpayable",
      "type": "function"
    },
    {
      "inputs": [
        {
          "internalType": "address",
          "name": "erc20Addr",
          "type": "address"
        },
        {
          "internalType": "address",
          "name": "bep20Addr",
          "type": "address"
        }
      ],
      "name": "registerSwapPairToBSC",
      "outputs": [
        {
          "internalType": "bool",
          "name": "",
          "type": "bool"
        }
      ],
      "stateMutability": "nonpayable",
      "type": "function"
    },
    {
      "inputs": [
        {
          "internalType": "bytes32",
          "name": "bscTxHash",
          "type": "bytes32"
        },
        {
          "internalType": "address",
          "name": "erc20Addr",
          "type": "address"
        },
        {
          "internalType": "address",
          "name": "toAddress",
          "type": "address"
        },
        {
          "internalType": "uint256",
          "name": "amount",
          "type": "uint256"
        }
      ],
      "name": "fillBSC2ETHSwap",
      "outputs": [
        {
          "internalType": "bool",
          "name": "",
          "type": "bool"
        }
      ],
      "stateMutability": "nonpayable",
      "type": "function"
    },
    {
      "inputs": [
        {
          "internalType": "address",
          "name": "erc20Addr",
          "type": "address"
        },
        {
          "internalType": "uint256",
          "name": "amount",
          "type": "uint256"
        }
      ],
      "name": "swapETH2BSC",
      "outputs": [
        {
          "internalType": "bool",
          "name": "",
          "type": "bool"
        }
      ],
      "stateMutability": "payable",
      "type": "function",
      "payable": true
    }
  ],
  "bytecode": "0x608060405234801561001057600080fd5b506040516111e43803806111e48339818101604052602081101561003357600080fd5b5051600381905561004b6001600160e01b0361007116565b600280546001600160a01b0319166001600160a01b039290921691909117905550610075565b3390565b611160806100846000396000f3fe6080604052600436106100915760003560e01c806389b156041161005957806389b15604146101775780638da5cb5b146101aa5780639867df11146101db578063b9927a9c14610224578063f2fde38b1461025057610091565b806334e199071461009657806350877c77146100c257806354403d591461010057806354cf2aeb1461013b578063715018a614610162575b600080fd5b3480156100a257600080fd5b506100c0600480360360208110156100b957600080fd5b5035610283565b005b3480156100ce57600080fd5b506100ec600480360360208110156100e557600080fd5b50356102e0565b604080519115158252519081900360200190f35b34801561010c57600080fd5b506100ec6004803603604081101561012357600080fd5b506001600160a01b03813581169160200135166102f5565b34801561014757600080fd5b506101506107e0565b60408051918252519081900360200190f35b34801561016e57600080fd5b506100c06107e6565b34801561018357600080fd5b506100ec6004803603602081101561019a57600080fd5b50356001600160a01b0316610888565b3480156101b657600080fd5b506101bf61089d565b604080516001600160a01b039092168252519081900360200190f35b3480156101e757600080fd5b506100ec600480360360808110156101fe57600080fd5b508035906001600160a01b036020820135811691604081013590911690606001356108ac565b6100ec6004803603604081101561023a57600080fd5b506001600160a01b038135169060200135610a54565b34801561025c57600080fd5b506100c06004803603602081101561027357600080fd5b50356001600160a01b0316610c62565b61028b610d5b565b6002546001600160a01b039081169116146102db576040805162461bcd60e51b815260206004820181905260248201526000805160206110e1833981519152604482015290519081900360640190fd5b600355565b60016020526000908152604090205460ff1681565b6001600160a01b03821660009081526020819052604081205460ff1615610358576040805162461bcd60e51b8152602060048201526012602482015271185b1c9958591e481c9959da5cdd195c995960721b604482015290519081900360640190fd5b6060836001600160a01b03166306fdde036040518163ffffffff1660e01b815260040160006040518083038186803b15801561039357600080fd5b505afa1580156103a7573d6000803e3d6000fd5b505050506040513d6000823e601f3d908101601f1916820160405260208110156103d057600080fd5b81019080805160405193929190846401000000008211156103f057600080fd5b90830190602082018581111561040557600080fd5b825164010000000081118282018810171561041f57600080fd5b82525081516020918201929091019080838360005b8381101561044c578181015183820152602001610434565b50505050905090810190601f1680156104795780820380516001836020036101000a031916815260200191505b5060405250505090506060846001600160a01b03166395d89b416040518163ffffffff1660e01b815260040160006040518083038186803b1580156104bd57600080fd5b505afa1580156104d1573d6000803e3d6000fd5b505050506040513d6000823e601f3d908101601f1916820160405260208110156104fa57600080fd5b810190808051604051939291908464010000000082111561051a57600080fd5b90830190602082018581111561052f57600080fd5b825164010000000081118282018810171561054957600080fd5b82525081516020918201929091019080838360005b8381101561057657818101518382015260200161055e565b50505050905090810190601f1680156105a35780820380516001836020036101000a031916815260200191505b5060405250505090506000856001600160a01b031663313ce5676040518163ffffffff1660e01b815260040160206040518083038186803b1580156105e757600080fd5b505afa1580156105fb573d6000803e3d6000fd5b505050506040513d602081101561061157600080fd5b50518351909150610656576040805162461bcd60e51b815260206004820152600a602482015269656d707479206e616d6560b01b604482015290519081900360640190fd5b600082511161069b576040805162461bcd60e51b815260206004820152600c60248201526b195b5c1d1e481cde5b589bdb60a21b604482015290519081900360640190fd5b6001600160a01b03808716600081815260208181526040808320805460ff19166001179055805160ff87169181019190915260608082528851908201528751948a169433937f06101386f3a9dd45570dce2027311173d0e136955e5b912edece89cca5bb526d938a938a938a93919283928382019260808501928901918190849084905b8381101561073757818101518382015260200161071f565b50505050905090810190601f1680156107645780820380516001836020036101000a031916815260200191505b50838103825285518152855160209182019187019080838360005b8381101561079757818101518382015260200161077f565b50505050905090810190601f1680156107c45780820380516001836020036101000a031916815260200191505b509550505050505060405180910390a450600195945050505050565b60035481565b6107ee610d5b565b6002546001600160a01b0390811691161461083e576040805162461bcd60e51b815260206004820181905260248201526000805160206110e1833981519152604482015290519081900360640190fd5b6002546040516000916001600160a01b0316907f8be0079c531659141344cd1fd0a4f28419497f9722a3daafe3b4186f6b6457e0908390a3600280546001600160a01b0319169055565b60006020819052908152604090205460ff1681565b6002546001600160a01b031681565b60006108b6610d5b565b6002546001600160a01b03908116911614610906576040805162461bcd60e51b815260206004820181905260248201526000805160206110e1833981519152604482015290519081900360640190fd5b60008581526001602052604090205460ff1615610962576040805162461bcd60e51b81526020600482015260156024820152746273632074782066696c6c656420616c726561647960581b604482015290519081900360640190fd5b6001600160a01b03841660009081526020819052604090205460ff166109c6576040805162461bcd60e51b81526020600482015260146024820152733737ba103932b3b4b9ba32b932b2103a37b5b2b760611b604482015290519081900360640190fd5b6000858152600160208190526040909120805460ff191690911790556109fd6001600160a01b03851630858563ffffffff610d5f16565b826001600160a01b031685856001600160a01b03167f0f33a1a72e43d41e42bd01b14efb34d5da30de8eb5b88d502a6b58cb21446267856040518082815260200191505060405180910390a4506001949350505050565b6000610a5f33610dbf565b15610ab1576040805162461bcd60e51b815260206004820152601f60248201527f636f6e7472616374206973206e6f7420616c6c6f77656420746f207377617000604482015290519081900360640190fd5b333214610b05576040805162461bcd60e51b815260206004820152601c60248201527f6e6f2070726f787920636f6e747261637420697320616c6c6f77656400000000604482015290519081900360640190fd5b6001600160a01b03831660009081526020819052604090205460ff16610b69576040805162461bcd60e51b81526020600482015260146024820152733737ba103932b3b4b9ba32b932b2103a37b5b2b760611b604482015290519081900360640190fd5b6003543414610bb4576040805162461bcd60e51b81526020600482015260126024820152711cddd85c08199959481b9bdd08195c5d585b60721b604482015290519081900360640190fd5b82610bd06001600160a01b03821633308663ffffffff610d5f16565b3415610c11576002546040516001600160a01b03909116903480156108fc02916000818181858888f19350505050158015610c0f573d6000803e3d6000fd5b505b60408051848152346020820152815133926001600160a01b038816927f833cb5872c808322e8666b65ac48146042bc300435300238bb929b559b9e1f6a929081900390910190a35060019392505050565b610c6a610d5b565b6002546001600160a01b03908116911614610cba576040805162461bcd60e51b815260206004820181905260248201526000805160206110e1833981519152604482015290519081900360640190fd5b6001600160a01b038116610cff5760405162461bcd60e51b81526004018080602001828103825260268152602001806110956026913960400191505060405180910390fd5b6002546040516001600160a01b038084169216907f8be0079c531659141344cd1fd0a4f28419497f9722a3daafe3b4186f6b6457e090600090a3600280546001600160a01b0319166001600160a01b0392909216919091179055565b3390565b604080516001600160a01b0380861660248301528416604482015260648082018490528251808303909101815260849091019091526020810180516001600160e01b03166323b872dd60e01b179052610db9908590610dc5565b50505050565b3b151590565b6060610e1a826040518060400160405280602081526020017f5361666545524332303a206c6f772d6c6576656c2063616c6c206661696c6564815250856001600160a01b0316610e7b9092919063ffffffff16565b805190915015610e7657808060200190516020811015610e3957600080fd5b5051610e765760405162461bcd60e51b815260040180806020018281038252602a815260200180611101602a913960400191505060405180910390fd5b505050565b6060610e8a8484600085610e94565b90505b9392505050565b606082471015610ed55760405162461bcd60e51b81526004018080602001828103825260268152602001806110bb6026913960400191505060405180910390fd5b610ede85610dbf565b610f2f576040805162461bcd60e51b815260206004820152601d60248201527f416464726573733a2063616c6c20746f206e6f6e2d636f6e7472616374000000604482015290519081900360640190fd5b60006060866001600160a01b031685876040518082805190602001908083835b60208310610f6e5780518252601f199092019160209182019101610f4f565b6001836020036101000a03801982511681845116808217855250505050505090500191505060006040518083038185875af1925050503d8060008114610fd0576040519150601f19603f3d011682016040523d82523d6000602084013e610fd5565b606091505b5091509150610fe5828286610ff0565b979650505050505050565b60608315610fff575081610e8d565b82511561100f5782518084602001fd5b8160405162461bcd60e51b81526004018080602001828103825283818151815260200191508051906020019080838360005b83811015611059578181015183820152602001611041565b50505050905090810190601f1680156110865780820380516001836020036101000a031916815260200191505b509250505060405180910390fdfe4f776e61626c653a206e6577206f776e657220697320746865207a65726f2061646472657373416464726573733a20696e73756666696369656e742062616c616e636520666f722063616c6c4f776e61626c653a2063616c6c6572206973206e6f7420746865206f776e65725361666545524332303a204552433230206f7065726174696f6e20646964206e6f742073756363656564a264697066735822122070af347bad1a5f3b69861d3659052aeadb8b8ed2298d2a256d8b954ca910646664736f6c63430006040033",
  "source": "pragma solidity 0.6.4;\n\nimport \"./interfaces/ISphynxERC20Query.sol\";\n\nimport \"openzeppelin-solidity/contracts/GSN/Context.sol\";\nimport \"openzeppelin-solidity/contracts/token/ERC20/SafeERC20.sol\";\n\ncontract ETHSphynxSwapAgentImpl is Context {\n\n    using SafeERC20 for IERC20;\n\n    mapping(address => bool) public registeredERC20;\n    mapping(bytes32 => bool) public filledBSCTx;\n    address payable public owner;\n    uint256 public swapFee;\n\n    event OwnershipTransferred(address indexed previousOwner, address indexed newOwner);\n    event SphynxSwapPairRegister(address indexed sponsor, address indexed erc20Addr, address indexed bep20Addr, string name, string symbol, uint8 decimals);\n    event SphynxSwapStarted(address indexed erc20Addr, address indexed fromAddr, uint256 amount, uint256 feeAmount);\n    event SphynxSwapFilled(address indexed erc20Addr, bytes32 indexed bscTxHash, address indexed toAddress, uint256 amount);\n\n    constructor(uint256 fee) public {\n        swapFee = fee;\n        owner = _msgSender();\n    }\n\n    /**\n     * @dev Throws if called by any account other than the owner.\n     */\n    modifier onlyOwner() {\n        require(owner == _msgSender(), \"Ownable: caller is not the owner\");\n        _;\n    }\n\n    modifier notContract() {\n        require(!isContract(msg.sender), \"contract is not allowed to swap\");\n        require(msg.sender == tx.origin, \"no proxy contract is allowed\");\n       _;\n    }\n\n    function isContract(address addr) internal view returns (bool) {\n        uint size;\n        assembly { size := extcodesize(addr) }\n        return size > 0;\n    }\n\n    /**\n        * @dev Leaves the contract without owner. It will not be possible to call\n        * `onlyOwner` functions anymore. Can only be called by the current owner.\n        *\n        * NOTE: Renouncing ownership will leave the contract without an owner,\n        * thereby removing any functionality that is only available to the owner.\n        */\n    function renounceOwnership() public onlyOwner {\n        emit OwnershipTransferred(owner, address(0));\n        owner = address(0);\n    }\n\n    /**\n     * @dev Transfers ownership of the contract to a new account (`newOwner`).\n     * Can only be called by the current owner.\n     */\n    function transferOwnership(address payable newOwner) public onlyOwner {\n        require(newOwner != address(0), \"Ownable: new owner is the zero address\");\n        emit OwnershipTransferred(owner, newOwner);\n        owner = newOwner;\n    }\n\n    /**\n     * @dev Returns set minimum swap fee from ERC20 to BEP20\n     */\n    function setSwapFee(uint256 fee) onlyOwner external {\n        swapFee = fee;\n    }\n\n    function registerSwapPairToBSC(address erc20Addr, address bep20Addr) external returns (bool) {\n       require(!registeredERC20[erc20Addr], \"already registered\");\n\n        string memory name = ISphynxERC20Query(erc20Addr).name();\n        string memory symbol = ISphynxERC20Query(erc20Addr).symbol();\n        uint8 decimals = ISphynxERC20Query(erc20Addr).decimals();\n\n        require(bytes(name).length>0, \"empty name\");\n        require(bytes(symbol).length>0, \"empty symbol\");\n\n        registeredERC20[erc20Addr] = true;\n\n        emit SphynxSwapPairRegister(msg.sender, erc20Addr, bep20Addr, name, symbol, decimals);\n        return true;\n    }\n\n    function fillBSC2ETHSwap(bytes32 bscTxHash, address erc20Addr, address toAddress, uint256 amount) onlyOwner external returns (bool) {\n        require(!filledBSCTx[bscTxHash], \"bsc tx filled already\");\n        require(registeredERC20[erc20Addr], \"not registered token\");\n\n        filledBSCTx[bscTxHash] = true;\n        IERC20(erc20Addr).safeTransferFrom(address(this), toAddress, amount);\n\n        emit SphynxSwapFilled(erc20Addr, bscTxHash, toAddress, amount);\n        return true;\n    }\n\n    function swapETH2BSC(address erc20Addr, uint256 amount) payable external notContract returns (bool) {\n        require(registeredERC20[erc20Addr], \"not registered token\");\n        require(msg.value == swapFee, \"swap fee not equal\");\n\n        IERC20 token = IERC20(erc20Addr);\n        token.safeTransferFrom(msg.sender, address(this), amount);\n        if (msg.value != 0) {\n            owner.transfer(msg.value);\n        }\n        emit SphynxSwapStarted(erc20Addr, msg.sender, amount, msg.value);\n        return true;\n    }\n}",
  "sourcePath": "/home/dev1121/work/sphynx/eth-bsc-swap-contracts/contracts/ETHSphynxSwapAgentImpl.sol",
  "compiler": {
    "name": "solc",
    "version": "0.6.4+commit.1dca32f3.Emscripten.clang"
  },
  "schemaVersion": "3.4.3",
  "updatedAt": "2021-10-28T05:24:18.492Z",
  "networkType": "ethereum",
  "devdoc": {
    "methods": {
      "renounceOwnership()": {
        "details": "Leaves the contract without owner. It will not be possible to call `onlyOwner` functions anymore. Can only be called by the current owner.        * NOTE: Renouncing ownership will leave the contract without an owner, thereby removing any functionality that is only available to the owner."
      },
      "setSwapFee(uint256)": {
        "details": "Returns set minimum swap fee from ERC20 to BEP20"
      },
      "transferOwnership(address)": {
        "details": "Transfers ownership of the contract to a new account (`newOwner`). Can only be called by the current owner."
      }
    }
  },
  "userdoc": {
    "methods": {}
  }
}