{
  "contractName": "SphynxSwapLottery",
  "abi": [
    {
      "inputs": [
        {
          "internalType": "address",
          "name": "_sphynxTokenAddress",
          "type": "address"
        },
        {
          "internalType": "address",
          "name": "_randomGeneratorAddress",
          "type": "address"
        }
      ],
      "stateMutability": "nonpayable",
      "type": "constructor"
    },
    {
      "anonymous": false,
      "inputs": [
        {
          "indexed": false,
          "internalType": "address",
          "name": "token",
          "type": "address"
        },
        {
          "indexed": false,
          "internalType": "uint256",
          "name": "amount",
          "type": "uint256"
        }
      ],
      "name": "AdminTokenRecovery",
      "type": "event"
    },
    {
      "anonymous": false,
      "inputs": [
        {
          "indexed": true,
          "internalType": "uint256",
          "name": "lotteryId",
          "type": "uint256"
        },
        {
          "indexed": false,
          "internalType": "uint256",
          "name": "firstTicketIdNextLottery",
          "type": "uint256"
        }
      ],
      "name": "LotteryClose",
      "type": "event"
    },
    {
      "anonymous": false,
      "inputs": [
        {
          "indexed": true,
          "internalType": "uint256",
          "name": "lotteryId",
          "type": "uint256"
        },
        {
          "indexed": false,
          "internalType": "uint256",
          "name": "injectedAmount",
          "type": "uint256"
        }
      ],
      "name": "LotteryInjection",
      "type": "event"
    },
    {
      "anonymous": false,
      "inputs": [
        {
          "indexed": true,
          "internalType": "uint256",
          "name": "lotteryId",
          "type": "uint256"
        },
        {
          "indexed": false,
          "internalType": "uint256",
          "name": "finalNumber",
          "type": "uint256"
        },
        {
          "indexed": false,
          "internalType": "uint256",
          "name": "countWinningTickets",
          "type": "uint256"
        }
      ],
      "name": "LotteryNumberDrawn",
      "type": "event"
    },
    {
      "anonymous": false,
      "inputs": [
        {
          "indexed": true,
          "internalType": "uint256",
          "name": "lotteryId",
          "type": "uint256"
        },
        {
          "indexed": false,
          "internalType": "uint256",
          "name": "startTime",
          "type": "uint256"
        },
        {
          "indexed": false,
          "internalType": "uint256",
          "name": "endTime",
          "type": "uint256"
        },
        {
          "indexed": false,
          "internalType": "uint256",
          "name": "priceTicketInSphynx",
          "type": "uint256"
        },
        {
          "indexed": false,
          "internalType": "uint256",
          "name": "firstTicketId",
          "type": "uint256"
        },
        {
          "indexed": false,
          "internalType": "uint256",
          "name": "injectedAmount",
          "type": "uint256"
        }
      ],
      "name": "LotteryOpen",
      "type": "event"
    },
    {
      "anonymous": false,
      "inputs": [
        {
          "indexed": false,
          "internalType": "address",
          "name": "operator",
          "type": "address"
        },
        {
          "indexed": false,
          "internalType": "address",
          "name": "treasury",
          "type": "address"
        },
        {
          "indexed": false,
          "internalType": "address",
          "name": "injector",
          "type": "address"
        }
      ],
      "name": "NewOperatorAndTreasuryAndInjectorAddresses",
      "type": "event"
    },
    {
      "anonymous": false,
      "inputs": [
        {
          "indexed": true,
          "internalType": "address",
          "name": "randomGenerator",
          "type": "address"
        }
      ],
      "name": "NewRandomGenerator",
      "type": "event"
    },
    {
      "anonymous": false,
      "inputs": [
        {
          "indexed": true,
          "internalType": "address",
          "name": "previousOwner",
          "type": "address"
        },
        {
          "indexed": true,
          "internalType": "address",
          "name": "newOwner",
          "type": "address"
        }
      ],
      "name": "OwnershipTransferred",
      "type": "event"
    },
    {
      "anonymous": false,
      "inputs": [
        {
          "indexed": true,
          "internalType": "address",
          "name": "claimer",
          "type": "address"
        },
        {
          "indexed": false,
          "internalType": "uint256",
          "name": "amount",
          "type": "uint256"
        },
        {
          "indexed": true,
          "internalType": "uint256",
          "name": "lotteryId",
          "type": "uint256"
        },
        {
          "indexed": false,
          "internalType": "uint256",
          "name": "numberTickets",
          "type": "uint256"
        }
      ],
      "name": "TicketsClaim",
      "type": "event"
    },
    {
      "anonymous": false,
      "inputs": [
        {
          "indexed": true,
          "internalType": "address",
          "name": "buyer",
          "type": "address"
        },
        {
          "indexed": true,
          "internalType": "uint256",
          "name": "lotteryId",
          "type": "uint256"
        },
        {
          "indexed": false,
          "internalType": "uint256",
          "name": "numberTickets",
          "type": "uint256"
        }
      ],
      "name": "TicketsPurchase",
      "type": "event"
    },
    {
      "inputs": [],
      "name": "MAX_LENGTH_LOTTERY",
      "outputs": [
        {
          "internalType": "uint256",
          "name": "",
          "type": "uint256"
        }
      ],
      "stateMutability": "view",
      "type": "function",
      "constant": true
    },
    {
      "inputs": [],
      "name": "MAX_TREASURY_FEE",
      "outputs": [
        {
          "internalType": "uint256",
          "name": "",
          "type": "uint256"
        }
      ],
      "stateMutability": "view",
      "type": "function",
      "constant": true
    },
    {
      "inputs": [],
      "name": "MIN_DISCOUNT_DIVISOR",
      "outputs": [
        {
          "internalType": "uint256",
          "name": "",
          "type": "uint256"
        }
      ],
      "stateMutability": "view",
      "type": "function",
      "constant": true
    },
    {
      "inputs": [],
      "name": "MIN_LENGTH_LOTTERY",
      "outputs": [
        {
          "internalType": "uint256",
          "name": "",
          "type": "uint256"
        }
      ],
      "stateMutability": "view",
      "type": "function",
      "constant": true
    },
    {
      "inputs": [],
      "name": "currentLotteryId",
      "outputs": [
        {
          "internalType": "uint256",
          "name": "",
          "type": "uint256"
        }
      ],
      "stateMutability": "view",
      "type": "function",
      "constant": true
    },
    {
      "inputs": [],
      "name": "currentTicketId",
      "outputs": [
        {
          "internalType": "uint256",
          "name": "",
          "type": "uint256"
        }
      ],
      "stateMutability": "view",
      "type": "function",
      "constant": true
    },
    {
      "inputs": [],
      "name": "injectorAddress",
      "outputs": [
        {
          "internalType": "address",
          "name": "",
          "type": "address"
        }
      ],
      "stateMutability": "view",
      "type": "function",
      "constant": true
    },
    {
      "inputs": [],
      "name": "maxNumberTicketsPerBuyOrClaim",
      "outputs": [
        {
          "internalType": "uint256",
          "name": "",
          "type": "uint256"
        }
      ],
      "stateMutability": "view",
      "type": "function",
      "constant": true
    },
    {
      "inputs": [],
      "name": "maxPriceTicketInSphynx",
      "outputs": [
        {
          "internalType": "uint256",
          "name": "",
          "type": "uint256"
        }
      ],
      "stateMutability": "view",
      "type": "function",
      "constant": true
    },
    {
      "inputs": [],
      "name": "minPriceTicketInSphynx",
      "outputs": [
        {
          "internalType": "uint256",
          "name": "",
          "type": "uint256"
        }
      ],
      "stateMutability": "view",
      "type": "function",
      "constant": true
    },
    {
      "inputs": [],
      "name": "operatorAddress",
      "outputs": [
        {
          "internalType": "address",
          "name": "",
          "type": "address"
        }
      ],
      "stateMutability": "view",
      "type": "function",
      "constant": true
    },
    {
      "inputs": [],
      "name": "owner",
      "outputs": [
        {
          "internalType": "address",
          "name": "",
          "type": "address"
        }
      ],
      "stateMutability": "view",
      "type": "function",
      "constant": true
    },
    {
      "inputs": [],
      "name": "pendingInjectionNextLottery",
      "outputs": [
        {
          "internalType": "uint256",
          "name": "",
          "type": "uint256"
        }
      ],
      "stateMutability": "view",
      "type": "function",
      "constant": true
    },
    {
      "inputs": [],
      "name": "randomGenerator",
      "outputs": [
        {
          "internalType": "contract IRandomNumberGenerator",
          "name": "",
          "type": "address"
        }
      ],
      "stateMutability": "view",
      "type": "function",
      "constant": true
    },
    {
      "inputs": [],
      "name": "renounceOwnership",
      "outputs": [],
      "stateMutability": "nonpayable",
      "type": "function"
    },
    {
      "inputs": [],
      "name": "sphynxToken",
      "outputs": [
        {
          "internalType": "contract IERC20",
          "name": "",
          "type": "address"
        }
      ],
      "stateMutability": "view",
      "type": "function",
      "constant": true
    },
    {
      "inputs": [
        {
          "internalType": "address",
          "name": "newOwner",
          "type": "address"
        }
      ],
      "name": "transferOwnership",
      "outputs": [],
      "stateMutability": "nonpayable",
      "type": "function"
    },
    {
      "inputs": [],
      "name": "treasuryAddress",
      "outputs": [
        {
          "internalType": "address",
          "name": "",
          "type": "address"
        }
      ],
      "stateMutability": "view",
      "type": "function",
      "constant": true
    },
    {
      "inputs": [
        {
          "internalType": "uint256",
          "name": "_lotteryId",
          "type": "uint256"
        },
        {
          "internalType": "uint32[]",
          "name": "_ticketNumbers",
          "type": "uint32[]"
        }
      ],
      "name": "buyTickets",
      "outputs": [],
      "stateMutability": "nonpayable",
      "type": "function"
    },
    {
      "inputs": [
        {
          "internalType": "uint256",
          "name": "_lotteryId",
          "type": "uint256"
        },
        {
          "internalType": "uint256[]",
          "name": "_ticketIds",
          "type": "uint256[]"
        },
        {
          "internalType": "uint32[]",
          "name": "_brackets",
          "type": "uint32[]"
        }
      ],
      "name": "claimTickets",
      "outputs": [],
      "stateMutability": "nonpayable",
      "type": "function"
    },
    {
      "inputs": [
        {
          "internalType": "uint256",
          "name": "_lotteryId",
          "type": "uint256"
        }
      ],
      "name": "closeLottery",
      "outputs": [],
      "stateMutability": "nonpayable",
      "type": "function"
    },
    {
      "inputs": [
        {
          "internalType": "uint256",
          "name": "_lotteryId",
          "type": "uint256"
        },
        {
          "internalType": "bool",
          "name": "_autoInjection",
          "type": "bool"
        }
      ],
      "name": "drawFinalNumberAndMakeLotteryClaimable",
      "outputs": [],
      "stateMutability": "nonpayable",
      "type": "function"
    },
    {
      "inputs": [
        {
          "internalType": "address",
          "name": "_randomGeneratorAddress",
          "type": "address"
        }
      ],
      "name": "changeRandomGenerator",
      "outputs": [],
      "stateMutability": "nonpayable",
      "type": "function"
    },
    {
      "inputs": [
        {
          "internalType": "uint256",
          "name": "_lotteryId",
          "type": "uint256"
        },
        {
          "internalType": "uint256",
          "name": "_amount",
          "type": "uint256"
        }
      ],
      "name": "injectFunds",
      "outputs": [],
      "stateMutability": "nonpayable",
      "type": "function"
    },
    {
      "inputs": [
        {
          "internalType": "uint256",
          "name": "_endTime",
          "type": "uint256"
        },
        {
          "internalType": "uint256",
          "name": "_priceTicketInSphynx",
          "type": "uint256"
        },
        {
          "internalType": "uint256",
          "name": "_discountDivisor",
          "type": "uint256"
        },
        {
          "internalType": "uint256[6]",
          "name": "_rewardsBreakdown",
          "type": "uint256[6]"
        },
        {
          "internalType": "uint256",
          "name": "_treasuryFee",
          "type": "uint256"
        }
      ],
      "name": "startLottery",
      "outputs": [],
      "stateMutability": "nonpayable",
      "type": "function"
    },
    {
      "inputs": [],
      "name": "getCurrentTime",
      "outputs": [
        {
          "internalType": "uint256",
          "name": "",
          "type": "uint256"
        }
      ],
      "stateMutability": "view",
      "type": "function",
      "constant": true
    },
    {
      "inputs": [
        {
          "internalType": "address",
          "name": "_tokenAddress",
          "type": "address"
        },
        {
          "internalType": "uint256",
          "name": "_tokenAmount",
          "type": "uint256"
        }
      ],
      "name": "recoverWrongTokens",
      "outputs": [],
      "stateMutability": "nonpayable",
      "type": "function"
    },
    {
      "inputs": [
        {
          "internalType": "uint256",
          "name": "_minPriceTicketInSphynx",
          "type": "uint256"
        },
        {
          "internalType": "uint256",
          "name": "_maxPriceTicketInSphynx",
          "type": "uint256"
        }
      ],
      "name": "setMinAndMaxTicketPriceInSphynx",
      "outputs": [],
      "stateMutability": "nonpayable",
      "type": "function"
    },
    {
      "inputs": [
        {
          "internalType": "uint256",
          "name": "_maxNumberTicketsPerBuy",
          "type": "uint256"
        }
      ],
      "name": "setMaxNumberTicketsPerBuy",
      "outputs": [],
      "stateMutability": "nonpayable",
      "type": "function"
    },
    {
      "inputs": [
        {
          "internalType": "address",
          "name": "_operatorAddress",
          "type": "address"
        },
        {
          "internalType": "address",
          "name": "_treasuryAddress",
          "type": "address"
        },
        {
          "internalType": "address",
          "name": "_injectorAddress",
          "type": "address"
        }
      ],
      "name": "setOperatorAndTreasuryAndInjectorAddresses",
      "outputs": [],
      "stateMutability": "nonpayable",
      "type": "function"
    },
    {
      "inputs": [
        {
          "internalType": "uint256",
          "name": "_discountDivisor",
          "type": "uint256"
        },
        {
          "internalType": "uint256",
          "name": "_priceTicket",
          "type": "uint256"
        },
        {
          "internalType": "uint256",
          "name": "_numberTickets",
          "type": "uint256"
        }
      ],
      "name": "calculateTotalPriceForBulkTickets",
      "outputs": [
        {
          "internalType": "uint256",
          "name": "",
          "type": "uint256"
        }
      ],
      "stateMutability": "pure",
      "type": "function",
      "constant": true
    },
    {
      "inputs": [],
      "name": "viewCurrentLotteryId",
      "outputs": [
        {
          "internalType": "uint256",
          "name": "",
          "type": "uint256"
        }
      ],
      "stateMutability": "view",
      "type": "function",
      "constant": true
    },
    {
      "inputs": [
        {
          "internalType": "uint256",
          "name": "_lotteryId",
          "type": "uint256"
        }
      ],
      "name": "viewLottery",
      "outputs": [
        {
          "components": [
            {
              "internalType": "enum SphynxSwapLottery.Status",
              "name": "status",
              "type": "uint8"
            },
            {
              "internalType": "uint256",
              "name": "startTime",
              "type": "uint256"
            },
            {
              "internalType": "uint256",
              "name": "endTime",
              "type": "uint256"
            },
            {
              "internalType": "uint256",
              "name": "priceTicketInSphynx",
              "type": "uint256"
            },
            {
              "internalType": "uint256",
              "name": "discountDivisor",
              "type": "uint256"
            },
            {
              "internalType": "uint256[6]",
              "name": "rewardsBreakdown",
              "type": "uint256[6]"
            },
            {
              "internalType": "uint256",
              "name": "treasuryFee",
              "type": "uint256"
            },
            {
              "internalType": "uint256[6]",
              "name": "sphynxPerBracket",
              "type": "uint256[6]"
            },
            {
              "internalType": "uint256[6]",
              "name": "countWinnersPerBracket",
              "type": "uint256[6]"
            },
            {
              "internalType": "uint256",
              "name": "firstTicketId",
              "type": "uint256"
            },
            {
              "internalType": "uint256",
              "name": "firstTicketIdNextLottery",
              "type": "uint256"
            },
            {
              "internalType": "uint256",
              "name": "amountCollectedInSphynx",
              "type": "uint256"
            },
            {
              "internalType": "uint32",
              "name": "finalNumber",
              "type": "uint32"
            }
          ],
          "internalType": "struct SphynxSwapLottery.Lottery",
          "name": "",
          "type": "tuple"
        }
      ],
      "stateMutability": "view",
      "type": "function",
      "constant": true
    },
    {
      "inputs": [
        {
          "internalType": "uint256[]",
          "name": "_ticketIds",
          "type": "uint256[]"
        }
      ],
      "name": "viewNumbersAndStatusesForTicketIds",
      "outputs": [
        {
          "internalType": "uint32[]",
          "name": "",
          "type": "uint32[]"
        },
        {
          "internalType": "bool[]",
          "name": "",
          "type": "bool[]"
        }
      ],
      "stateMutability": "view",
      "type": "function",
      "constant": true
    },
    {
      "inputs": [
        {
          "internalType": "uint256",
          "name": "_lotteryId",
          "type": "uint256"
        },
        {
          "internalType": "uint256",
          "name": "_ticketId",
          "type": "uint256"
        },
        {
          "internalType": "uint32",
          "name": "_bracket",
          "type": "uint32"
        }
      ],
      "name": "viewRewardsForTicketId",
      "outputs": [
        {
          "internalType": "uint256",
          "name": "",
          "type": "uint256"
        }
      ],
      "stateMutability": "view",
      "type": "function",
      "constant": true
    },
    {
      "inputs": [
        {
          "internalType": "address",
          "name": "_user",
          "type": "address"
        },
        {
          "internalType": "uint256",
          "name": "_lotteryId",
          "type": "uint256"
        },
        {
          "internalType": "uint256",
          "name": "_cursor",
          "type": "uint256"
        },
        {
          "internalType": "uint256",
          "name": "_size",
          "type": "uint256"
        }
      ],
      "name": "viewUserInfoForLotteryId",
      "outputs": [
        {
          "internalType": "uint256[]",
          "name": "",
          "type": "uint256[]"
        },
        {
          "internalType": "uint32[]",
          "name": "",
          "type": "uint32[]"
        },
        {
          "internalType": "bool[]",
          "name": "",
          "type": "bool[]"
        },
        {
          "internalType": "uint256",
          "name": "",
          "type": "uint256"
        }
      ],
      "stateMutability": "view",
      "type": "function",
      "constant": true
    }
  ],
  "bytecode": "0x608060405260646007556802b5e3af16b18800006008556611c37937e080006009553480156200002e57600080fd5b5060405162003deb38038062003deb833981016040819052620000519162000219565b60016000556200006133620001aa565b600b80546001600160a01b039384166001600160a01b0319918216178255600c805493909416921691909117909155600f6020527ff4803e074bd026baaf6ed2e288c9515f68c72fb7216eebdd7cae1718a53ec375805463ffffffff199081166001179091557f169f97de0d9a84d840042b17d3c6b9638b3d6fd9024c9eb0c7a306a17b49f88f805482169092179091557fa74ba3945261e09fde15ba3db55005b205e61eeb4ad811ac0faa2b315bffeead80548216606f1790557f45f76dafbbad695564362934e24d72eedc57f9fc1a65f39bca62176cc8296828805482166104571790557f367ccd2d0ac16bf7110a5dffe0801fdc9452a95a1adb7e1a12fe97dd3e9a4edd80548216612b6717905560056000527f6bda57492eba051cb4a12a1e19df47c9755d78165341d4009b1d09b3f361620480549091166201b20717905562000250565b600180546001600160a01b038381166001600160a01b0319831681179093556040519116919082907f8be0079c531659141344cd1fd0a4f28419497f9722a3daafe3b4186f6b6457e090600090a35050565b80516001600160a01b03811681146200021457600080fd5b919050565b600080604083850312156200022c578182fd5b6200023783620001fc565b91506200024760208401620001fc565b90509250929050565b613b8b80620002606000396000f3fe608060405234801561001057600080fd5b506004361061021c5760003560e01c806388303dbd11610125578063c4937ab9116100ad578063db19da0d1161007c578063db19da0d14610455578063dcbad90d1461045f578063f2b3c80914610472578063f2fde38b1461047b578063fcb264e21461048e57600080fd5b8063c4937ab914610409578063c5f956af1461041c578063c914914f1461042f578063da4ca0391461044257600080fd5b806398359fa1116100f457806398359fa1146103aa5780639c384653146103bd5780639d8ca531146103d0578063b1829b82146103e3578063c38de539146103f657600080fd5b806388303dbd1461035c5780638da5cb5b1461036f5780638fc3539a14610380578063972e01dd146103a157600080fd5b80633f138d4b116101a85780636b873788116101775780636b873788146103275780636be4097c1461033a578063715018a6146103435780637cb583bd1461034b57806380a061601461035457600080fd5b80633f138d4b146102e3578063422a0684146102f8578063471aeab41461030b578063686465b81461031e57600080fd5b80631fe86c6b116101ef5780631fe86c6b146102985780632423807a146102a15780632532e239146102c157806329cb924d146102ca5780632e530cae146102d057600080fd5b806305531eeb1461022157806307fb5a9c1461024d578063127effb21461026457806312a9769d1461028f575b600080fd5b61023461022f3660046132b1565b6104a1565b6040516102449493929190613640565b60405180910390f35b61025661371481565b604051908152602001610244565b600354610277906001600160a01b031681565b6040516001600160a01b039091168152602001610244565b610256600a5481565b61025660075481565b6102b46102af366004613345565b610819565b60405161024491906137d7565b61025660095481565b42610256565b6102566102de3660046134fe565b610996565b6102f66102f1366004613288565b610a2b565b005b6102f6610306366004613465565b610b0f565b6102f6610319366004613465565b610b94565b61025660065481565b6102f6610335366004613345565b610ce5565b61025660055481565b6102f6610d4f565b61025661012c81565b600554610256565b6102f661036a3660046133ec565b610d85565b6001546001600160a01b0316610277565b61039361038e3660046132e9565b611366565b6040516102449291906136b4565b61025660085481565b6102f66103b836600461322c565b611582565b600254610277906001600160a01b031681565b6102f66103de366004613345565b61177e565b6102f66103f13660046134b1565b611994565b6102f6610404366004613436565b611e9a565b610256610417366004613486565b612492565b600454610277906001600160a01b031681565b6102f661043d366004613375565b61253e565b6102f6610450366004613246565b612afb565b6102566212762c81565b600c54610277906001600160a01b031681565b610256610bb881565b6102f661048936600461322c565b612c1b565b600b54610277906001600160a01b031681565b6001600160a01b0384166000908152601160209081526040808320868452909152812054606091829182919085906104d98882613a3f565b8211156104ed576104ea8882613a3f565b91505b60008267ffffffffffffffff81111561051657634e487b7160e01b600052604160045260246000fd5b60405190808252806020026020018201604052801561053f578160200160208202803683370190505b50905060008367ffffffffffffffff81111561056b57634e487b7160e01b600052604160045260246000fd5b604051908082528060200260200182016040528015610594578160200160208202803683370190505b50905060008467ffffffffffffffff8111156105c057634e487b7160e01b600052604160045260246000fd5b6040519080825280602002602001820160405280156105e9578160200160208202803683370190505b50905060005b858110156107f357601160008f6001600160a01b03166001600160a01b0316815260200190815260200160002060008e81526020019081526020016000208c82610639919061389a565b8154811061065757634e487b7160e01b600052603260045260246000fd5b906000526020600020015484828151811061068257634e487b7160e01b600052603260045260246000fd5b602002602001018181525050600e60008583815181106106b257634e487b7160e01b600052603260045260246000fd5b6020026020010151815260200190815260200160002060000160009054906101000a900463ffffffff168382815181106106fc57634e487b7160e01b600052603260045260246000fd5b602002602001019063ffffffff16908163ffffffff168152505060006001600160a01b0316600e600086848151811061074557634e487b7160e01b600052603260045260246000fd5b60209081029190910181015182528101919091526040016000205464010000000090046001600160a01b031614156107ae57600182828151811061079957634e487b7160e01b600052603260045260246000fd5b911515602092830291909101909101526107e1565b60008282815181106107d057634e487b7160e01b600052603260045260246000fd5b911515602092830291909101909101525b806107eb81613aa7565b9150506105ef565b50828282610801888f61389a565b98509850985098505050505050945094509450949050565b6108216130db565b6000828152600d60205260409081902081516101a081019092528054829060ff16600381111561086157634e487b7160e01b600052602160045260246000fd5b600381111561088057634e487b7160e01b600052602160045260246000fd5b81526001820154602082015260028201546040808301919091526003830154606083015260048301546080830152805160c081019182905260a09092019190600584019060069082845b8154815260200190600101908083116108ca575050509183525050600b82015460208201526040805160c081018252910190600c830160068282826020028201915b81548152602001906001019080831161090c5750505091835250506040805160c081019182905260209092019190601284019060069082845b8154815260200190600101908083116109455750505091835250506018820154602082015260198201546040820152601a8201546060820152601b9091015463ffffffff1660809091015292915050565b600060036000858152600d602052604090205460ff1660038111156109cb57634e487b7160e01b600052602160045260246000fd5b146109d857506000610a24565b6000848152600d602052604090206019015483118015610a0957506000848152600d60205260409020601801548311155b15610a1657506000610a24565b610a21848484612cb6565b90505b9392505050565b6001546001600160a01b03163314610a5e5760405162461bcd60e51b8152600401610a5590613745565b60405180910390fd5b600b546001600160a01b0383811691161415610ab55760405162461bcd60e51b815260206004820152601660248201527521b0b73737ba1031329029a8242ca72c103a37b5b2b760511b6044820152606401610a55565b610ac96001600160a01b0383163383612dcf565b604080516001600160a01b0384168152602081018390527f74545154aac348a3eac92596bd1971957ca94795f4e954ec5f613b55fab78129910160405180910390a15050565b6001546001600160a01b03163314610b395760405162461bcd60e51b8152600401610a5590613745565b80821115610b895760405162461bcd60e51b815260206004820152601b60248201527f6d696e5072696365206d757374206265203c206d6178507269636500000000006044820152606401610a55565b600991909155600855565b6001546001600160a01b0316331480610bb757506002546001600160a01b031633145b610bfb5760405162461bcd60e51b81526020600482015260156024820152742737ba1037bbb732b91037b91034b73532b1ba37b960591b6044820152606401610a55565b60016000838152600d602052604090205460ff166003811115610c2e57634e487b7160e01b600052602160045260246000fd5b14610c6e5760405162461bcd60e51b815260206004820152601060248201526f2637ba3a32b93c903737ba1037b832b760811b6044820152606401610a55565b600b54610c86906001600160a01b0316333084612e37565b6000828152600d60205260408120601a018054839290610ca790849061389a565b909155505060405181815282907f1bbd659dd628a25f7ff2eabb69c74a56939c539728282275c1c9c1a2d3e340499060200160405180910390a25050565b6001546001600160a01b03163314610d0f5760405162461bcd60e51b8152600401610a5590613745565b80610d4a5760405162461bcd60e51b815260206004820152600b60248201526a04d757374206265203e20360ac1b6044820152606401610a55565b600755565b6001546001600160a01b03163314610d795760405162461bcd60e51b8152600401610a5590613745565b610d836000612e75565b565b333b15610dcb5760405162461bcd60e51b815260206004820152601460248201527310dbdb9d1c9858dd081b9bdd08185b1b1bddd95960621b6044820152606401610a55565b333214610e1a5760405162461bcd60e51b815260206004820152601a60248201527f50726f787920636f6e7472616374206e6f7420616c6c6f7765640000000000006044820152606401610a55565b60026000541415610e3d5760405162461bcd60e51b8152600401610a559061377a565b600260005580610e855760405162461bcd60e51b8152602060048201526013602482015272139bc81d1a58dad95d081cdc1958da599a5959606a1b6044820152606401610a55565b600754811115610eca5760405162461bcd60e51b815260206004820152601060248201526f546f6f206d616e79207469636b65747360801b6044820152606401610a55565b60016000848152600d602052604090205460ff166003811115610efd57634e487b7160e01b600052602160045260246000fd5b14610f405760405162461bcd60e51b81526020600482015260136024820152722637ba3a32b93c9034b9903737ba1037b832b760691b6044820152606401610a55565b6000838152600d60205260409020600201544210610f925760405162461bcd60e51b815260206004820152600f60248201526e2637ba3a32b93c9034b99037bb32b960891b6044820152606401610a55565b6000838152600d602052604081206004810154600390910154610fb6919084612ec7565b600b54909150610fd1906001600160a01b0316333084612e37565b6000848152600d60205260408120601a018054839290610ff290849061389a565b90915550600090505b8281101561132357600084848381811061102557634e487b7160e01b600052603260045260246000fd5b905060200201602081019061103a9190613536565b9050620f42408163ffffffff161015801561105e5750621e847f8163ffffffff1611155b61109a5760405162461bcd60e51b815260206004820152600d60248201526c4f7574736964652072616e676560981b6044820152606401610a55565b6000868152601060205260408120906110b4600a84613ae6565b6110bf9060016138b2565b63ffffffff168152602081019190915260400160009081208054916110e383613aa7565b9091555050600086815260106020526040812090611102606484613ae6565b61110d90600b6138b2565b63ffffffff1681526020810191909152604001600090812080549161113183613aa7565b90915550506000868152601060205260408120906111516103e884613ae6565b61115c90606f6138b2565b63ffffffff1681526020810191909152604001600090812080549161118083613aa7565b90915550506000868152601060205260408120906111a061271084613ae6565b6111ac906104576138b2565b63ffffffff168152602081019190915260400160009081208054916111d083613aa7565b90915550506000868152601060205260408120906111f1620186a084613ae6565b6111fd90612b676138b2565b63ffffffff1681526020810191909152604001600090812080549161122183613aa7565b9091555050600086815260106020526040812090611242620f424084613ae6565b61124f906201b2076138b2565b63ffffffff1681526020810191909152604001600090812080549161127383613aa7565b90915550503360008181526011602090815260408083208a84528252808320600680548254600181018455928652848620909201919091558151808301835263ffffffff808816825281850196875282548652600e9094529184209151825495516001600160a01b0316640100000000026001600160c01b0319909616931692909217939093179092558154919061130a83613aa7565b919050555050808061131b90613aa7565b915050610ffb565b50604051828152849033907fd7d247b583de1023852eef87b48f54354dbec771d01bc2cc49e96094efc322b99060200160405180910390a3505060016000555050565b6060808260008167ffffffffffffffff81111561139357634e487b7160e01b600052604160045260246000fd5b6040519080825280602002602001820160405280156113bc578160200160208202803683370190505b50905060008267ffffffffffffffff8111156113e857634e487b7160e01b600052604160045260246000fd5b604051908082528060200260200182016040528015611411578160200160208202803683370190505b50905060005b8381101561157357600e600089898481811061144357634e487b7160e01b600052603260045260246000fd5b90506020020135815260200190815260200160002060000160009054906101000a900463ffffffff1683828151811061148c57634e487b7160e01b600052603260045260246000fd5b63ffffffff909216602092830291909101909101526000600e818a8a858181106114c657634e487b7160e01b600052603260045260246000fd5b602090810292909201358352508101919091526040016000205464010000000090046001600160a01b0316141561152e57600182828151811061151957634e487b7160e01b600052603260045260246000fd5b91151560209283029190910190910152611561565b600082828151811061155057634e487b7160e01b600052603260045260246000fd5b911515602092830291909101909101525b8061156b81613aa7565b915050611417565b509093509150505b9250929050565b6001546001600160a01b031633146115ac5760405162461bcd60e51b8152600401610a5590613745565b60036005546000908152600d602052604090205460ff1660038111156115e257634e487b7160e01b600052602160045260246000fd5b1461162f5760405162461bcd60e51b815260206004820152601860248201527f4c6f7474657279206e6f7420696e20636c61696d61626c6500000000000000006044820152606401610a55565b806001600160a01b031663b37217a460055460065460405160200161165e929190918252602082015260400190565b60408051808303601f1901815290829052805160209091012060e083901b6001600160e01b03191682526004820152602401600060405180830381600087803b1580156116aa57600080fd5b505af11580156116be573d6000803e3d6000fd5b50505050806001600160a01b031663a1c4f55a6040518163ffffffff1660e01b815260040160206040518083038186803b1580156116fb57600080fd5b505afa15801561170f573d6000803e3d6000fd5b505050506040513d601f19601f820116820180604052508101906117339190613552565b50600c80546001600160a01b0319166001600160a01b0383169081179091556040517f383f8cb39dfa7c3fb901a460dd449ea924868f0a92ff03da64740fffa5f1de6290600090a250565b6003546001600160a01b031633146117a85760405162461bcd60e51b8152600401610a55906137b1565b600260005414156117cb5760405162461bcd60e51b8152600401610a559061377a565b600260005560016000828152600d602052604090205460ff16600381111561180357634e487b7160e01b600052602160045260246000fd5b146118435760405162461bcd60e51b815260206004820152601060248201526f2637ba3a32b93c903737ba1037b832b760811b6044820152606401610a55565b6000818152600d602052604090206002015442116118965760405162461bcd60e51b815260206004820152601060248201526f2637ba3a32b93c903737ba1037bb32b960811b6044820152606401610a55565b6006546000828152600d6020908152604091829020601901839055600c548251918201859052918101929092526001600160a01b03169063b37217a49060600160408051808303601f1901815290829052805160209091012060e083901b6001600160e01b03191682526004820152602401600060405180830381600087803b15801561192257600080fd5b505af1158015611936573d6000803e3d6000fd5b5050506000828152600d6020908152604091829020805460ff1916600217905560065491519182528392507f3728e75294796694d59d2ffced9c394279baf7b9ebd2702db43f5f04bac67929910160405180910390a2506001600055565b6003546001600160a01b031633146119be5760405162461bcd60e51b8152600401610a55906137b1565b6005541580611a00575060036005546000908152600d602052604090205460ff1660038111156119fe57634e487b7160e01b600052602160045260246000fd5b145b611a4c5760405162461bcd60e51b815260206004820152601960248201527f4e6f742074696d6520746f207374617274206c6f7474657279000000000000006044820152606401610a55565b613714611a594287613a3f565b118015611a7157506212762c611a6f4287613a3f565b105b611abd5760405162461bcd60e51b815260206004820152601f60248201527f4c6f7474657279206c656e677468206f757473696465206f662072616e6765006044820152606401610a55565b6009548410158015611ad157506008548411155b611b115760405162461bcd60e51b81526020600482015260116024820152704f757473696465206f66206c696d69747360781b6044820152606401610a55565b61012c831015611b635760405162461bcd60e51b815260206004820152601860248201527f446973636f756e742064697669736f7220746f6f206c6f7700000000000000006044820152606401610a55565b610bb8811115611bad5760405162461bcd60e51b81526020600482015260156024820152740a8e4cac2e6eae4f240cccaca40e8dede40d0d2ced605b1b6044820152606401610a55565b60a0820135608083013560608401356040850135611bd06020870135873561389a565b611bda919061389a565b611be4919061389a565b611bee919061389a565b611bf8919061389a565b61271014611c485760405162461bcd60e51b815260206004820152601860248201527f52657761726473206d75737420657175616c20313030303000000000000000006044820152606401610a55565b60058054906000611c5883613aa7565b9091555050604080516101a0810190915280600181526020014281526020018681526020018581526020018481526020018360068060200260405190810160405280929190826006602002808284376000920182905250928452505060208083018590526040805160c080820183528482528184018590528183018590526060808301869052608080840187905260a080850188905285890194909452845180840186528781528087018890528086018890528083018890528082018890528085018890529188019190915260065490870181905291860191909152600a549085015260e09093018290526005548252600d90522081518154829060ff19166001836003811115611d7957634e487b7160e01b600052602160045260246000fd5b02179055506020820151600182015560408201516002820155606082015160038201556080820151600482015560a0820151611dbb906005830190600661315c565b5060c0820151600b82015560e0820151611ddb90600c830190600661315c565b50610100820151611df2906012830190600661315c565b5061012082015160188201556101408201516019820155610160820151601a82015561018090910151601b909101805463ffffffff191663ffffffff909216919091179055600554600654600a5460408051428152602081018a9052908101889052606081019290925260808201527f367e70f8c0e0c0a6504d92172bda155c02022d532fc85b5d66a9c49e31c8bc779060a00160405180910390a250506000600a55505050565b6003546001600160a01b03163314611ec45760405162461bcd60e51b8152600401610a55906137b1565b60026000541415611ee75760405162461bcd60e51b8152600401610a559061377a565b60026000818155838152600d602052604090205460ff166003811115611f1d57634e487b7160e01b600052602160045260246000fd5b14611f5e5760405162461bcd60e51b81526020600482015260116024820152704c6f7474657279206e6f7420636c6f736560781b6044820152606401610a55565b600c60009054906101000a90046001600160a01b03166001600160a01b031663fbe5d9176040518163ffffffff1660e01b815260040160206040518083038186803b158015611fac57600080fd5b505afa158015611fc0573d6000803e3d6000fd5b505050506040513d601f19601f82011682018060405250810190611fe4919061335d565b82146120265760405162461bcd60e51b8152602060048201526011602482015270273ab6b132b939903737ba10323930bbb760791b6044820152606401610a55565b600c54604080516350e27aad60e11b815290516000926001600160a01b03169163a1c4f55a916004808301926020929190829003018186803b15801561206b57600080fd5b505afa15801561207f573d6000803e3d6000fd5b505050506040513d601f19601f820116820180604052508101906120a39190613552565b6000848152600d60205260408120600b0154919250908190612710906120c99082613a3f565b6000878152600d60205260409020601a01546120e59190613a20565b6120ef91906138da565b90506000805b60068163ffffffff1610156123bd576000612111826005613a56565b905060006121208260016138b2565b61212b90600a613935565b6121359088613ae6565b63ffffffff8084166000908152600f60205260409020546121579291166138b2565b60008a815260106020908152604080832063ffffffff85168452909152902054909150612185908790613a3f565b60008a8152600d6020526040902060120163ffffffff8416600681106121bb57634e487b7160e01b600052603260045260246000fd5b0155600089815260106020908152604080832063ffffffff851684529091529020546121e8908790613a3f565b15612311576000898152600d6020526040902060050163ffffffff83166006811061222357634e487b7160e01b600052603260045260246000fd5b01541561230c57600089815260106020908152604080832063ffffffff8516845290915290205461271090612259908890613a3f565b60008b8152600d60205260409020879060050163ffffffff86166006811061229157634e487b7160e01b600052603260045260246000fd5b015461229d9190613a20565b6122a791906138da565b6122b191906138da565b60008a8152600d60205260409020600c0163ffffffff8416600681106122e757634e487b7160e01b600052603260045260246000fd5b0155600089815260106020908152604080832063ffffffff8516845290915290205495505b6123a8565b6000898152600d60205260408120600c0163ffffffff84166006811061234757634e487b7160e01b600052603260045260246000fd5b01556000898152600d6020526040902061271090869060050163ffffffff85166006811061238557634e487b7160e01b600052603260045260246000fd5b01546123919190613a20565b61239b91906138da565b6123a5908561389a565b93505b505080806123b590613ac2565b9150506120f5565b506000868152600d60205260409020601b8101805463ffffffff871663ffffffff19909116179055805460ff1916600317905584156123fc57600a5560005b6000868152600d60205260409020601a0154612419908390613a3f565b612423908261389a565b600454600b54919250612443916001600160a01b03908116911683612dcf565b6005546040805163ffffffff87168152602081018690527f98e31a6607b8b15b4d5b91de54f4c09ffe4c4cf162aa532c70b5213754e2e703910160405180910390a25050600160005550505050565b600061012c8410156124e65760405162461bcd60e51b815260206004820152601f60248201527f4d757374206265203e3d204d494e5f444953434f554e545f44495649534f52006044820152606401610a55565b816125335760405162461bcd60e51b815260206004820152601d60248201527f4e756d626572206f66207469636b657473206d757374206265203e20300000006044820152606401610a55565b610a21848484612ec7565b333b156125845760405162461bcd60e51b815260206004820152601460248201527310dbdb9d1c9858dd081b9bdd08185b1b1bddd95960621b6044820152606401610a55565b3332146125d35760405162461bcd60e51b815260206004820152601a60248201527f50726f787920636f6e7472616374206e6f7420616c6c6f7765640000000000006044820152606401610a55565b600260005414156125f65760405162461bcd60e51b8152600401610a559061377a565b600260005582811461263c5760405162461bcd60e51b815260206004820152600f60248201526e09cdee840e6c2daca40d8cadccee8d608b1b6044820152606401610a55565b8261267d5760405162461bcd60e51b815260206004820152601160248201527004c656e677468206d757374206265203e3607c1b6044820152606401610a55565b6007548311156126c25760405162461bcd60e51b815260206004820152601060248201526f546f6f206d616e79207469636b65747360801b6044820152606401610a55565b60036000868152600d602052604090205460ff1660038111156126f557634e487b7160e01b600052602160045260246000fd5b1461273a5760405162461bcd60e51b81526020600482015260156024820152744c6f7474657279206e6f7420636c61696d61626c6560581b6044820152606401610a55565b6000805b84811015612a9957600684848381811061276857634e487b7160e01b600052603260045260246000fd5b905060200201602081019061277d9190613536565b63ffffffff16106127c75760405162461bcd60e51b8152602060048201526014602482015273427261636b6574206f7574206f662072616e676560601b6044820152606401610a55565b60008686838181106127e957634e487b7160e01b600052603260045260246000fd5b90506020020135905080600d60008a8152602001908152602001600020601901541161284b5760405162461bcd60e51b81526020600482015260116024820152700a8d2c6d6cae892c840e8dede40d0d2ced607b1b6044820152606401610a55565b6000888152600d602052604090206018015481101561289f5760405162461bcd60e51b815260206004820152601060248201526f5469636b6574496420746f6f206c6f7760801b6044820152606401610a55565b6000818152600e602052604090205464010000000090046001600160a01b031633146128fd5760405162461bcd60e51b815260206004820152600d60248201526c2737ba103a34329037bbb732b960991b6044820152606401610a55565b6000818152600e602052604081208054640100000000600160c01b031916905561295c898388888781811061294257634e487b7160e01b600052603260045260246000fd5b90506020020160208101906129579190613536565b612cb6565b9050806129ab5760405162461bcd60e51b815260206004820152601960248201527f4e6f207072697a6520666f72207468697320627261636b6574000000000000006044820152606401610a55565b8585848181106129cb57634e487b7160e01b600052603260045260246000fd5b90506020020160208101906129e09190613536565b63ffffffff16600514612a7857612a328983888887818110612a1257634e487b7160e01b600052603260045260246000fd5b9050602002016020810190612a279190613536565b6129579060016138b2565b15612a785760405162461bcd60e51b8152602060048201526016602482015275213930b1b5b2ba1036bab9ba103132903434b3b432b960511b6044820152606401610a55565b612a82818561389a565b935050508080612a9190613aa7565b91505061273e565b50600b54612ab1906001600160a01b03163383612dcf565b6040805182815260208101869052879133917f0f5fca62da8fb5d95525b49e5eaa7b20bc6bd9e2f6b64b493442d1c0bd6ef486910160405180910390a35050600160005550505050565b6001546001600160a01b03163314612b255760405162461bcd60e51b8152600401610a5590613745565b6001600160a01b038316612b4b5760405162461bcd60e51b8152600401610a5590613715565b6001600160a01b038216612b715760405162461bcd60e51b8152600401610a5590613715565b6001600160a01b038116612b975760405162461bcd60e51b8152600401610a5590613715565b600380546001600160a01b038581166001600160a01b0319928316811790935560048054868316908416811790915560028054928616929093168217909255604080519384526020840192909252908201527f3e945b7660001d46cfd5e729545f7f0b6c65bdee54066a91c7acad703f1b731e9060600160405180910390a1505050565b6001546001600160a01b03163314612c455760405162461bcd60e51b8152600401610a5590613745565b6001600160a01b038116612caa5760405162461bcd60e51b815260206004820152602660248201527f4f776e61626c653a206e6577206f776e657220697320746865207a65726f206160448201526564647265737360d01b6064820152608401610a55565b612cb381612e75565b50565b6000838152600d60209081526040808320601b0154858452600e90925282205463ffffffff918216911682612cec8560016138b2565b612cf790600a613935565b612d019083613ae6565b63ffffffff8087166000908152600f6020526040902054612d239291166138b2565b90506000612d328660016138b2565b612d3d90600a613935565b612d479085613ae6565b63ffffffff8088166000908152600f6020526040902054612d699291166138b2565b90508063ffffffff168263ffffffff161415612dc2576000888152600d60205260409020600c0163ffffffff871660068110612db557634e487b7160e01b600052603260045260246000fd5b0154945050505050610a24565b6000945050505050610a24565b6040516001600160a01b038316602482015260448101829052612e3290849063a9059cbb60e01b906064015b60408051601f198184030181529190526020810180516001600160e01b03166001600160e01b031990931692909217909152612efe565b505050565b6040516001600160a01b0380851660248301528316604482015260648101829052612e6f9085906323b872dd60e01b90608401612dfb565b50505050565b600180546001600160a01b038381166001600160a01b0319831681179093556040519116919082907f8be0079c531659141344cd1fd0a4f28419497f9722a3daafe3b4186f6b6457e090600090a35050565b60008382612ed682600161389a565b612ee09190613a3f565b612eea8486613a20565b612ef49190613a20565b610a2191906138da565b6000612f53826040518060400160405280602081526020017f5361666545524332303a206c6f772d6c6576656c2063616c6c206661696c6564815250856001600160a01b0316612fd09092919063ffffffff16565b805190915015612e325780806020019051810190612f719190613329565b612e325760405162461bcd60e51b815260206004820152602a60248201527f5361666545524332303a204552433230206f7065726174696f6e20646964206e6044820152691bdd081cdd58d8d9595960b21b6064820152608401610a55565b6060610a21848460008585843b6130295760405162461bcd60e51b815260206004820152601d60248201527f416464726573733a2063616c6c20746f206e6f6e2d636f6e74726163740000006044820152606401610a55565b600080866001600160a01b031685876040516130459190613624565b60006040518083038185875af1925050503d8060008114613082576040519150601f19603f3d011682016040523d82523d6000602084013e613087565b606091505b50915091506130978282866130a2565b979650505050505050565b606083156130b1575081610a24565b8251156130c15782518084602001fd5b8160405162461bcd60e51b8152600401610a5591906136e2565b604080516101a0810190915280600081526020016000815260200160008152602001600081526020016000815260200161311361319a565b81526020016000815260200161312761319a565b815260200161313461319a565b8152602001600081526020016000815260200160008152602001600063ffffffff1681525090565b826006810192821561318a579160200282015b8281111561318a57825182559160200191906001019061316f565b506131969291506131b8565b5090565b6040518060c001604052806006906020820280368337509192915050565b5b8082111561319657600081556001016131b9565b80356001600160a01b03811681146131e457600080fd5b919050565b60008083601f8401126131fa578182fd5b50813567ffffffffffffffff811115613211578182fd5b6020830191508360208260051b850101111561157b57600080fd5b60006020828403121561323d578081fd5b610a24826131cd565b60008060006060848603121561325a578182fd5b613263846131cd565b9250613271602085016131cd565b915061327f604085016131cd565b90509250925092565b6000806040838503121561329a578182fd5b6132a3836131cd565b946020939093013593505050565b600080600080608085870312156132c6578081fd5b6132cf856131cd565b966020860135965060408601359560600135945092505050565b600080602083850312156132fb578182fd5b823567ffffffffffffffff811115613311578283fd5b61331d858286016131e9565b90969095509350505050565b60006020828403121561333a578081fd5b8151610a2481613b35565b600060208284031215613356578081fd5b5035919050565b60006020828403121561336e578081fd5b5051919050565b60008060008060006060868803121561338c578081fd5b85359450602086013567ffffffffffffffff808211156133aa578283fd5b6133b689838a016131e9565b909650945060408801359150808211156133ce578283fd5b506133db888289016131e9565b969995985093965092949392505050565b600080600060408486031215613400578283fd5b83359250602084013567ffffffffffffffff81111561341d578283fd5b613429868287016131e9565b9497909650939450505050565b60008060408385031215613448578182fd5b82359150602083013561345a81613b35565b809150509250929050565b60008060408385031215613477578182fd5b50508035926020909101359150565b60008060006060848603121561349a578283fd5b505081359360208301359350604090920135919050565b600080600080600061014086880312156134c9578283fd5b8535945060208601359350604086013592506101208601878111156134ec578182fd5b94979396509194606001933592915050565b600080600060608486031215613512578081fd5b8335925060208401359150604084013561352b81613b43565b809150509250925092565b600060208284031215613547578081fd5b8135610a2481613b43565b600060208284031215613563578081fd5b8151610a2481613b43565b6000815180845260208085019450808401835b8381101561359f578151151587529582019590820190600101613581565b509495945050505050565b8060005b6006811015612e6f5781518452602093840193909101906001016135ae565b6000815180845260208085019450808401835b8381101561359f57815163ffffffff16875295820195908201906001016135e0565b6004811061362057634e487b7160e01b600052602160045260246000fd5b9052565b60008251613636818460208701613a7b565b9190910192915050565b6080808252855190820181905260009060209060a0840190828901845b828110156136795781518452928401929084019060010161365d565b5050508381038285015261368d81886135cd565b91505082810360408401526136a2818661356e565b91505082606083015295945050505050565b6040815260006136c760408301856135cd565b82810360208401526136d9818561356e565b95945050505050565b6020815260008251806020840152613701816040850160208701613a7b565b601f01601f19169190910160400192915050565b60208082526016908201527543616e6e6f74206265207a65726f206164647265737360501b604082015260600190565b6020808252818101527f4f776e61626c653a2063616c6c6572206973206e6f7420746865206f776e6572604082015260600190565b6020808252601f908201527f5265656e7472616e637947756172643a207265656e7472616e742063616c6c00604082015260600190565b6020808252600c908201526b2737ba1037b832b930ba37b960a11b604082015260600190565b6000610380820190506137eb828451613602565b6020830151602083015260408301516040830152606083015160608301526080830151608083015260a083015161382560a08401826135aa565b5060c0830151610160818185015260e08501519150610180613849818601846135aa565b610100860151925061385f6102408601846135aa565b6101208601516103008601526101408601516103208601529085015161034085015284015163ffffffff811661036085015290505092915050565b600082198211156138ad576138ad613b09565b500190565b600063ffffffff8083168185168083038211156138d1576138d1613b09565b01949350505050565b6000826138e9576138e9613b1f565b500490565b60018163ffffffff825b8086111561392c5782820483111561391257613912613b09565b8086161561391f57928202925b94851c94918002916138f8565b50509250929050565b600063ffffffff61394a818516828516613952565b949350505050565b60008261396157506001613a1a565b8161396e57506000613a1a565b8160018114613984576002811461398e576139bf565b6001915050613a1a565b60ff84111561399f5761399f613b09565b6001841b915063ffffffff8211156139b9576139b9613b09565b50613a1a565b5060208310610133831016604e8410600b84101617156139f6575081810a63ffffffff8111156139f1576139f1613b09565b613a1a565b613a0083836138ee565b8063ffffffff04821115613a1657613a16613b09565b0290505b92915050565b6000816000190483118215151615613a3a57613a3a613b09565b500290565b600082821015613a5157613a51613b09565b500390565b600063ffffffff83811690831681811015613a7357613a73613b09565b039392505050565b60005b83811015613a96578181015183820152602001613a7e565b83811115612e6f5750506000910152565b6000600019821415613abb57613abb613b09565b5060010190565b600063ffffffff80831681811415613adc57613adc613b09565b6001019392505050565b600063ffffffff80841680613afd57613afd613b1f565b92169190910692915050565b634e487b7160e01b600052601160045260246000fd5b634e487b7160e01b600052601260045260246000fd5b8015158114612cb357600080fd5b63ffffffff81168114612cb357600080fdfea264697066735822122022ee5027bad80620a2e9616b4f3aaeb1b5225514feb9a9b545cf365b8b021bb264736f6c63430008040033",
  "immutableReferences": {},
  "source": "// SPDX-License-Identifier: MIT\n\npragma solidity ^0.8.4;\npragma abicoder v2;\n\nimport '@openzeppelin/contracts/utils/Context.sol';\nimport '@openzeppelin/contracts/access/Ownable.sol';\nimport '@openzeppelin/contracts/security/ReentrancyGuard.sol';\nimport '@openzeppelin/contracts/token/ERC20/IERC20.sol';\nimport '@openzeppelin/contracts/utils/Address.sol';\nimport '@openzeppelin/contracts/token/ERC20/utils/SafeERC20.sol';\nimport './interfaces/IRandomNumberGenerator.sol';\nimport './interfaces/ISphynxSwapLottery.sol';\n\n\n/** @title SphynxSwap Lottery.\n * @notice It is a contract for a lottery system using\n * randomness provided externally.\n */\ncontract SphynxSwapLottery is ReentrancyGuard, ISphynxSwapLottery, Ownable {\n    using SafeERC20 for IERC20;\n\n    address public injectorAddress;\n    address public operatorAddress;\n    address public treasuryAddress;\n\n    uint256 public currentLotteryId;\n    uint256 public currentTicketId;\n\n    uint256 public maxNumberTicketsPerBuyOrClaim = 100;\n\n    uint256 public maxPriceTicketInSphynx = 50 ether;\n    uint256 public minPriceTicketInSphynx = 0.005 ether;\n\n    uint256 public pendingInjectionNextLottery;\n\n    uint256 public constant MIN_DISCOUNT_DIVISOR = 300;\n    uint256 public constant MIN_LENGTH_LOTTERY = 4 hours - 5 minutes; // 4 hours\n    uint256 public constant MAX_LENGTH_LOTTERY = 14 days + 5 minutes; // 4 days\n    uint256 public constant MAX_TREASURY_FEE = 3000; // 30%\n\n    IERC20 public sphynxToken;\n    IRandomNumberGenerator public randomGenerator;\n\n    enum Status {\n        Pending,\n        Open,\n        Close,\n        Claimable\n    }\n\n    struct Lottery {\n        Status status;\n        uint256 startTime;\n        uint256 endTime;\n        uint256 priceTicketInSphynx;\n        uint256 discountDivisor;\n        uint256[6] rewardsBreakdown; // 0: 1 matching number // 5: 6 matching numbers\n        uint256 treasuryFee; // 500: 5% // 200: 2% // 50: 0.5%\n        uint256[6] sphynxPerBracket;\n        uint256[6] countWinnersPerBracket;\n        uint256 firstTicketId;\n        uint256 firstTicketIdNextLottery;\n        uint256 amountCollectedInSphynx;\n        uint32 finalNumber;\n    }\n\n    struct Ticket {\n        uint32 number;\n        address owner;\n    }\n\n    // Mapping are cheaper than arrays\n    mapping(uint256 => Lottery) private _lotteries;\n    mapping(uint256 => Ticket) private _tickets;\n\n    // Bracket calculator is used for verifying claims for ticket prizes\n    mapping(uint32 => uint32) private _bracketCalculator;\n\n    // Keeps track of number of ticket per unique combination for each lotteryId\n    mapping(uint256 => mapping(uint32 => uint256)) private _numberTicketsPerLotteryId;\n\n    // Keep track of user ticket ids for a given lotteryId\n    mapping(address => mapping(uint256 => uint256[])) private _userTicketIdsPerLotteryId;\n\n    modifier notContract() {\n        require(!_isContract(msg.sender), \"Contract not allowed\");\n        require(msg.sender == tx.origin, \"Proxy contract not allowed\");\n        _;\n    }\n\n    modifier onlyOperator() {\n        require(msg.sender == operatorAddress, \"Not operator\");\n        _;\n    }\n\n    modifier onlyOwnerOrInjector() {\n        require((msg.sender == owner()) || (msg.sender == injectorAddress), \"Not owner or injector\");\n        _;\n    }\n\n    event AdminTokenRecovery(address token, uint256 amount);\n    event LotteryClose(uint256 indexed lotteryId, uint256 firstTicketIdNextLottery);\n    event LotteryInjection(uint256 indexed lotteryId, uint256 injectedAmount);\n    event LotteryOpen(\n        uint256 indexed lotteryId,\n        uint256 startTime,\n        uint256 endTime,\n        uint256 priceTicketInSphynx,\n        uint256 firstTicketId,\n        uint256 injectedAmount\n    );\n    event LotteryNumberDrawn(uint256 indexed lotteryId, uint256 finalNumber, uint256 countWinningTickets);\n    event NewOperatorAndTreasuryAndInjectorAddresses(address operator, address treasury, address injector);\n    event NewRandomGenerator(address indexed randomGenerator);\n    event TicketsPurchase(address indexed buyer, uint256 indexed lotteryId, uint256 numberTickets);\n    event TicketsClaim(address indexed claimer, uint256 amount, uint256 indexed lotteryId, uint256 numberTickets);\n\n    /**\n     * @notice Constructor\n     * @dev RandomNumberGenerator must be deployed prior to this contract\n     * @param _sphynxTokenAddress: address of the SPHYNX token\n     * @param _randomGeneratorAddress: address of the RandomGenerator contract used to work with ChainLink VRF\n     */\n    constructor(address _sphynxTokenAddress, address _randomGeneratorAddress) {\n        sphynxToken = IERC20(_sphynxTokenAddress);\n        randomGenerator = IRandomNumberGenerator(_randomGeneratorAddress);\n\n        // Initializes a mapping\n        _bracketCalculator[0] = 1;\n        _bracketCalculator[1] = 11;\n        _bracketCalculator[2] = 111;\n        _bracketCalculator[3] = 1111;\n        _bracketCalculator[4] = 11111;\n        _bracketCalculator[5] = 111111;\n    }\n\n    /**\n     * @notice Buy tickets for the current lottery\n     * @param _lotteryId: lotteryId\n     * @param _ticketNumbers: array of ticket numbers between 1,000,000 and 1,999,999\n     * @dev Callable by users\n     */\n    function buyTickets(uint256 _lotteryId, uint32[] calldata _ticketNumbers)\n        external\n        override\n        notContract\n        nonReentrant\n    {\n        require(_ticketNumbers.length != 0, \"No ticket specified\");\n        require(_ticketNumbers.length <= maxNumberTicketsPerBuyOrClaim, \"Too many tickets\");\n\n        require(_lotteries[_lotteryId].status == Status.Open, \"Lottery is not open\");\n        require(block.timestamp < _lotteries[_lotteryId].endTime, \"Lottery is over\");\n\n        // Calculate number of SPHYNX to this contract\n        uint256 amountSphynxToTransfer = _calculateTotalPriceForBulkTickets(\n            _lotteries[_lotteryId].discountDivisor,\n            _lotteries[_lotteryId].priceTicketInSphynx,\n            _ticketNumbers.length\n        );\n\n        // Transfer sphynx tokens to this contract\n        sphynxToken.safeTransferFrom(address(msg.sender), address(this), amountSphynxToTransfer);\n\n        // Increment the total amount collected for the lottery round\n        _lotteries[_lotteryId].amountCollectedInSphynx += amountSphynxToTransfer;\n\n        for (uint256 i = 0; i < _ticketNumbers.length; i++) {\n            uint32 thisTicketNumber = _ticketNumbers[i];\n\n            require((thisTicketNumber >= 1000000) && (thisTicketNumber <= 1999999), \"Outside range\");\n\n            _numberTicketsPerLotteryId[_lotteryId][1 + (thisTicketNumber % 10)]++;\n            _numberTicketsPerLotteryId[_lotteryId][11 + (thisTicketNumber % 100)]++;\n            _numberTicketsPerLotteryId[_lotteryId][111 + (thisTicketNumber % 1000)]++;\n            _numberTicketsPerLotteryId[_lotteryId][1111 + (thisTicketNumber % 10000)]++;\n            _numberTicketsPerLotteryId[_lotteryId][11111 + (thisTicketNumber % 100000)]++;\n            _numberTicketsPerLotteryId[_lotteryId][111111 + (thisTicketNumber % 1000000)]++;\n\n            _userTicketIdsPerLotteryId[msg.sender][_lotteryId].push(currentTicketId);\n\n            _tickets[currentTicketId] = Ticket({number: thisTicketNumber, owner: msg.sender});\n\n            // Increase lottery ticket number\n            currentTicketId++;\n        }\n\n        emit TicketsPurchase(msg.sender, _lotteryId, _ticketNumbers.length);\n    }\n\n    /**\n     * @notice Claim a set of winning tickets for a lottery\n     * @param _lotteryId: lottery id\n     * @param _ticketIds: array of ticket ids\n     * @param _brackets: array of brackets for the ticket ids\n     * @dev Callable by users only, not contract!\n     */\n    function claimTickets(\n        uint256 _lotteryId,\n        uint256[] calldata _ticketIds,\n        uint32[] calldata _brackets\n    ) external override notContract nonReentrant {\n        require(_ticketIds.length == _brackets.length, \"Not same length\");\n        require(_ticketIds.length != 0, \"Length must be >0\");\n        require(_ticketIds.length <= maxNumberTicketsPerBuyOrClaim, \"Too many tickets\");\n        require(_lotteries[_lotteryId].status == Status.Claimable, \"Lottery not claimable\");\n\n        // Initializes the rewardInSphynxToTransfer\n        uint256 rewardInSphynxToTransfer;\n\n        for (uint256 i = 0; i < _ticketIds.length; i++) {\n            require(_brackets[i] < 6, \"Bracket out of range\"); // Must be between 0 and 5\n\n            uint256 thisTicketId = _ticketIds[i];\n\n            require(_lotteries[_lotteryId].firstTicketIdNextLottery > thisTicketId, \"TicketId too high\");\n            require(_lotteries[_lotteryId].firstTicketId <= thisTicketId, \"TicketId too low\");\n            require(msg.sender == _tickets[thisTicketId].owner, \"Not the owner\");\n\n            // Update the lottery ticket owner to 0x address\n            _tickets[thisTicketId].owner = address(0);\n\n            uint256 rewardForTicketId = _calculateRewardsForTicketId(_lotteryId, thisTicketId, _brackets[i]);\n\n            // Check user is claiming the correct bracket\n            require(rewardForTicketId != 0, \"No prize for this bracket\");\n\n            if (_brackets[i] != 5) {\n                require(\n                    _calculateRewardsForTicketId(_lotteryId, thisTicketId, _brackets[i] + 1) == 0,\n                    \"Bracket must be higher\"\n                );\n            }\n\n            // Increment the reward to transfer\n            rewardInSphynxToTransfer += rewardForTicketId;\n        }\n\n        // Transfer money to msg.sender\n        sphynxToken.safeTransfer(msg.sender, rewardInSphynxToTransfer);\n\n        emit TicketsClaim(msg.sender, rewardInSphynxToTransfer, _lotteryId, _ticketIds.length);\n    }\n\n    /**\n     * @notice Close lottery\n     * @param _lotteryId: lottery id\n     * @dev Callable by operator\n     */\n    function closeLottery(uint256 _lotteryId) external override onlyOperator nonReentrant {\n        require(_lotteries[_lotteryId].status == Status.Open, \"Lottery not open\");\n        require(block.timestamp > _lotteries[_lotteryId].endTime, \"Lottery not over\");\n        _lotteries[_lotteryId].firstTicketIdNextLottery = currentTicketId;\n\n        // Request a random number from the generator based on a seed\n        randomGenerator.getRandomNumber(uint256(keccak256(abi.encodePacked(_lotteryId, currentTicketId))));\n\n        _lotteries[_lotteryId].status = Status.Close;\n\n        emit LotteryClose(_lotteryId, currentTicketId);\n    }\n\n    /**\n     * @notice Draw the final number, calculate reward in SPHYNX per group, and make lottery claimable\n     * @param _lotteryId: lottery id\n     * @param _autoInjection: reinjects funds into next lottery (vs. withdrawing all)\n     * @dev Callable by operator\n     */\n    function drawFinalNumberAndMakeLotteryClaimable(uint256 _lotteryId, bool _autoInjection)\n        external\n        override\n        onlyOperator\n        nonReentrant\n    {\n        require(_lotteries[_lotteryId].status == Status.Close, \"Lottery not close\");\n        require(_lotteryId == randomGenerator.viewLatestLotteryId(), \"Numbers not drawn\");\n\n        // Calculate the finalNumber based on the randomResult generated by ChainLink's fallback\n        uint32 finalNumber = randomGenerator.viewRandomResult();\n\n        // Initialize a number to count addresses in the previous bracket\n        uint256 numberAddressesInPreviousBracket;\n\n        // Calculate the amount to share post-treasury fee\n        uint256 amountToShareToWinners = (\n            ((_lotteries[_lotteryId].amountCollectedInSphynx) * (10000 - _lotteries[_lotteryId].treasuryFee))\n        ) / 10000;\n\n        // Initializes the amount to withdraw to treasury\n        uint256 amountToWithdrawToTreasury;\n\n        // Calculate prizes in SPHYNX for each bracket by starting from the highest one\n        for (uint32 i = 0; i < 6; i++) {\n            uint32 j = 5 - i;\n            uint32 transformedWinningNumber = _bracketCalculator[j] + (finalNumber % (uint32(10)**(j + 1)));\n\n            _lotteries[_lotteryId].countWinnersPerBracket[j] =\n                _numberTicketsPerLotteryId[_lotteryId][transformedWinningNumber] -\n                numberAddressesInPreviousBracket;\n\n            // A. If number of users for this _bracket number is superior to 0\n            if (\n                (_numberTicketsPerLotteryId[_lotteryId][transformedWinningNumber] - numberAddressesInPreviousBracket) !=\n                0\n            ) {\n                // B. If rewards at this bracket are > 0, calculate, else, report the numberAddresses from previous bracket\n                if (_lotteries[_lotteryId].rewardsBreakdown[j] != 0) {\n                    _lotteries[_lotteryId].sphynxPerBracket[j] =\n                        ((_lotteries[_lotteryId].rewardsBreakdown[j] * amountToShareToWinners) /\n                            (_numberTicketsPerLotteryId[_lotteryId][transformedWinningNumber] -\n                                numberAddressesInPreviousBracket)) /\n                        10000;\n\n                    // Update numberAddressesInPreviousBracket\n                    numberAddressesInPreviousBracket = _numberTicketsPerLotteryId[_lotteryId][transformedWinningNumber];\n                }\n                // A. No SPHYNX to distribute, they are added to the amount to withdraw to treasury address\n            } else {\n                _lotteries[_lotteryId].sphynxPerBracket[j] = 0;\n\n                amountToWithdrawToTreasury +=\n                    (_lotteries[_lotteryId].rewardsBreakdown[j] * amountToShareToWinners) /\n                    10000;\n            }\n        }\n\n        // Update internal statuses for lottery\n        _lotteries[_lotteryId].finalNumber = finalNumber;\n        _lotteries[_lotteryId].status = Status.Claimable;\n\n        if (_autoInjection) {\n            pendingInjectionNextLottery = amountToWithdrawToTreasury;\n            amountToWithdrawToTreasury = 0;\n        }\n\n        amountToWithdrawToTreasury += (_lotteries[_lotteryId].amountCollectedInSphynx - amountToShareToWinners);\n\n        // Transfer SPHYNX to treasury address\n        sphynxToken.safeTransfer(treasuryAddress, amountToWithdrawToTreasury);\n\n        emit LotteryNumberDrawn(currentLotteryId, finalNumber, numberAddressesInPreviousBracket);\n    }\n\n    /**\n     * @notice Change the random generator\n     * @dev The calls to functions are used to verify the new generator implements them properly.\n     * It is necessary to wait for the VRF response before starting a round.\n     * Callable only by the contract owner\n     * @param _randomGeneratorAddress: address of the random generator\n     */\n    function changeRandomGenerator(address _randomGeneratorAddress) external onlyOwner {\n        require(_lotteries[currentLotteryId].status == Status.Claimable, \"Lottery not in claimable\");\n\n        // Request a random number from the generator based on a seed\n        IRandomNumberGenerator(_randomGeneratorAddress).getRandomNumber(\n            uint256(keccak256(abi.encodePacked(currentLotteryId, currentTicketId)))\n        );\n\n        // Calculate the finalNumber based on the randomResult generated by ChainLink's fallback\n        IRandomNumberGenerator(_randomGeneratorAddress).viewRandomResult();\n\n        randomGenerator = IRandomNumberGenerator(_randomGeneratorAddress);\n\n        emit NewRandomGenerator(_randomGeneratorAddress);\n    }\n\n    /**\n     * @notice Inject funds\n     * @param _lotteryId: lottery id\n     * @param _amount: amount to inject in SPHYNX token\n     * @dev Callable by owner or injector address\n     */\n    function injectFunds(uint256 _lotteryId, uint256 _amount) external override onlyOwnerOrInjector {\n        require(_lotteries[_lotteryId].status == Status.Open, \"Lottery not open\");\n\n        sphynxToken.safeTransferFrom(address(msg.sender), address(this), _amount);\n        _lotteries[_lotteryId].amountCollectedInSphynx += _amount;\n\n        emit LotteryInjection(_lotteryId, _amount);\n    }\n\n    /**\n     * @notice Start the lottery\n     * @dev Callable by operator\n     * @param _endTime: endTime of the lottery\n     * @param _priceTicketInSphynx: price of a ticket in SPHYNX\n     * @param _discountDivisor: the divisor to calculate the discount magnitude for bulks\n     * @param _rewardsBreakdown: breakdown of rewards per bracket (must sum to 10,000)\n     * @param _treasuryFee: treasury fee (10,000 = 100%, 100 = 1%)\n     */\n    function startLottery(\n        uint256 _endTime,\n        uint256 _priceTicketInSphynx,\n        uint256 _discountDivisor,\n        uint256[6] calldata _rewardsBreakdown,\n        uint256 _treasuryFee\n    ) external override onlyOperator {\n        require(\n            (currentLotteryId == 0) || (_lotteries[currentLotteryId].status == Status.Claimable),\n            \"Not time to start lottery\"\n        );\n\n        require(\n            ((_endTime - block.timestamp) > MIN_LENGTH_LOTTERY) && ((_endTime - block.timestamp) < MAX_LENGTH_LOTTERY),\n            \"Lottery length outside of range\"\n        );\n\n        require(\n            (_priceTicketInSphynx >= minPriceTicketInSphynx) && (_priceTicketInSphynx <= maxPriceTicketInSphynx),\n            \"Outside of limits\"\n        );\n\n        require(_discountDivisor >= MIN_DISCOUNT_DIVISOR, \"Discount divisor too low\");\n        require(_treasuryFee <= MAX_TREASURY_FEE, \"Treasury fee too high\");\n\n        require(\n            (_rewardsBreakdown[0] +\n                _rewardsBreakdown[1] +\n                _rewardsBreakdown[2] +\n                _rewardsBreakdown[3] +\n                _rewardsBreakdown[4] +\n                _rewardsBreakdown[5]) == 10000,\n            \"Rewards must equal 10000\"\n        );\n\n        currentLotteryId++;\n\n        _lotteries[currentLotteryId] = Lottery({\n            status: Status.Open,\n            startTime: block.timestamp,\n            endTime: _endTime,\n            priceTicketInSphynx: _priceTicketInSphynx,\n            discountDivisor: _discountDivisor,\n            rewardsBreakdown: _rewardsBreakdown,\n            treasuryFee: _treasuryFee,\n            sphynxPerBracket: [uint256(0), uint256(0), uint256(0), uint256(0), uint256(0), uint256(0)],\n            countWinnersPerBracket: [uint256(0), uint256(0), uint256(0), uint256(0), uint256(0), uint256(0)],\n            firstTicketId: currentTicketId,\n            firstTicketIdNextLottery: currentTicketId,\n            amountCollectedInSphynx: pendingInjectionNextLottery,\n            finalNumber: 0\n        });\n\n        emit LotteryOpen(\n            currentLotteryId,\n            block.timestamp,\n            _endTime,\n            _priceTicketInSphynx,\n            currentTicketId,\n            pendingInjectionNextLottery\n        );\n\n        pendingInjectionNextLottery = 0;\n    }\n\n    function getCurrentTime() public view returns (uint256) {\n        return block.timestamp;\n    }\n\n    /**\n     * @notice It allows the admin to recover wrong tokens sent to the contract\n     * @param _tokenAddress: the address of the token to withdraw\n     * @param _tokenAmount: the number of token amount to withdraw\n     * @dev Only callable by owner.\n     */\n    function recoverWrongTokens(address _tokenAddress, uint256 _tokenAmount) external onlyOwner {\n        require(_tokenAddress != address(sphynxToken), \"Cannot be SPHYNX token\");\n\n        IERC20(_tokenAddress).safeTransfer(address(msg.sender), _tokenAmount);\n\n        emit AdminTokenRecovery(_tokenAddress, _tokenAmount);\n    }\n\n    /**\n     * @notice Set SPHYNX price ticket upper/lower limit\n     * @dev Only callable by owner\n     * @param _minPriceTicketInSphynx: minimum price of a ticket in SPHYNX\n     * @param _maxPriceTicketInSphynx: maximum price of a ticket in SPHYNX\n     */\n    function setMinAndMaxTicketPriceInSphynx(uint256 _minPriceTicketInSphynx, uint256 _maxPriceTicketInSphynx)\n        external\n        onlyOwner\n    {\n        require(_minPriceTicketInSphynx <= _maxPriceTicketInSphynx, \"minPrice must be < maxPrice\");\n\n        minPriceTicketInSphynx = _minPriceTicketInSphynx;\n        maxPriceTicketInSphynx = _maxPriceTicketInSphynx;\n    }\n\n    /**\n     * @notice Set max number of tickets\n     * @dev Only callable by owner\n     */\n    function setMaxNumberTicketsPerBuy(uint256 _maxNumberTicketsPerBuy) external onlyOwner {\n        require(_maxNumberTicketsPerBuy != 0, \"Must be > 0\");\n        maxNumberTicketsPerBuyOrClaim = _maxNumberTicketsPerBuy;\n    }\n\n    /**\n     * @notice Set operator, treasury, and injector addresses\n     * @dev Only callable by owner\n     * @param _operatorAddress: address of the operator\n     * @param _treasuryAddress: address of the treasury\n     * @param _injectorAddress: address of the injector\n     */\n    function setOperatorAndTreasuryAndInjectorAddresses(\n        address _operatorAddress,\n        address _treasuryAddress,\n        address _injectorAddress\n    ) external onlyOwner {\n        require(_operatorAddress != address(0), \"Cannot be zero address\");\n        require(_treasuryAddress != address(0), \"Cannot be zero address\");\n        require(_injectorAddress != address(0), \"Cannot be zero address\");\n\n        operatorAddress = _operatorAddress;\n        treasuryAddress = _treasuryAddress;\n        injectorAddress = _injectorAddress;\n\n        emit NewOperatorAndTreasuryAndInjectorAddresses(_operatorAddress, _treasuryAddress, _injectorAddress);\n    }\n\n    /**\n     * @notice Calculate price of a set of tickets\n     * @param _discountDivisor: divisor for the discount\n     * @param _priceTicket price of a ticket (in SPHYNX)\n     * @param _numberTickets number of tickets to buy\n     */\n    function calculateTotalPriceForBulkTickets(\n        uint256 _discountDivisor,\n        uint256 _priceTicket,\n        uint256 _numberTickets\n    ) external pure returns (uint256) {\n        require(_discountDivisor >= MIN_DISCOUNT_DIVISOR, \"Must be >= MIN_DISCOUNT_DIVISOR\");\n        require(_numberTickets != 0, \"Number of tickets must be > 0\");\n\n        return _calculateTotalPriceForBulkTickets(_discountDivisor, _priceTicket, _numberTickets);\n    }\n\n    /**\n     * @notice View current lottery id\n     */\n    function viewCurrentLotteryId() external view override returns (uint256) {\n        return currentLotteryId;\n    }\n\n    /**\n     * @notice View lottery information\n     * @param _lotteryId: lottery id\n     */\n    function viewLottery(uint256 _lotteryId) external view returns (Lottery memory) {\n        return _lotteries[_lotteryId];\n    }\n\n    /**\n     * @notice View ticker statuses and numbers for an array of ticket ids\n     * @param _ticketIds: array of _ticketId\n     */\n    function viewNumbersAndStatusesForTicketIds(uint256[] calldata _ticketIds)\n        external\n        view\n        returns (uint32[] memory, bool[] memory)\n    {\n        uint256 length = _ticketIds.length;\n        uint32[] memory ticketNumbers = new uint32[](length);\n        bool[] memory ticketStatuses = new bool[](length);\n\n        for (uint256 i = 0; i < length; i++) {\n            ticketNumbers[i] = _tickets[_ticketIds[i]].number;\n            if (_tickets[_ticketIds[i]].owner == address(0)) {\n                ticketStatuses[i] = true;\n            } else {\n                ticketStatuses[i] = false;\n            }\n        }\n\n        return (ticketNumbers, ticketStatuses);\n    }\n\n    /**\n     * @notice View rewards for a given ticket, providing a bracket, and lottery id\n     * @dev Computations are mostly offchain. This is used to verify a ticket!\n     * @param _lotteryId: lottery id\n     * @param _ticketId: ticket id\n     * @param _bracket: bracket for the ticketId to verify the claim and calculate rewards\n     */\n    function viewRewardsForTicketId(\n        uint256 _lotteryId,\n        uint256 _ticketId,\n        uint32 _bracket\n    ) external view returns (uint256) {\n        // Check lottery is in claimable status\n        if (_lotteries[_lotteryId].status != Status.Claimable) {\n            return 0;\n        }\n\n        // Check ticketId is within range\n        if (\n            (_lotteries[_lotteryId].firstTicketIdNextLottery < _ticketId) &&\n            (_lotteries[_lotteryId].firstTicketId >= _ticketId)\n        ) {\n            return 0;\n        }\n\n        return _calculateRewardsForTicketId(_lotteryId, _ticketId, _bracket);\n    }\n\n    /**\n     * @notice View user ticket ids, numbers, and statuses of user for a given lottery\n     * @param _user: user address\n     * @param _lotteryId: lottery id\n     * @param _cursor: cursor to start where to retrieve the tickets\n     * @param _size: the number of tickets to retrieve\n     */\n    function viewUserInfoForLotteryId(\n        address _user,\n        uint256 _lotteryId,\n        uint256 _cursor,\n        uint256 _size\n    )\n        external\n        view\n        returns (\n            uint256[] memory,\n            uint32[] memory,\n            bool[] memory,\n            uint256\n        )\n    {\n        uint256 length = _size;\n        uint256 numberTicketsBoughtAtLotteryId = _userTicketIdsPerLotteryId[_user][_lotteryId].length;\n\n        if (length > (numberTicketsBoughtAtLotteryId - _cursor)) {\n            length = numberTicketsBoughtAtLotteryId - _cursor;\n        }\n\n        uint256[] memory lotteryTicketIds = new uint256[](length);\n        uint32[] memory ticketNumbers = new uint32[](length);\n        bool[] memory ticketStatuses = new bool[](length);\n\n        for (uint256 i = 0; i < length; i++) {\n            lotteryTicketIds[i] = _userTicketIdsPerLotteryId[_user][_lotteryId][i + _cursor];\n            ticketNumbers[i] = _tickets[lotteryTicketIds[i]].number;\n\n            // True = ticket claimed\n            if (_tickets[lotteryTicketIds[i]].owner == address(0)) {\n                ticketStatuses[i] = true;\n            } else {\n                // ticket not claimed (includes the ones that cannot be claimed)\n                ticketStatuses[i] = false;\n            }\n        }\n\n        return (lotteryTicketIds, ticketNumbers, ticketStatuses, _cursor + length);\n    }\n\n    /**\n     * @notice Calculate rewards for a given ticket\n     * @param _lotteryId: lottery id\n     * @param _ticketId: ticket id\n     * @param _bracket: bracket for the ticketId to verify the claim and calculate rewards\n     */\n    function _calculateRewardsForTicketId(\n        uint256 _lotteryId,\n        uint256 _ticketId,\n        uint32 _bracket\n    ) internal view returns (uint256) {\n        // Retrieve the winning number combination\n        uint32 userNumber = _lotteries[_lotteryId].finalNumber;\n\n        // Retrieve the user number combination from the ticketId\n        uint32 winningTicketNumber = _tickets[_ticketId].number;\n\n        // Apply transformation to verify the claim provided by the user is true\n        uint32 transformedWinningNumber = _bracketCalculator[_bracket] +\n            (winningTicketNumber % (uint32(10)**(_bracket + 1)));\n\n        uint32 transformedUserNumber = _bracketCalculator[_bracket] + (userNumber % (uint32(10)**(_bracket + 1)));\n\n        // Confirm that the two transformed numbers are the same, if not throw\n        if (transformedWinningNumber == transformedUserNumber) {\n            return _lotteries[_lotteryId].sphynxPerBracket[_bracket];\n        } else {\n            return 0;\n        }\n    }\n\n    /**\n     * @notice Calculate final price for bulk of tickets\n     * @param _discountDivisor: divisor for the discount (the smaller it is, the greater the discount is)\n     * @param _priceTicket: price of a ticket\n     * @param _numberTickets: number of tickets purchased\n     */\n    function _calculateTotalPriceForBulkTickets(\n        uint256 _discountDivisor,\n        uint256 _priceTicket,\n        uint256 _numberTickets\n    ) internal pure returns (uint256) {\n        return (_priceTicket * _numberTickets * (_discountDivisor + 1 - _numberTickets)) / _discountDivisor;\n    }\n\n    /**\n     * @notice Check if an address is a contract\n     */\n    function _isContract(address _addr) internal view returns (bool) {\n        uint256 size;\n        assembly {\n            size := extcodesize(_addr)\n        }\n        return size > 0;\n    }\n}\n",
  "sourcePath": "/Users/gideonpraise/WorkSpace/CryptSans/Sphynx/sphynx-lottery/contracts/SphynxSwapLottery.sol",
  "compiler": {
    "name": "solc",
    "version": "0.8.4+commit.c7e474f2.Emscripten.clang"
  },
  "schemaVersion": "3.4.3",
  "updatedAt": "2021-09-27T15:27:32.316Z",
  "networkType": "ethereum",
  "devdoc": {
    "kind": "dev",
    "methods": {
      "buyTickets(uint256,uint32[])": {
        "details": "Callable by users",
        "params": {
          "_lotteryId": ": lotteryId",
          "_ticketNumbers": ": array of ticket numbers between 1,000,000 and 1,999,999"
        }
      },
      "calculateTotalPriceForBulkTickets(uint256,uint256,uint256)": {
        "params": {
          "_discountDivisor": ": divisor for the discount",
          "_numberTickets": "number of tickets to buy",
          "_priceTicket": "price of a ticket (in SPHYNX)"
        }
      },
      "changeRandomGenerator(address)": {
        "details": "The calls to functions are used to verify the new generator implements them properly. It is necessary to wait for the VRF response before starting a round. Callable only by the contract owner",
        "params": {
          "_randomGeneratorAddress": ": address of the random generator"
        }
      },
      "claimTickets(uint256,uint256[],uint32[])": {
        "details": "Callable by users only, not contract!",
        "params": {
          "_brackets": ": array of brackets for the ticket ids",
          "_lotteryId": ": lottery id",
          "_ticketIds": ": array of ticket ids"
        }
      },
      "closeLottery(uint256)": {
        "details": "Callable by operator",
        "params": {
          "_lotteryId": ": lottery id"
        }
      },
      "constructor": {
        "details": "RandomNumberGenerator must be deployed prior to this contract",
        "params": {
          "_randomGeneratorAddress": ": address of the RandomGenerator contract used to work with ChainLink VRF",
          "_sphynxTokenAddress": ": address of the SPHYNX token"
        }
      },
      "drawFinalNumberAndMakeLotteryClaimable(uint256,bool)": {
        "details": "Callable by operator",
        "params": {
          "_autoInjection": ": reinjects funds into next lottery (vs. withdrawing all)",
          "_lotteryId": ": lottery id"
        }
      },
      "injectFunds(uint256,uint256)": {
        "details": "Callable by owner or injector address",
        "params": {
          "_amount": ": amount to inject in SPHYNX token",
          "_lotteryId": ": lottery id"
        }
      },
      "owner()": {
        "details": "Returns the address of the current owner."
      },
      "recoverWrongTokens(address,uint256)": {
        "details": "Only callable by owner.",
        "params": {
          "_tokenAddress": ": the address of the token to withdraw",
          "_tokenAmount": ": the number of token amount to withdraw"
        }
      },
      "renounceOwnership()": {
        "details": "Leaves the contract without owner. It will not be possible to call `onlyOwner` functions anymore. Can only be called by the current owner. NOTE: Renouncing ownership will leave the contract without an owner, thereby removing any functionality that is only available to the owner."
      },
      "setMaxNumberTicketsPerBuy(uint256)": {
        "details": "Only callable by owner"
      },
      "setMinAndMaxTicketPriceInSphynx(uint256,uint256)": {
        "details": "Only callable by owner",
        "params": {
          "_maxPriceTicketInSphynx": ": maximum price of a ticket in SPHYNX",
          "_minPriceTicketInSphynx": ": minimum price of a ticket in SPHYNX"
        }
      },
      "setOperatorAndTreasuryAndInjectorAddresses(address,address,address)": {
        "details": "Only callable by owner",
        "params": {
          "_injectorAddress": ": address of the injector",
          "_operatorAddress": ": address of the operator",
          "_treasuryAddress": ": address of the treasury"
        }
      },
      "startLottery(uint256,uint256,uint256,uint256[6],uint256)": {
        "details": "Callable by operator",
        "params": {
          "_discountDivisor": ": the divisor to calculate the discount magnitude for bulks",
          "_endTime": ": endTime of the lottery",
          "_priceTicketInSphynx": ": price of a ticket in SPHYNX",
          "_rewardsBreakdown": ": breakdown of rewards per bracket (must sum to 10,000)",
          "_treasuryFee": ": treasury fee (10,000 = 100%, 100 = 1%)"
        }
      },
      "transferOwnership(address)": {
        "details": "Transfers ownership of the contract to a new account (`newOwner`). Can only be called by the current owner."
      },
      "viewLottery(uint256)": {
        "params": {
          "_lotteryId": ": lottery id"
        }
      },
      "viewNumbersAndStatusesForTicketIds(uint256[])": {
        "params": {
          "_ticketIds": ": array of _ticketId"
        }
      },
      "viewRewardsForTicketId(uint256,uint256,uint32)": {
        "details": "Computations are mostly offchain. This is used to verify a ticket!",
        "params": {
          "_bracket": ": bracket for the ticketId to verify the claim and calculate rewards",
          "_lotteryId": ": lottery id",
          "_ticketId": ": ticket id"
        }
      },
      "viewUserInfoForLotteryId(address,uint256,uint256,uint256)": {
        "params": {
          "_cursor": ": cursor to start where to retrieve the tickets",
          "_lotteryId": ": lottery id",
          "_size": ": the number of tickets to retrieve",
          "_user": ": user address"
        }
      }
    },
    "title": "SphynxSwap Lottery.",
    "version": 1
  },
  "userdoc": {
    "kind": "user",
    "methods": {
      "buyTickets(uint256,uint32[])": {
        "notice": "Buy tickets for the current lottery"
      },
      "calculateTotalPriceForBulkTickets(uint256,uint256,uint256)": {
        "notice": "Calculate price of a set of tickets"
      },
      "changeRandomGenerator(address)": {
        "notice": "Change the random generator"
      },
      "claimTickets(uint256,uint256[],uint32[])": {
        "notice": "Claim a set of winning tickets for a lottery"
      },
      "closeLottery(uint256)": {
        "notice": "Close lottery"
      },
      "constructor": {
        "notice": "Constructor"
      },
      "drawFinalNumberAndMakeLotteryClaimable(uint256,bool)": {
        "notice": "Draw the final number, calculate reward in SPHYNX per group, and make lottery claimable"
      },
      "injectFunds(uint256,uint256)": {
        "notice": "Inject funds"
      },
      "recoverWrongTokens(address,uint256)": {
        "notice": "It allows the admin to recover wrong tokens sent to the contract"
      },
      "setMaxNumberTicketsPerBuy(uint256)": {
        "notice": "Set max number of tickets"
      },
      "setMinAndMaxTicketPriceInSphynx(uint256,uint256)": {
        "notice": "Set SPHYNX price ticket upper/lower limit"
      },
      "setOperatorAndTreasuryAndInjectorAddresses(address,address,address)": {
        "notice": "Set operator, treasury, and injector addresses"
      },
      "startLottery(uint256,uint256,uint256,uint256[6],uint256)": {
        "notice": "Start the lottery"
      },
      "viewCurrentLotteryId()": {
        "notice": "View current lottery id"
      },
      "viewLottery(uint256)": {
        "notice": "View lottery information"
      },
      "viewNumbersAndStatusesForTicketIds(uint256[])": {
        "notice": "View ticker statuses and numbers for an array of ticket ids"
      },
      "viewRewardsForTicketId(uint256,uint256,uint32)": {
        "notice": "View rewards for a given ticket, providing a bracket, and lottery id"
      },
      "viewUserInfoForLotteryId(address,uint256,uint256,uint256)": {
        "notice": "View user ticket ids, numbers, and statuses of user for a given lottery"
      }
    },
    "notice": "It is a contract for a lottery system using randomness provided externally.",
    "version": 1
  }
}